:1000000000000110E12E0000312F0000332F00000E
:10001000352F0000372F0000392F000000000000AE
:100020000000000000000000000000007D1900003A
:100030003D2F0000000000009D1900000530000069
:10004000452F0000472F0000492F00004B2F0000D4
:100050004D2F00004F2F0000512F0000532F0000A4
:10006000552F0000572F0000592F00005B2F000074
:100070005D2F00005F2F0000612F0000632F000044
:10008000652F0000672F0000692F00006B2F000014
:100090006D2F00006F2F0000712F0000732F0000E4
:1000A000752F0000772F0000153000007B2F000017
:1000B0007D2F00004D300000812F0000832F0000B5
:1000C000852F0000872F0000892F00008B2F000054
:1000D0008D2F00008F2F0000912F0000932F000024
:1000E000952F0000002902DA4A4210127047084B8F
:1000F000B0FBF3F048434FF47A71B0FBF1F3FF33F8
:10010000180A90428CBFC2EB00000020704700BF6D
:1001100040420F00F8B5164604460D460F460B4602
:100120000022D86B93F838E0000100F4706004EB13
:10013000421140EA0E00C1F80401186C013210337C
:10014000042AC1F80001ECD16B68A968A3620122FE
:100150003046FFF7C7FFE968206301223046FFF70A
:10016000C1FF2969606301223046FFF7BBFF69695F
:10017000A06301223046FFF7B5FFA969E0630022C2
:100180003046FFF7AFFFE969206401223046FFF7F0
:10019000A9FF296A606401223046FFF7A3FF696A5C
:1001A000A06401223046FFF79DFFA96AE0640122A6
:1001B0003046FFF797FFE96A206501223046FFF7D6
:1001C00091FF296B606501223046FFF78BFF40F2FB
:1001D0008311A065022240F2031021622968206287
:1001E000626230460022FFF77DFF0F308321030952
:1001F000636221620021386CC0F3C112022A0AD066
:10020000012A03D1C0F38123083307E02AB9C0F3E0
:100210008123093302E0082300E00023DAB243041B
:1002200001D5023200E001327B6B23B1F86B00FA9A
:1002300002F213431B68013110370429DBD100207F
:100240002062D4F8002142F40023C4F80031D4F82D
:10025000201141F40020C4F82001D4F8402142F4D8
:100260000023C4F84031D4F8601141F40020C4F8F0
:100270006001F8BD70B50D784B6800EB45150C4674
:1002800016468968C5F8003210460122FFF72AFF9A
:10029000E168C5F8040200223046FFF723FF216918
:1002A000C5F8080201223046FFF71CFF6169C5F856
:1002B0000C0201223046FFF715FFA169C5F81002B4
:1002C00002223046FFF70EFFE169C5F81402012251
:1002D0003046FFF707FFC5F8180270BD002A14BFAB
:1002E0004FF480720022002B0CBF134642F0010332
:1002F000003118BF01218360016070470023FF2196
:10030000C0F8F031C0F8D031C0F8B031C0F8903149
:10031000C0F87031C0F85031C0F83031C0F8103139
:1003200081600161704710B5012304290ED8DFE810
:1003300001F0030507090B00016808E0416806E0C9
:10034000C16804E0416902E0816900E0C16903FA23
:1003500002F00840C0B210BD012303FA02F3DAB282
:1003600009B98260704702617047083100EB4110A3
:100370000369012A0CBF43F0010323F00103036169
:10038000704770B54469049D072C4CD8DFE804F031
:1003900004112335351123358268406802F00706C1
:1003A0000305190D41F00C4242F4103040EA86403A
:1003B00020E0436802F0070619050A0D42F00440E8
:1003C00040EA063305F0070543EAC63646EA8541AA
:1003D00041EA455070BD03F00706436801F007028B
:1003E0001905080D40F0084343EA023141EAC232E0
:1003F00042EA864040EA465070BD406801F007017D
:100400000605300D40F0004646EA013002F00702D2
:1004100040EAC23603F0070346EA834105F00700CD
:1004200041EA405070BD002070BDF0B50D68012656
:1004300006FA05F7C469E4B23C4224D108356D01DF
:10044000FFB2441987600761A3600663036BDB0793
:10045000FCD5CB68435108694969606001F0070326
:100460009DF81410D80240F4404301F01F0043EA05
:1004700040019DF8183003F01F0041EA801121610E
:100480000120E260F0BD0020F0BD836843F002016E
:10049000816082689207F8D5836803F0110181605A
:1004A00082689307F8D47047836810B503F012018F
:1004B00081608268044642F010038360FFF7E5FF25
:1004C0000320206021680029FCD1FF22E160226125
:1004D000216410BD012907D1826842F001038360C5
:1004E0008168C907F8D57047836803F012018160FD
:1004F000704710B5FF22036A9A420DD0026A0123A9
:100500000A6003F1080450F8244041F82340013305
:10051000DBB2082BF5D1EEE710BD10B5002351F882
:10052000232003F118040133DBB2082B40F8242008
:10053000F5D110BD82B000228DF807209DF807305C
:100540000F2B04D89DF80700411CCAB2F4E702B093
:10055000704701F003010A430260FFF7EBBF4368F5
:1005600023F0FF0211434160FFF7E4BF012322B1F2
:1005700003FA01F34268134304E003FA01F342680B
:1005800022EA03034360FFF7D5BF38B5436804464A
:1005900023F4807060600025FFF7CCFF2560FFF733
:1005A000C9FFFFF7C7FF6FF06041E5636162E56077
:1005B000FFF7C0FFE562FFF7BDFF40F2FF72A263E5
:1005C00038BD40F2FF7341F4806183638260C16093
:1005D000FFF7B0BF40F2FF734FF0FF31002283639B
:1005E0008160C260FFF7A6BF036903F03F020A7093
:1005F000436982694B60C369006A8A60CB600861A5
:1006000070470A8810B58C788B6802FA04F243624E
:10061000230182620C79CA784979DBB22243134301
:1006200011B943F0010301E043F00903C362BDE8DF
:100630001040FFF77FBF30B5002A0CBF0F22072202
:100640000CBF08230023934208D851F8045B03F140
:100650002004013340F82450DBB2F4E730BD10B57C
:10066000002A0CBF0F2207220CBF0823002393424D
:1006700008D803F1200450F82440013341F8044B1A
:10068000DBB2F4E710BD82B0019B072383604269AF
:10069000D20702D503680193F9E7042906D10123A3
:1006A000C36542699306FCD50023C3650022012976
:1006B0004260C260026201D0042908D10129C264EB
:1006C0004265026503D1002101618369019342699A
:1006D00010210192816202B070472DE9F04F8BB07A
:1006E0000D46099211091207039102920446DDE9B1
:1006F0000201CDE906014FF0FF33002608950127DE
:1007000005934FF0000A4FF0000BB1464FF0000C7C
:10071000E046089A00236244DDE90601CDF804C0F2
:1007200002F096FDB0F1004FDDF804C001D940425F
:1007300001314B1EB3F5803F09D2059A904206D293
:100740008A464FF0000BE0B105903E46C14608F1E5
:100750000108B845AC44DCD3059971B1089801375C
:1007600043190893DDE90201DDE90623121843EB82
:100770000103102FCDE90623C8D15AEA0B0135D069
:1007800001E03E46C146099A06EB09011009A1FBAA
:100790000A23704301FB0B33002102F059FD85420F
:1007A0008CBFC0EB0500C5EB000064235843B0FBD1
:1007B000F5F5022D1AD8E0684FEA1A2140F08002C0
:1007C00041EA0B63FF20E260034000EA0A02636033
:1007D0002260E1683601F0B209F00F0940EA09062B
:1007E00001F07F03E3600120A66200E000200BB06F
:1007F000BDE8F08F10B5C4680A4304F0C004134389
:100800001C43C46010BD436913F0200202D0016094
:100810000120704710467047012A03D1042906D1F0
:10082000C2657047042902D1C36D0023C3657047B8
:10083000074B021D520110B59C5803EB4010214399
:100840009950AA215523C0F88C10C0F88C3010BDE7
:1008500000C00F40084B021D520110B59C5803EB1D
:10086000401024EA01019950AA235522C0F88C3087
:10087000C0F88C2010BD00BF00C00F40084B10B561
:10088000041D41EA421203EB4414626003EB401082
:10089000AA215522C0F88C10C0F88C2010BD00BFD2
:1008A00000C00F40012101FA00F0034BD3F8C4202F
:1008B0000243C3F8C420704700C00F40054B012815
:1008C000D3F804210CBF42F4807222F48072C3F882
:1008D0000421704700C00F40024BD3F80401C0F35D
:1008E0000020704700C00F40044BD3F8042102F4ED
:1008F00080710843C3F80401704700BF00C00F4077
:10090000044BD3F8082122F4407141EA0020C3F8D7
:100910000801704700C00F40044BD3F8082122F0B3
:100920001F010843C3F80801704700BF00C00F4013
:10093000054B064AD3F80C0100F00301012994BFCE
:1009400010460020704700BF00C00F40001BB700DA
:10095000074B10B5D3F8880010F4807007D0D3F897
:100960008440FFF7E5FF04F01F014C1C604310BDFD
:1009700000C00F4008B5FFF7AFFF28B1012807D12D
:10098000BDE80840FFF7E4BFBDE80840FFF7D0BF6F
:10099000002008BD08B5FFF7EDFF044BD3F80411A4
:1009A00001F01F02B0FBF2F008BD00BF00C00F4015
:1009B000064B10B5D3F8A84114F01F0404D0FFF77C
:1009C000D9FFB0FBF4F010BD204610BD00C00F40B1
:1009D00010B50446FFF7DEFF054BD3F80021511C8C
:1009E000B0FBF1F203482146BDE81040FFF792BB8F
:1009F00000C00F4000C0092010B50446FFF7CAFF31
:100A0000054BD3F80021511CB0FBF1F203482146FD
:100A1000BDE81040FFF72EBC00C00F4000C0092009
:100A2000094B0F284FF00102D3F8C41104D9103834
:100A300002FA00F20A4303E002FA00F221EA02029B
:100A4000C3F8C421C0B2704700C00F4010B50446BF
:100A50001D20FFF727FF2046FFF750FC054B002223
:100A60001A705A709A70DA701A715A719A71DA7132
:100A700010BD00BFA408001038B500220C46054682
:100A8000FFF773FC284601212246FFF74CFC20B1FA
:100A9000284600212246FFF75FFC28460221224615
:100AA000FFF741FC20B1284601212246FFF754FC04
:100AB000014B00221A5538BDA408001070B50C4631
:100AC000224600210546FFF72EFC08B9002070BD24
:100AD000284601212246FFF726FC064628462EB16D
:100AE00000212246FFF738FC012070BD022122467A
:100AF000FFF719FC0028E9D0284601212246FFF71C
:100B00002BFCE3E730B5049D9DF8144003980A6080
:100B10004C614D60072C25D8DFE804F0040D141B50
:100B20001B0D141BCB60022325FA03F508618B60B3
:100B30004D60032030BD0D4ACB6052F820000861A3
:100B4000012030BD094A086152F823300220CB60F1
:100B500030BD064A52F8200052F823300861CB60BD
:100B6000002030BD4FF0FF3030BD00BF3CB9000069
:100B70002DE9F0438BB00F4600939DF848101C46BA
:100B8000139B1546019302913A4604A92B468046D1
:100B9000FFF7B8FFB0F1000901DA00202DE019F0ED
:100BA000010F04D12846FFF73BFF064601E000266F
:100BB000354619F0020F04D12046FFF731FF814678
:100BC00001E00024A1460E48415D025D0D48435DF1
:100BD000005D009004A8FFF7D4FB8DE840020246B8
:100BE00004A940460023FFF720FC0028D5D040464A
:100BF00039460122FFF7B9FB01200BB0BDE8F083B5
:100C0000DCB90000BCB9000070B506460024E5B2AE
:100C1000304605212A46FFF786FB28B9054BE25CE2
:100C200012B90120185503E00134082CEFD100253A
:100C3000284670BDA408001010B504460920FFF72F
:100C400031FE2046BDE81040FFF72EBC38B50D46FA
:100C50000446FFF7ADFE6B00591E0818B0FBF3F217
:100C600002B1013A2046D1B2BDE83840FFF777BC67
:100C700010B504461C20FFF715FE1C2000F006FDF1
:100C80000D48FFF7E3FE2046FFF77FFC00222046D9
:100C90000221FFF75EFC20460849FFF7D7FF2046F8
:100CA00008210122FFF762FC204603210022BDE853
:100CB0001040FFF74EBC00BF00000820801A06005D
:100CC00010F4807304D16FF0050008601846704777
:100CD00020F4FF5020F01F021AB16FF006030B60E2
:100CE00000E00A60012070472DE9F04106460D46FC
:100CF0001F46FFF766FC4FF4803015F0C008726B9A
:100D000003D1140601D5002417E05106FBD440F2AC
:100D10000523134053B1D3070DD505F03F01012939
:100D2000F1D02929EFD00C29EDD004E00138E4D12D
:100D30006FF0030401E04FF0FF343046FFF74AFC48
:100D4000B4B9B8F1000F13D030463946FFF74CFC68
:100D500005F03F02012A0BD0292A09D0022A07D028
:100D6000092A05D03C78944214BF4FF0FF34002488
:100D70002046BDE8F081F0B56FF0060387B0074666
:100D80004FF0FF301546009310600E0414243846CF
:100D90004D21324601ABFFF7A7FF009038B96946F5
:100DA0000298FFF78DFF02990098296001E0013C4D
:100DB000EDD107B0F0BDF0B589B008AA002342F824
:100DC0001C3D06460D46FFF7D6FF38BB0198C0F321
:100DD0004323032B1DD16FF0060102912F0414242D
:100DE000304647213A4603ABFFF77EFF029020B919
:100DF000049802A9FFF764FF08B9013CF0D10298FA
:100E000060B901AA30462946FFF7B5FF019AC2F33F
:100E10004323042B0CBF00206FF0040009B0F0BD89
:100E200070B58DB288B06FF00603294601AA064658
:100E30000293FFF7A0FF029050BB0198C0F343213B
:100E4000042901D1002025E04A1F012A20D81424BA
:100E500030464C21002203ABFFF746FF029098B9C1
:100E6000049802A9FFF72CFF70B1029890B93046A0
:100E7000294601AAFFF77FFF019BC3F34320042803
:100E8000E0D00728DED003E0013CE1D1029801E088
:100E90006FF0040008B070BD70B56FF0060386B047
:100EA000064600930D041424304677212A4601ABF0
:100EB000FFF71AFF009060B902986946FFF700FF3C
:100EC00038B1009848B9029A930606D46FF006002C
:100ED0000090013CE8D16FF0060006B070BD2DE92E
:100EE000F041156886B007461646984625F07F45BE
:100EF00009B145F080454FF4005438460021FFF712
:100F0000CBFF00BB384669212A4601ABFFF7ECFE58
:100F100090B9029900290FDA32681AB921F07F429C
:100F2000326010E022F07F430B40934209D1C1F3BD
:100F3000807188F8001006E0013CDED16FF00600F9
:100F400001E06FF0010006B0BDE8F0812DE9F84343
:100F5000456B40F23A262E40044690469946089F3B
:100F600036B140F23A2181634FF0FF30BDE8F8839B
:100F7000EA0506D54FF48070A063E6633046BDE80D
:100F8000F88315F4806202D04FF4806328E0164E97
:100F90002E4036B3456B79B16B040DD5D8F80030CF
:100FA00013F03F0F08BF0122C918FFF744FBD8F820
:100FB00000002030C8F80000B9F1000F0FD02A045B
:100FC0000DD53968204611F03F0F494401D0002269
:100FD00000E00122FFF743FB3A6820323A60024BFF
:100FE000A3630120BDE8F88300C40F0007B5B1F882
:100FF00034126A46FFF7BFFE01900098C0F3432009
:101000000EBD07B5B1F8341201AAFFF7B4FE01987E
:101010000EBD00002DE9F0430C468DB0B1F834123E
:1010200005469146FFF7C7FE074600286BD140F200
:101030002A73EB6301213648FFF7E6FD0CAE06F894
:10104000280D01464FF00608402001224B46019032
:10105000CDF800802E48FFF78BFD3046D4F84C12B7
:1010600088478DF814702B4F01230222284604A9CB
:1010700006976FF00606ADF810308DF812808DF8E7
:1010800013208DF81530FFF7BCFAB4F834720396CC
:10109000202628463946FFF7FFFE02460390A8B9EE
:1010A00028464D2107ABFFF71FFE039070B9089843
:1010B00003A9FFF705FE48B1039959B9D4F8503296
:1010C000984700280CBF4026002604E0701E10F050
:1010D000FF06DED100260E489DF80810FFF7CCFC75
:1010E00028462146FFF782FF052804D12846B4F898
:1010F0003412FFF795FE28462146FFF777FF0428B4
:10110000F9D1304600E000200DB0BDE8F08300BF0B
:1011100000000820404B4C002DE9F041AA4B00266E
:10112000C1F8383288B00546C1F830620C46A7498C
:10113000FFF78CFD324628460321FFF70AFA3246B4
:10114000334628464FF48071FFF7CEFD064600284F
:1011500040F06781D4F85412642088471427284649
:1011600048214FF4D57203ABFFF7BEFD28B9049AAE
:10117000D105B1F1554F06D051E1013FEFD1821CAD
:1011800000F04D81D0B9D4F83072914B08AA47F0E5
:10119000010042F8183DC4F83002012128460DF143
:1011A0000703FFF79CFE9DF807202AB1D4F8301200
:1011B00041F08040C4F83002142738E0844808AA7F
:1011C00042F8180D394628460DF10703FFF787FE50
:1011D00020B9D4F8307247F00100EBE7831C22D02D
:1011E000284603214022FFF7B4F9D4F854226420A2
:1011F00090474FF40077DFF8D881284641214246D6
:1012000003ABFFF771FD50B90499002907DA434693
:101210000B40434518BF6FF00100CDD003E0013F04
:10122000E9D16FF006000646FBE0013F0FD02846EB
:10123000C221002203ABFFF757FD0028F5D1049B24
:101240000598069A0799E361A06162612161D4F86B
:101250003072F80719D50022A4F834221427284642
:101260004321002203ABFFF73FFD58B9049BD9048B
:10127000C80CC10506D5420A032A03D11F0CA4F8E5
:10128000347220E0013FEAD11DE001236FF0060037
:10129000A4F8343202901427284643214FF48032B8
:1012A00003ABFFF721FD029010B1013FF4D105E03F
:1012B000049802A9FFF704FD0028F6D02846032170
:1012C0000022FFF746F9B4F8348214274FEA0848A1
:1012D0002846C921424603ABFFF706FD40B9049BEF
:1012E00005990698079AE362A1626062226201E0B2
:1012F000013FEDD1236923B92669003618BF0126C5
:101300008FE0A76A0120C7F3034100FA01F3D4F884
:1013100030223049C4F83C3211402E4A9142626A70
:1013200003D1110C0A18900210E0B90041EA927141
:10133000C2F3C232023200FA02F00905090D01318E
:101340004843B3F5007F01D95B0A5843C4F844020F
:10135000D4F84402B4F834124302C4F840322846A8
:10136000FFF729FD00285CD128462146FFF73EFE05
:10137000042856D128461449FFF768FCD4F8307287
:101380000B2117F0010228462BD00122FFF7EEF8BF
:101390006FF00601B4F834820291202728464146B6
:1013A000FFF77AFD0290B8B928464621022203AB26
:1013B000FFF79AFC029078B9049802A9FFF780FC25
:1013C00050B1029878B12CE0002D3101801A06004E
:1013D0000080FF00010000407A1E12F0FF07DDD1FF
:1013E0001FE0FFF7C3F86FF006030293202728469B
:1013F00050214FF4007203ABFFF776FC029048B91E
:10140000049802A9FFF75CFC20B1029900293FF47F
:1014100073AF06E0013F17F0FF07E8D101E06FF07E
:101420000106304608B0BDE8F08100BF2DE9F04F5D
:10143000B3F100088DB005460C469346169E01DABE
:10144000002781E0D1F8443208EB06029A42F7D82F
:10145000B1F83412FFF7AFFC82460028F0D140F219
:101460002A700121E8633A48FFF7CEFB0CAF062350
:101470004FEA462907F8280D012201468DE80802A7
:1014800033485B46FFF774FB3846D4F84C12884764
:10149000304F0120092202238DF8150004A92846A7
:1014A0008DF812208DF814A0ADF810608DF813306F
:1014B0000697FFF7A6F8D4F830126FF00602012E57
:1014C00014BF4FF0520A4FF0510A4900039201D560
:1014D00020270BE04FEA4828FAE7089803A9FFF70E
:1014E000EFFB68B97B1E13F0FF0709D02846514671
:1014F000424607ABFFF7F8FB03900028F2D1ECE778
:10150000039838B9D4F85012884700280CBF4F46CA
:10151000002700E000270E489DF80810FFF7ACFAFE
:10152000012E05DD2846B4F83412FFF779FC05E0FA
:1015300028462146FFF75AFD0528F3D028462146C4
:10154000FFF754FD0428F9D138460DB0BDE8F08FFF
:1015500000000820404B4C002DE9F0471F1E8CB0C6
:1015600005460C469146149E01DA002785E0D1F825
:101570004432BA199A42F8D8B1F83412FFF71BFC7A
:101580000028F2D1D4F830026FF00601012E14BF0A
:101590004FF0590A4FF0580A4000039102D54FF01E
:1015A00020080BE07F02FAE7089803A9FFF788FB01
:1015B00070B908F1FF3818F0FF0809D028465146E5
:1015C0003A4607ABFFF790FB03900028F1D1EBE719
:1015D000039A002AC9D128462146FFF707FD0628AD
:1015E000F9D140F21A730121EB632648FFF70CFB97
:1015F0000CAF05234FEA462807F8280D01464A4656
:101600008DE808011F480123FFF7B2FA3846D4F8E5
:101610004C1288471C4F0920002301228DF812002C
:1016200004A928468DF813308DF815208DF8143054
:101630000697ADF81060FEF7E4FFD4F85012884723
:101640009DF8081000280CBF474600270D48FFF7FB
:1016500013FA012E05DD2846B4F83412FFF7E0FB3B
:1016600005E028462146FFF7C1FC0628F3D02846AE
:101670002146FFF7BBFC0428F9D138460CB0BDE881
:10168000F08700BF00000820002D3101420901232E
:1016900000F01F0003FA00F104489200131859608B
:1016A0005A6822EA01015960704700BFC8C10F4063
:1016B0000B4B98420ED003F5804188420CD001F5C7
:1016C000082290420AD002F58043984214BF0420B9
:1016D00003207047002070470120704702207047A8
:1016E00000C0004038B50446FFF7E2FF0F4B054647
:1016F0009C420DD003F5082084420BD000F58041B8
:101700008C4209D00A4A944214BF0320082004E006
:10171000042002E0182000E01920FFF7C3F820465B
:101720002946BDE83840FEF7AEBF00BF00000140CB
:1017300000400A4038B504460D46FFF739F92946FE
:1017400002462046BDE83840FEF7C7BF38B50C4614
:101750000546FFF7ADFF224601462846BDE8384062
:10176000FFF75AB808B5FFF715F9014B186008BD27
:10177000081E001038B50C4B0C4C01259D6020460E
:10178000DD60FFF7AFFF20464FF4E131FFF7D2FFF6
:101790000022204603211346FFF72CF82046294655
:1017A000BDE83840FFF7D2BF00C0024000C0004093
:1017B00010B5044603482146FFF725F80028F9D064
:1017C00010BD00BF00C0004070B50E461546002495
:1017D000AC4204D2305DFFF7EBFF0134F8E7284656
:1017E00070BD000008B5FFF7C5FFFFF7BBFF094B51
:1017F0001A6842F080601860996941F080629A61CD
:10180000186840F0006119609A6942F000609861C0
:1018100008BD00BF40800920084B0222C3F8882081
:10182000C3F88C20C3F89420C3F89820C3F89C20F8
:10183000C3F8AC20C3F8B020704700BF00C002401E
:1018400038B5474C0020C4F80C01FFF737F80323E4
:101850002020C4F8B031C4F8A001D4F8A0114A0681
:10186000FBD53F4A01250020C2F80C510921024650
:10187000FFF704F800202946FEF7DAFF0022284689
:101880001321FEF7FBFF29462846FEF7D1FF022071
:10189000FFF736F80520FFF73FF828462946FEF700
:1018A000D9FF2F4CD4F888305B05FAD50120FFF71B
:1018B0001BF80120FFF702F80220C4F8A8010B2052
:1018C000FEF7F0FF2020FFF7E1FE0322002505EBE5
:1018D00042132449013540F20124202D41F82340D0
:1018E000F5D10132052AF1D1102303F1400501336E
:1018F00040F20120202B41F82500F6D11A4B03F1CC
:10190000E8050833AB420BD013F8084C13F8070C6A
:1019100053F8041C00EB4412124C44F82210F0E778
:101920000F4C4FF007310125C4F8DC110B20C4F82F
:101930000051FFF7ABFE0022134629460B48FEF785
:10194000CDFC0B48FFF744F80A48FFF755F80A4862
:10195000FFF752F8D4F8A0212A43C4F8A02138BDDB
:1019600000C00F4000C00240B0BA000000C0092013
:10197000FCB9000090BA000070BA0000064B19686C
:101980000868B0E8F00F80F309884FF0000080F39A
:1019900011884EF00D0E70474C090010EFF30980CE
:1019A0000C4B1A6820E9F00F10602DE908404FF049
:1019B000280080F3118800F00FF84FF0000080F34A
:1019C0001188BDE8084019680868B0E8F00F80F396
:1019D000098870474C090010104B186810B101219C
:1019E0000F4819E00F4A104910681423584308584B
:1019F00018B91368591E1160F4E7126803FB02134B
:101A000003F10802596848689042586004BF406872
:101A100058605B680548D96801607047500900103C
:101A20005809001054090010AC0800104C090010AF
:101A300038B5B8B90C4C2578012D11D100F0CEF88D
:101A40000A490B4B0B4819602570FFF765FB18B965
:101A5000094802F02DF803E0207800F0FE01217023
:101A6000207838BD012038BD000000100C1E001089
:101A70005C09001000000C4090BB000038B5002845
:101A800058D12E4B1878C00752D40E2952D8DFE80F
:101A900001F0081B20265151515151512A303A5121
:101AA0004500274A274C156824682648016804F138
:101AB0003203994206D224482946FFF7A2FAC30509
:101AC0003AD4F2E7012038BD1D4B1968D1F8440221
:101AD00007E01B4B1968D1F83C0210802CE04FF452
:101AE0008050106028E016480368D3F83012117057
:101AF00022E0134B1868016A1160436A5360816ADF
:101B00009160C06A08E00E4B186801691160436972
:101B1000536081699160C069D0600DE008490A484E
:101B20000968FFF777FA0028CCBF0020012038BDF4
:101B3000032038BD042038BD002038BD000000104F
:101B40005C090010A00B001000000C4037B50D46DA
:101B5000144688B983B10A4A1078C2070ED400939C
:101B6000084B094819682A462346FFF75FFCD0F165
:101B7000010038BF002002E0042000E003203EBD49
:101B8000000000105C09001000000C4010B9024B6E
:101B900018787047012070470000001037B50D46D7
:101BA000144688B983B10A4A1078C1070ED400934D
:101BB000084B094819682A462346FFF7CDFCD0F1A7
:101BC000010038BF002002E0042000E003203EBDF9
:101BD000000000105C09001000000C4030B50F4DF3
:101BE0002C6889B0B4B90E48FFF726F81F2040F2E0
:101BF000DD71142300940194039001240791084897
:101C0000029369460694FEF788FC05482146FEF7D4
:101C100061FC2C60012009B030BD00BF60090010DC
:101C20000040024010B588B0044669460948FEF7F6
:101C300060FC009B01980299E371A07161710698A4
:101C4000049A039B0799A0702271E3702180012000
:101C500008B010BD0040024007B56846FFF7E2FF3C
:101C60009DF802309DF80320580540EA02419DF896
:101C700005209DF8060041EAC22343EA40119DF881
:101C80000720BDF8000041EA5203A0F2BC7143EA0C
:101C900041600EBD10B50023934203D0CC5CC45408
:101CA0000133F9E710BD036930B501F10902002BDA
:101CB00037D04369002410461D5D202D024608D010
:101CC000052D08BFE52500F8015B0134082C02460C
:101CD000F2D11C7A202C0DD02E2200F8012B0824E2
:101CE0001D5D202D024605D000F8015B01340B2C50
:101CF0000246F5D1D87A0872987FDC7F000440EA6A
:101D000004601C7F20435C7F40EA042008605C7E06
:101D1000187E40EA04208880D87D9B7D43EA00201D
:101D2000C8800021117030BD08B5036873B11A78FE
:101D300062B1D9888088814208D15878FFF726FFA0
:101D400010F0010F0CBF0020032008BD092008BDC2
:101D50002DE9F041C56A8D4204460E4602D10020AD
:101D6000BDE8F081037913B9002EF8D01FE000F12F
:101D70003008414640782A460123FFF70FFF10B193
:101D80000120BDE8F0812071E269206A11188D42BE
:101D9000EAD2E778012FE7D9E3696078ED18414688
:101DA0002A460123013FFFF7F9FEFFB2F2E7607810
:101DB00004F1300132460123FFF7C8FE0028DFD1CD
:101DC000E662BDE8F08138B500210446FFF7C0FFA8
:101DD0000346002B50D12278032A45D16079002890
:101DE00042D0E36204F130010025CD540133B3F554
:101DF000007FF9D1522384F8303084F831306123E8
:101E0000AA2084F8323084F81732236984F82F022C
:101E10007220552284F8140284F81502180C84F8F4
:101E20002E2284F81A024122E06884F8332084F8D4
:101E3000162284F81832C3F307221B0E84F81922E5
:101E400084F81B32C0F30722030C84F81C02000E36
:101E500084F81D2284F81E3284F81F0262696078BB
:101E60000123FFF79BFE6571002160780A46FFF7AA
:101E700005FE003018BF012038BDCA7E8B7E0328C6
:101E800043EA022305D1487D097D41EA002243EA65
:101E9000024318467047000010B504460A464078D1
:101EA00004F130010123FFF751FE80BB94F82F228B
:101EB00094F82E3243EA0221174B0AB29A4228D1F3
:101EC00094F8682094F86910130494F8662043EAA3
:101ED000016194F86730114341EA03210F4B21F06F
:101EE0007F429A4216D094F8840094F88510020438
:101EF00094F8820042EA016194F88320014341EAA8
:101F0000022121F07F40C01A18BF012010BD03201C
:101F100010BD022010BD00BF55AAFFFF464154006E
:101F20002DE9F041154602681378303B092B05D89E
:101F300054783A2C02D10232026000E000230020E3
:101F40000860002B40F05981B54C2468002C00F04B
:101F500057810C60217881B16078FFF717FEC107C7
:101F60000BD4002D00F04F8100F00401C8B200280E
:101F700014BF0A200020BDE8F081002020706070AE
:101F8000FFF756FDC20700F141812DB100F00403B7
:101F9000DAB2002A40F03D8100212046FFF77CFFA5
:101FA000012818D194F8F20110B90D20BDE8F08194
:101FB00094F8F86194F8F91194F8F601330443EABF
:101FC000016294F8F711024342EA012620463146A5
:101FD000FFF762FF00E00026032800F01D810028C3
:101FE000E3D194F83C2094F83B3043EA0220B0F56A
:101FF000007FDAD194F8475094F8461051EA052151
:102000000DD194F8563094F8572094F854101804D1
:1020100040EA026594F855200D4345EA022194F800
:102020004050E1616B1E012BE570BED894F83D2055
:10203000A270002AB9D0501E1042B6D194F84200C6
:1020400094F8413043EA002398B21B072081ACD1B9
:1020500094F8447094F8433053EA07230DD194F870
:10206000523094F853701B0443EA076394F850709D
:102070003B4394F8517043EA072394F83F8094F867
:102080003E7057EA082890D005FB01FC08EB1017BA
:102090006744BB4289D3DB1BB3FBF2F3002B84D034
:1020A00040F6F575AB4206D94FF6F57293428CBFF8
:1020B0000325022500E001250233BF1906EB0802C3
:1020C000032DA361A762226213D100287FF46DAFB4
:1020D00094F85E2094F85F00120442EA006294F8DB
:1020E0005C00024394F85D0042EA002262629800BC
:1020F0000FE000283FF459AF0CEB0200022D6062A4
:1021000001D1580005E003225A4303F0010303EB19
:10211000520000F2FF13B1EB532FFFF446AF002043
:102120004FF0FF31032D2161E0605AD194F8612016
:1021300094F86030607143EA02217218626160783D
:1021400004F130010123FFF701FD002849D194F883
:102150002F0294F82E2242EA0023324819B281421B
:102160003FD194F8322094F83330110441EA0360EF
:1021700094F8303094F83120184340EA02212A487C
:1021800081422ED194F8162294F81732110441EAB4
:10219000036094F8143294F81522184340EA02219F
:1021A000224881421DD194F81E3294F81F2219044E
:1021B00041EA026094F81C2294F81D32104394F80E
:1021C0001A2240EA032194F81B02E160130443EA57
:1021D000006194F8180294F81922014341EA02239D
:1021E0002361134925700888421C93B200200B809C
:1021F000E380E0622071BDE8F0810B20BDE8F08152
:102200000C20BDE8F0812846BDE8F0810320BDE840
:10221000F0810A20BDE8F0810120BDE8F08100BF17
:102220006809001055AAFFFF525261417272416164
:1022300064090010836902399A1E914204D282789F
:10224000806A02FB01007047002070470129F8B541
:1022500004460D465CD98369994259D20178022916
:1022600028D0032937D001294FD1026A05EB550642
:1022700002EB5621FFF76CFD002846D1F005236ADA
:1022800004EBD0570136204603EB562197F8307007
:10229000FFF75EFD002838D1F60504EBD654EB07B6
:1022A00094F8301047EA012201D51009F8BD100555
:1022B000000DF8BD026A02EB1521FFF749FD20BBB6
:1022C0002D06ED0D6319641993F8301094F8310060
:1022D00041EA0020F8BD036A03EBD511FFF738FD92
:1022E00098B96D06ED0D05F1300163186419D878C1
:1022F0009A785B78010641EA024294F8301042EA8B
:102300000320084320F07040F8BD4FF0FF30F8BDC7
:102310000120F8BD70B504460D46E18081680129B1
:1023200001D1022070BD03689A699142F9D271B956
:102330001878032801D1596A49B919890020A9429E
:10234000E060EED95B6A03EB1512226119E09E781A
:102350003601B5420ED32068FFF778FF421C0146D4
:1023600018D00128DDD923689A699042D9D2AD1BD3
:10237000ADB2EEE7E1602068FFF75CFF00EB1511FE
:10238000216105F00F0520686D013035411961614B
:10239000002070BD012070BD0129F8B504460D462E
:1023A000164670D9836999426DD2017802293AD0D4
:1023B000032949D0012962D1026A05EB550702EBD6
:1023C0005721FFF7C5FC00285AD1F805C20D15F0BA
:1023D0000105F3B207D0A11891F8300000F00F0109
:1023E00041EA0313DBB2A218216A82F830300120DF
:1023F0000137207101EB57212046FFF7A9FC002887
:102400003ED1FF05FA0D15B1C6F3071607E0A31874
:10241000C6F3032693F8301021F00F073E43A718A8
:1024200087F830602CE0036A03EB1521FFF790FC7E
:1024300030BB2D06EA0DA1180D4681F83060C6F3B9
:10244000072681F831601BE0026A02EBD511FFF725
:102450007FFCA8B96D06E90D01F13003E31865189A
:10246000DA78120602F070410E4385F83060C6F348
:102470000722310C360E5A709970DE7000E002208F
:1024800001232371F8BD0220F8BDF8B505460F46BB
:1024900031B9C6686EB18069864228BF012609E05D
:1024A000FFF7D4FE01283BD9AB69984239D33E46A9
:1024B00000E001263446A96901348C4204D3012E80
:1024C00001D80020F8BD022428462146FFF7BEFEB1
:1024D00048B1431C02D14FF0FF30F8BD01281FD096
:1024E000B442E8D1EDE7284621466FF07042FFF78D
:1024F00053FF98B947B92A69EC60511C0CD0531EA0
:1025000001202B61687107E0284639462246FFF713
:1025100043FF0028EFD001E02046F8BD0128DAD0C3
:102520000120F8BD2DE9F843C6880446701C86B228
:102530000F4616B90420BDE8F8832369002BF9D0B3
:1025400016F00F085CD1591C2161E168206819B9A7
:102550000289B242EED953E08278531E13EA161272
:102560004ED1FFF773FE0128054602D80220BDE8D0
:10257000F883411C02D10120BDE8F88320688169FD
:102580008D4237D3002FD5D0E168FFF77EFF054697
:10259000002841D00128E9D0421CECD0206800215D
:1025A000FFF7D6FB0028E6D1226830320027175407
:1025B0000130B0F5007FF9D1D4F8009029464846A3
:1025C000FFF738FEC9F82C0020688378BB420ED98B
:1025D0000122027120680021FFF7BAFB0028CAD14E
:1025E0002068C36A0137591CC162FFB2ECE7C16AB7
:1025F000CF1BC762E56020682946FFF71BFE2061FC
:102600002068E6804FEA481808F1300800EB08031C
:1026100063610020BDE8F8830720BDE8F88300006F
:102620002DE9F0410B782F2B04460E4601D05C2B90
:1026300000D101360025A56030781F2853D82046E8
:102640002946FFF767FE6561BDE8F0815C294AD045
:10265000A56900262022AA5501360B2EFAD10022A8
:1026600094460821104617F80C30202B0CF1010677
:102670003FD8BE19202B94BF04230023002A00F06A
:10268000A3802A78E52A01D105222A70082901D1E0
:102690008100C8B200F0030200F00C01012A08BF5B
:1026A00043F01003042908BF43F00803EB722046EF
:1026B0000021FFF72FFE002859D0A169CB7A00280E
:1026C00074D103F00402D1B2002940F09B8061690B
:1026D000C87A00F01003DAB2002A72D02568287890
:1026E000FFF7CBFBA0603178374601362F29ADD1FB
:1026F000F9E72F2BBDD05C2BBBD02E2B7BD08A4291
:1027000062D203F17F0813F0800F5FFA88F818BFD8
:1027100040F00300B8F11E0F06D903F120085FFA5C
:1027200088F8B8F11C0F18D817F806800CF10206CB
:10273000A8F1400CBCF13E0F04D988F0800CBCF12C
:102740007C0F41D801F1FF3C62453DD2AB54AB1840
:10275000023283F80180B44685E7DFF8AC8018F8D0
:1027600001CFBCF1000F32D09C45F8D12CE020689D
:102770002169FFF7EDFA00289FD1626913789BB1B8
:10278000D17A01F00803D9B249B9A7690346D55CEB
:10279000F95C01338D4202D10B2BF8D18DE7204635
:1027A0000021FFF7BFFE86E7042086E7042829D131
:1027B00003F00401C8B2002814BF04200520BDE8BE
:1027C000F0810520BDE8F0810620BDE8F081A3F18D
:1027D000410CBCF1190F02D840F0020008E0A3F14F
:1027E000610CBCF1190F03D8203B40F00100DBB2B3
:1027F000AB540132AFE70829E6D180000A46C0B2E7
:102800000B21A8E7BDE8F081A8BB000038B5002186
:102810000446FFF77FFD054618BB20682169FFF7D6
:1028200097FA0546E8B963691878E52805D020B11C
:1028300020460121FFF776FEEDE720682169FFF7CA
:1028400087FA054668B96069294600224254013179
:102850002029FAD1A1690B22FFF71CFA2368012075
:102860001871284638BD10B5042304462169B9B152
:102870002068FFF76DFAD0B962691378B3B1E52B20
:1028800006D02E2B04D0D17A01F00802D3B283B146
:1028900020460021FFF746FE03460028E6D006E06A
:1028A000184633B100202061184610BD04200346AD
:1028B000F8E710BD012970B504460D4622D9836999
:1028C00099421FD2A069854205D220462946FFF7CA
:1028D000BDFC064608B9002070BD012812D0411C7D
:1028E0000ED0204629460022FFF756FD58B921692F
:1028F0004A1C03D04A1C0125226165713546E1E777
:10290000012070BD022070BD48B9064A136803B1AA
:10291000187009B1002008701160002070470B206A
:10292000704700BF680900102DE9F0478CB01646CB
:1029300001910546002800F096800023036005A958
:1029400001A802F01E02FFF7EBFA8046002840F0D3
:10295000938002A80B90019905A8FFF761FE0A9CDD
:1029600018B9002C0CBF0620002016F01C0F06F032
:102970001F0748D048B1042802D105A8FFF746FF39
:1029800047F008070A9C48B175E0E07A10F0110F93
:1029900070D106F00401CEB2002E67D107F0080214
:1029A000D3B2002B3DD0FFF757F9C0F30726A07331
:1029B000E673010C0026000EDDF814902174E67217
:1029C00026776677A677E677607499F80000214647
:1029D000FFF753FA0122A676E6762675667589F822
:1029E00004200646E8B148463146D9F82CA0FFF746
:1029F00061FF00283FD10598013EC6605146FFF7B0
:102A0000A7F970B137E0002835D1E17A01F0100262
:102A1000D3B2002B2CD106F00206F6B20EB1C807D5
:102A200028D407F00803D9B209B147F02007059E62
:102A3000F06A2C62E861AF7130782146FFF71DFA29
:102A40002861A37FE27F190441EA0260227F637F4D
:102A50002E601043F28840EA03210020E960A8605C
:102A6000A861AA8008E04FF0090805E0082002E00C
:102A7000042000E00720804640460CB0BDE8F08707
:102A80002DE9F74F9A460023CAF8003004468846DD
:102A90001746FFF749F90546002840F0A080A179C4
:102AA000080600F19980C90740F19880E068A268A3
:102AB000861AB74238BF3E46002E00F09080A168CB
:102AC000CB0570D1206883785A1E02EA512313F097
:102AD000FF030CD109B9206904E061690193FFF794
:102AE000B5FB019B01280BD9421C55D06061D4F87D
:102AF00000B0616901935846FFF79CFB019B20B928
:102B0000A07960F07F03A37166E05FEA562900EBCD
:102B1000030724D09BF8022009EB0300904288BFF2
:102B2000C3EB020941469BF801003A465FFA89F37C
:102B3000FFF70CF8A17980BB01F04001CBB25BB18B
:102B4000A269D71B4F4507D208EB472004F12401A7
:102B50004FF40072FFF79EF84FEA492731E0A2696F
:102B6000BA421FD0A07900F04001CBB25BB104F1B2
:102B700024019BF801000123FFF710F8A17960B947
:102B800021F04002A27121463A4651F8240B01235C
:102B90004078FEF7DBFF28B1A17961F07F05A571D0
:102BA00001251CE0A761A768F905CB0DC3F50077E7
:102BB000BE4238BF3746E118404624313A46FFF757
:102BC00069F8A068DAF80030C119DA19A160B844D0
:102BD000CAF80020F61B6FE7022500E0072528460B
:102BE000BDE8FE8F2DE9F74F99460023C9F8003064
:102BF000044688461746FFF797F80546002840F038
:102C0000B780A079010657D400F00201CAB2002AA9
:102C100000F0AD80E368DF4228BF002730E05FEAC4
:102C2000572B00EB0A0674D098780BEB0A0181420F
:102C300088BFCAEB000B4146587832465FFA8BF3E7
:102C4000FEF7ACFF002873D1A3699E1B5E450BD233
:102C500004F124004FF4007208EB4621FFF71AF844
:102C6000A27922F04000A0714FEA4B26A168D9F862
:102C700000208B199019A360B044C9F80000BF1B55
:102C80000FB3A168CA055AD1206890F802A00AF1D2
:102C9000FF3202EA512313F0FF0A1DD171B92169F5
:102CA00021B9FFF7F2FB0146206161B10129A37947
:102CB0000FD163F07F01A171022559E06169FFF72F
:102CC000E4FB0146F1E7A068E26890424AD9E0607F
:102CD00048E04A1C2DD06161A07900F04001CAB2E1
:102CE00062B12146A26951F8243B58780123FEF7CE
:102CF00055FFA379E8B923F04000A071226861690B
:102D000001921046FFF796FA019B002887D1A3791C
:102D1000CFE7A169B14211D0A068E26890420DD21C
:102D2000587804F1240132460123FEF70FFF28B141
:102D3000A37963F07F05A571012519E0A661A66856
:102D4000F305D90DC1F500766018B74238BF3E468D
:102D5000243032464146FEF79DFFA07940F0400204
:102D6000A27183E7A37943F02001A17100E0072558
:102D70002846BDE8FE8F70B50446FEF7D5FF002853
:102D80004ED1A37903F02002D1B2002948D003F03C
:102D90004000C3B26BB12146012351F8242B507877
:102DA000A269FEF7FBFE002839D1A67926F0400182
:102DB000A1712068E169FEF7CBFF0646002E2FD1F6
:102DC000256AE87A40F02003EB72E2682A77A1894D
:102DD000080A6877E389AB77E27BEA7721690B0C15
:102DE0001A0AC1F30720A9762B756A75E876FEF7F3
:102DF00033FFA875030CC0F30721000EE975687650
:102E00002B76AE74EE74A2792368012022F02001A3
:102E1000A17118712068BDE87040FEF7D4BF012091
:102E200070BD10B50446FFF7A6FF00B9206010BDC5
:102E300030B587B00446019130B301A82146002285
:102E4000FFF76EF82568E0B903ABA361204601994E
:102E5000FFF7E6FB80B9616941B1C87A00F0100262
:102E6000D3B26BB12878FFF708F8A060E988204654
:102E7000A1800021FFF74EFA042801D028B100E01C
:102E800005200022226000E0092007B030BD7FB598
:102E900004460E46FEF748FF0546E8B926B9204627
:102EA0002946FFF737FA16E001ABA3612046FFF78A
:102EB000DAFC042801D1256100E060B920463146E2
:102EC000FEF7F1FE00212046FFF72CFB042802D17B
:102ED0000020206100E00546284604B070BD0000D7
:102EE0000C490D4A0D4B9B1A40F30580043BC85812
:102EF000D0503FF7FBAF0A4A0A4B9B1A40F30580BC
:102F00000020043BD0503FF7FCAF074880470748FC
:102F100000470000C8BE000000000010A408001018
:102F2000A408001068200010411800007D30000047
:102F3000FEE7FEE7FEE7FEE7FEE7FEE7FEE7FEE769
:102F4000FEE7FEE7FEE7FEE7FEE7FEE7FEE7FEE759
:102F5000FEE7FEE7FEE7FEE7FEE7FEE7FEE7FEE749
:102F6000FEE7FEE7FEE7FEE7FEE7FEE7FEE7FEE739
:102F7000FEE7FEE7FEE7FEE7FEE7FEE7FEE7FEE729
:102F8000FEE7FEE7FEE7FEE7FEE7FEE7FEE7FEE719
:102F9000FEE7FEE7FEE700BF034B10B51C681968AB
:102FA00002199142FBD310BDA00B0010054B18680D
:102FB0000028FBD004490A78D2F1010038BF002074
:102FC000704700BF9C0B0010C81D0010064B07493E
:102FD0004FF08062C3F8802108600548002101603D
:102FE000044801701A60704700E100E0CC1D001039
:102FF0009C0B0010C81D00100146014800F058BD90
:10300000B8BB0000024B1A68501C1860704700BF24
:10301000A00B001008B5084B084819680978FDF79F
:103020004DFD074A074B1070074A01204FF08061A1
:103030001860C2F8801008BDCC1D001000000820E8
:10304000C81D00109C0B001000E100E013B5002427
:1030500000940748214622462346FDF777FFA04209
:1030600004DA044B044801221C7002601CBD00BF3E
:1030700000000C40C81D00109C0B001010B5584CEF
:10308000A0B0FEF7AFFB4FF416722046002100F00F
:1030900079FC544B54495548C4F84C32C4F8541286
:1030A000C4F85002FEF7B8FB5148FDF7E1FD514A64
:1030B0004FF47A731468504AB4FBF3F04F4B411E3F
:1030C000F8245960072082F8234000249C6018608F
:1030D0004B4800F0EDFC4B4B4FF00051196020467F
:1030E0004949FFF711FC494800F0E2FC48484949CA
:1030F0000122FFF719FCE8B9454847494FF48052CF
:1031000002ABFFF7BDFC044658B9029A5AB10298C7
:103110008442F1D240494148095D00F0C9FC0134C4
:10312000F5E7FFF769FF3E4800F0C2FC3848FFF7BB
:1031300078FE08B1FFF760FF3A4800F0B9FC344868
:1031400039490A22FFF7F0FBD8B9384800F0B0FC43
:103150002F4837490E2201ABFFF744FD10B1FFF7AE
:103160004BFF07E010A83349019A00F0B7FC10A804
:1031700000F09EFC2A4800F09BFC2548FFF751FE1A
:1031800008B1FFF739FF2C4800F092FC09A82B4941
:10319000FFF74EFEF0B92A4800F08AFC09A803A9FF
:1031A000FFF775FEB0B99DF81530ABB19DF814204E
:1031B0000DF1150302F01000C1B210A821B1214990
:1031C0001A4600F08BFC03E01F49039A00F086FCCE
:1031D00010A8E1E7FFF710FF1C4800F069FCFEE7CC
:1031E0000C1E0010CD2F0000992F0000AD2F000005
:1031F00000000C40081E001000ED00E010E000E0B0
:10320000CDBB000000E100E06C090010F8BB00003D
:10321000A41B001021BC0000A40B00102DBC00005A
:1032200030BC000044BC000067BC000071BC000062
:1032300097BC0000A6BC0000BABC0000A5BC000002
:10324000D3BC0000ECBC0000FBBC000009BD0000CA
:103250004BB942B9002908BF002802D04FF0FF3116
:10326000084600F03BB882B0EC462DE9005000F073
:103270001DF8DDF804E002B00CBC70472DE9F04108
:103280001646984604460D4600F02AF806FB01FC57
:10329000A6FB002300FB08C7FB18A21A65EB03037B
:1032A000069CC4E90023BDE8F08100BF2DE9F04190
:1032B000904606460F461D4600F070F900FB05F3E8
:1032C000A0FB084508FB0138069B4544341B67EB0F
:1032D0000505C3E90045BDE8F08100BF704700BFA8
:1032E00000292DE9F00F1D46C0F29D800024002D1D
:1032F000C0F2948080460F4694461E46E3BB8A4245
:1033000055D9B2FA82F747B1C7F1200520FA05F680
:1033100001FA07F1BA40B8403143170CB1FBF7F698
:103320001FFA82FC07FB16110CFB06F5030C43EA9F
:1033300001439D4208D9711E9B1880F013819D4264
:1033400040F21081023E9B18591BB1FBF7F507FBB9
:1033500015130CFB05FC80B240EA03418C4507D9EC
:103360006B1E8A1880F00081944540F2FD80023D7A
:1033700045EA0641002503E08B420CD90025294689
:103380000A462B4614B1524263EB430310461946DA
:10339000BDE8F00F7047B3FA83F5002D40F0878049
:1033A0008B4201D38242EAD800250121E8E712B915
:1033B0000126B6FBF2F2B2FA82F6002E39D18E1A4D
:1033C000130C1FFA82FC0125B6FBF3F703FB176110
:1033D0000CFB07F84FEA104949EA0146B04506D907
:1033E000791EB61802D2B04500F2D3800F46C8EB62
:1033F0000606B6FBF3F103FB11630CFB01FC80B284
:1034000040EA03439C4506D94E1E9A1802D29445C1
:1034100000F2C280314641EA0741B1E7E44352423B
:1034200063EB430366E7404261EB41014FF0FF3439
:103430005DE7B240C6F1200921FA09F720FA09F93F
:1034400001FA06F1130CB7FBF3F81FFA82FC03FB39
:1034500018770CFB08F549EA01094FEA194141EADE
:103460000747B040BD420AD9BF1808F1FF3680F0C7
:103470008E80BD4240F28B80A8F10208BF18791BF4
:10348000B1FBF3F503FB15170CFB05F61FFA89F9E1
:1034900049EA07418E4206D96F1E891871D28E42C1
:1034A0006FD9023D89188E1B45EA08458CE7C5F1A6
:1034B000200122FA01F306FA05F627FA01F207FACB
:1034C00005F720FA01F11E434FEA1649B2FBF9F85D
:1034D0001FFA86FA09FB18220AFB08FB0F433B0C74
:1034E00043EA024293450CFA05FC08D9921908F107
:1034F000FF314AD2934548D9A8F102089219CBEB83
:103500000203B3FBF9F109FB11320AFB01FABFB266
:1035100047EA02439A4506D94A1E9B1933D29A4577
:1035200031D902399B1941EA08410F0C1FFA8CF876
:1035300008FB07F68AB24FEA1C4C08FB02F80CFBAA
:1035400002620CFB07FC02EB1842964288BF0CF5A6
:10355000803CCAEB03030CEB124C63450ED305D041
:1035600000250DE70E46EFE61D4601E700FA05F0DF
:103570001FFA88F808EB0245A842F1D2013900256C
:10358000FEE63D468FE71146CDE78846B7E7B046F1
:1035900075E7023FB6182AE702393CE72DE9F00744
:1035A000144605460E46002B3DD18A4249D9B2FA4F
:1035B00082F747B1C7F1200120FA01F206FA07F6B7
:1035C000BC40BD401643220CB6FBF2F0A1B202FB98
:1035D000106601FB00F32F0C47EA0646B34208D9F8
:1035E000471E361980F0FA80B34240F2F780023865
:1035F0003619F61AB6FBF2F302FB136201FB03F174
:10360000ADB245EA0242914207D95E1E121980F01E
:10361000E780914240F2E480023B43EA004000210F
:10362000BDE8F00770478B4243D8B3FA83F4002C0F
:1036300042D18B4202D3824200F2E180002101207C
:10364000EEE712B90127B7FBF2F4B4FA84F2002ACC
:1036500040F089800A1B230CA7B20121B2FBF3F6CC
:1036600003FB162207FB06F04FEA154C4CEA024218
:10367000904207D9121906F1FF3C02D2904200F2A3
:10368000D0806646121AB2FBF3F003FB102307FB4F
:1036900000F7ADB245EA03439F4207D9421E1B190A
:1036A00080F0A0809F4240F29D80023840EA0640B0
:1036B000B6E700210846B3E7C4F1200622FA06F770
:1036C00003FA04F321FA06F501FA04F120FA06F6EA
:1036D0003B434FEA134CB5FBFCF71FFA83F80CFB96
:1036E000175508FB07F946EA010A4FEA1A4141EA71
:1036F0000545A94502FA04F204D97E1EED18C0F072
:1037000081803746C9EB0501B1FBFCF60CFB1615B1
:1037100008FB06F81FFA8AFA4AEA0541884503D9E8
:10372000751EC91874D32E4646EA0746370C1FFA91
:1037300082FC0CFB07F5120CB3B20CFB03FC02FB82
:10374000035302FB07F203EB1C439D4288BF02F5C3
:103750008032C8EB010102EB134291424CD343D0BB
:10376000304600215CE79440C2F1200521FA05F6BD
:1037700020FA05F501FA02F1230CB6FBF3FCA7B21F
:1037800003FB1C6607FB0CF829430D0C45EA0646B3
:10379000B04500FA02F508D936190CF1FF303ED2D7
:1037A000B0453CD9ACF1020C3619C8EB0602B2FBAD
:1037B000F3F003FB102607FB00F889B241EA06424A
:1037C000904506D9461E121927D2904525D90238B0
:1037D0001219C8EB020240EA0C413FE7384608E7FD
:1037E00033461AE7104661E700FA04F01FFA8CFC32
:1037F0000CEB03439842B3D2701E002110E7214620
:1038000020460DE7A9457FF67CAF023FED1879E72A
:10381000884588D9023EC91886E73046D9E78446EC
:10382000C3E7023E12192DE70F2A2DE9F00340F2FB
:10383000A18041EA00039B0740F09E800C68A2F142
:10384000100504604B68AC4643608C68BCF10F0FF8
:103850008460CC68C5F30015C46000F1100301F169
:1038600010042BD975B12568ACF1100C1D6065688A
:103870005D60A5689D60E5681034DD601033BCF1C3
:103880000F0F1BD9276804F110061F60676803F14A
:1038900010055F60A768ACF1200C9F60E768DF60EF
:1038A00024691C61776806F110046F60B7682033E3
:1038B000AF60F668BCF10F0FEE60E3D8A2F110081C
:1038C00028F00F0302F00F0403F1100C032C00EB9F
:1038D0000C0301EB0C0851D9211F4FEA9109444612
:1038E00008EB890C54F8046BC8EB0C010CF1040CC8
:1038F0001D46644545F8046BC1F3800112D029B11F
:1039000054F8041B644545F8041B0BD0274657F8B0
:10391000041B2E4646F8041B64686C603C1D351D74
:103920006445F3D109F1010C4FEA8C0902F003025E
:1039300008EB09014B44D2B10D789A18DC4303F827
:10394000015B1419934204F0010410D02CB111F85A
:10395000014F03F8014B934209D04D781C4604F8FF
:10396000015B8D7802315D70631C9342F5D1BDE837
:10397000F00370470346DEE70346DDE74146224693
:10398000D9E700BFF0B48407034600F08D80541ED1
:10399000002A00F08780E507CEB211D41A4602F85B
:1039A000016B13461546920710D0621E002C79D089
:1039B00003F8016B14469A071D4607D0013CEDE75A
:1039C000034603F8016B9A071D46F7D1032C52D921
:1039D000CEB246EA06270F2C47EA07432DD9A4F1B9
:1039E000100217460F2FC2F300162B606B60AB60FE
:1039F000EB6005F1100216D93EB1103F1360536021
:103A00009360D36010320F2F0DD9203F02F11006C2
:103A1000136053609360D360136153619361D3610A
:103A200020320F2FF1D8A4F1100222F00F0204F07F
:103A30000F041032032C15441DD9271F3E462A4679
:103A4000032E42F8043BC7F380070DD927B1043E8B
:103A5000032E42F8043B07D9174647F8043B083EBB
:103A600053603A1D032EF7D8231F23F00302131DC2
:103A700004F00304ED18ACB1C9B2EA432C1905F8FF
:103A8000011BA318A54203F001020BD01AB105F8DF
:103A9000011BA54206D02B4603F8011B69705D1C73
:103AA000A542F8D1F0BC7047054614468EE700BF2A
:103AB0000FB410B540F2304382B004ACC1F2000341
:103AC00054F8042B186823468168019401F09CFD8A
:103AD00002B0BDE8104004B0704700BF0EB4F0B5AE
:103AE0009CB021AC54F8042B40F230436FF00045F9
:103AF000C1F20003064602A90495079518684FF421
:103B0000027723464FF6FF75ADF8147002960696BD
:103B1000ADF81650019400F009F8029900220A70DD
:103B20001CB0BDE8F04003B0704700BF2DE9F04F76
:103B3000C3B08B46109314460C9005F025F900682D
:103B4000002600271490CDE9166706F069FABBF845
:103B50000C30189003F0800001B221B1DBF8102086
:103B6000002A01F0CA82002732AEDFF820951197B3
:103B70000896259627972697A24619971A970F9782
:103B80009AF80040002C00F0A281252C00F09F81C3
:103B90000AF1010301E0252D04D01D781C460133F4
:103BA000002DF8D1CAEB04057DB1269A2798531C45
:103BB0004119072BC6F800A075602791269300F3E2
:103BC000698108360F9F7F190F972078002800F031
:103BD0006981002104F1010A94F801804FF0FF345B
:103BE0000D918DF8731009910A9420202B210AF170
:103BF000010AA8F12002582A00F25D82DFE812F0E3
:103C000074025B025B027E025B025B025B025B0290
:103C10005B025B02B901C5015B024301CA015B02A1
:103C200085028C028C028C028C028C028C028C022B
:103C30008C028C025B025B025B025B025B025B023A
:103C40005B025B025B025B02870088015B0288010A
:103C50005B025B025B025B02F8015B025B026D00D0
:103C60005B025B025B025B025B0259005B025B0270
:103C7000FF015B025B025B025B025B025B025B02B9
:103C80005B025B025B02E6018B0088018801880110
:103C9000AA028B005B025B02D7025B029D027100ED
:103CA0001F0234025B02B1025B025D005B025B0239
:103CB0004802099D45F010020992099B990600F1FE
:103CC0000882099CE20641F19180109F3D683B1DEE
:103CD00010932C460123002516E1099A42F01001A9
:103CE0000991099B13F0200340F00481099C14F012
:103CF000100040F06187099D15F0400300F05C87DB
:103D0000109F03463A1D3C8800251092FCE0099D57
:103D100045F010030993099FBF0640F1DA80109C1B
:103D2000E01D20F00705D5E900230835109514465D
:103D30001D46002A73F10000C0F2358701230A9F57
:103D4000002F03DB099921F08000099054EA050057
:103D500040F0EF830A9A002A40F0EB83002B40F0FA
:103D60005886099BDA0741F1178042AF3021089845
:103D700007F8411DC21B0E920A990E980024884232
:103D8000B8BF08469DF873300B901291159413B18B
:103D90000B9B5A1C0B92099810F002010A9102D059
:103DA0000B9A941C0B94099B13F08400139040F021
:103DB00028820D9D0B996D1A002D40F32282102D43
:103DC00041F31482279A269B4BF674501024C0F2BC
:103DD000000086E811001119A7485A1CA5F1110E20
:103DE000072A1B9027912692CEF3001300F36C85CF
:103DF0000836103D102D40F3F8818BB101324BF69F
:103E000074531031C0F20003072A86E81800279186
:103E1000269200F368850836103D102D40F3E581A9
:103E200033462E463D460C9F13E0083301324BF6D5
:103E300074501031C0F20000103E072A83E81100D0
:103E40002791269200F3BF81103E0833102E40F3D5
:103E5000C98101324BF674501031C0F20000072ABC
:103E600083E8110027912692DFDD3846594625AABE
:103E700006F006F9E8B92799269A32ABD6E70D9CE9
:103E8000109267420D97099B43F0040209929AF839
:103E90000080ACE60C98594625AA06F0F1F840B926
:103EA00032AE8FE6279C24B10C98594625AA06F01D
:103EB000E7F8BBF80C100F9C01F040031AB2002A7F
:103EC00018BF4FF0FF34204643B0BDE8F08F544692
:103ED0007BE60999CD0600F15986099C640640F1FC
:103EE00055861098B0F90040021DE51710922B4638
:103EF00022461EE7109BDF1D27F0070202F1080192
:103F000010910023D2E9004500208DF8730016E7D8
:103F1000109DEF1D27F007010D684C6808311091C6
:103F200028462146CDE916012146284605F0E8FF3E
:103F300001282146284640F040870022002307F050
:103F4000ADFC002841F0F8819DF8733000274B4A02
:103F5000099912974A4F03200B90B8F1470FD8BF29
:103F6000174621F080040320002209940E90159238
:103F70000DE7109A109B17681A1D002F0D97FFF67A
:103F80007EAF9AF80080109231E68DF873109AF89F
:103F900000802CE6544614F8018BB8F12A0F01F08A
:103FA000F482A8F130030022092B01F23E8214F8BA
:103FB000018B02EB820703EB4702A8F13003092BC8
:103FC000A246F4D942EAE2740A9412E61099109CCF
:103FD00008680127221D00230B970E9710928DF879
:103FE000A0008DF8733028AF002312931593D2E60A
:103FF000099C44F0080309939AF80080F7E50999B1
:10400000204D8F06199548D5109FFA1D22F0070301
:1040100003F108041094D3E900450999C80740F159
:10402000448454EA050000F04084302041F0020747
:104030008DF874008DF875800997022364E7109855
:104040000999109D071D104841F002034FF07808B0
:1040500030222C680993109700258DF874208DF874
:104060007580199002234FE7099B43F020020992C3
:104070009AF80080BBE500BF74BD000020BD0000C1
:1040800024BD000030BD000044BD000064BD000040
:1040900009999B4D8F061995B6D40998C50600F16C
:1040A0009285099F7C0640F18E85109A0025131D8C
:1040B00014881093B1E7B8F1000F3FF4F3AE01227A
:1040C00000240B928DF8A0808DF873400E9228AFDB
:1040D0008AE7109C0123E01D20F0070505F1080781
:1040E0001097D5E900450FE79DF87330002B40F09D
:1040F00095868DF873009AF8008078E5099C44F065
:10410000010709979AF8008071E5099F47F080033D
:1041100009939AF800806AE557460022A8F1300515
:1041200017F8018B02EB8203A8F13004092C05EB90
:104130004302BA46F2D90D925BE5099CA40640F110
:104140006186109F0F983B68C417043718605C6045
:10415000109715E5099A42F0400309939AF80080F8
:1041600045E5109B00248DF873401F681D1D002F2E
:1041700001F0C5800A9938460029C1F20280214623
:104180000A9A05F013F9002801F042810A99C01B30
:1041900088420E90129440F3A687129821EAE174A7
:1041A0000B949DF8733010950E911590EFE59AF8E9
:1041B00000805246B8F16C0F00F0DE86099F47F090
:1041C0001003099313E53846594625AA05F058FF10
:1041D00000287FF46EAE103E102E32AB2799269A3F
:1041E0003FF737AE2F4635461E464C191B9B511CD8
:1041F000072986E828002794269100F30F840836C3
:1042000000E0279C9DF8730068B1269B0134591C7F
:1042100001200DF173020729326070602794269106
:1042200000F3058308360A9B63B126990234481CC3
:1042300002231DAA0728326073602794269000F39A
:1042400001830836139D802D00F02E82129D0E9B57
:10425000ED1A002D75DD102D40F3F385269A1023FD
:1042600001322848A5F1110EE418072AC6F800907B
:1042700073600A9027942692CEF3001C00F3AC8260
:104280000836103D102D51DDBCF1000F0DD001326C
:104290001034072AC6F8009073602794269200F322
:1042A000AD820836103D102D40DD31463E460C9F54
:1042B0000EE0083101321034103D072AC1F8009099
:1042C0004B60269227941FDC103D0831102D2BDD0A
:1042D00001321034072AC1F800904B6027942692CF
:1042E000E7DD3846594625AA069305F0C9FE069B28
:1042F00000287FF4DEAD279C269A32A9DAE700BFBA
:1043000044BD000064BD00003846594625AA069306
:1043100005F0B6FE069B00287FF4CBAD103D102DB6
:1043200032A9279C269AD3DC37460E46501C0A9B9E
:104330006419072886E828002794269000F36C82E9
:104340000836099BDB0500F11E8126980E9A37601E
:10435000411C0E9FA418072977602794269100F32B
:10436000A8800836099F7B0740F1B1800D9D0B9B0B
:10437000ED1A002D40F3AB80102D40F3CC8726982A
:104380001027431CB2494BF67450A5F1110CE419E7
:10439000C0F20000072B86E881000991279426933C
:1043A000CCF3001800F3BB830836103D102D40F30A
:1043B000AD80B8F1000F11D001334BF674501034BA
:1043C000C0F20000072B86E881002794269300F3B3
:1043D000D1830836103D102D40F39880DDF83080F1
:1043E00012E0083601334BF674501034C0F200006E
:1043F000103D072B86E881002693279477DC103D3B
:104400000836102D40F3828001334BF6745210347D
:10441000C0F20002072B86E8840027942693E0DD93
:104420004046594625AA05F02BFE00287FF441ADF1
:10443000279C269B32AED5E71199269D0134013584
:10444000012940F379840123072D37607360279495
:10445000269500F38784083618990135149A641854
:10446000072D326071602794269500F38884083602
:10447000DDE916010022002307F006FA002840F0CB
:10448000D982119801370138241801353760072D7A
:1044900070602794269500F3898108361A9F0135AC
:1044A000E41921AB072D86E88800279426957FF72D
:1044B00058AF0C98594625AA05F0E2FD00287FF474
:1044C000F8AC099F32AE7B07279C3FF54FAF0F9E9C
:1044D0000B980D9FB842ACBF3618F6190F96002CFA
:1044E00040F070810026269632AEFFF749BB404669
:1044F000594625AA05F0C4FD00287FF4DAAC103D2A
:10450000102D32AE279C269B3FF77EAF5A1C099F89
:104510002C19072A3760756027942692D7DD0C98EE
:10452000594625AA05F0ACFD00287FF4C2AC279CB3
:10453000CDE7012B00F0AB81022B0DF1C70E00F08F
:104540008C810723E70804EA0300E90847EA457479
:1045500030300D46C2B254EA050177468EF800208D
:104560000EF1FF3EEED109983B46C10706D5302A31
:1045700000F096813024774603F8014C0899CA1B55
:104580000E92FFF7F9BBB8F1650F7FF755AFDDE984
:1045900016010022002307F077F9002800F0B2810D
:1045A00026982C49431C01340122072B316072608C
:1045B0002794269300F34A8408361E98119FB84228
:1045C00003DB099BDF077FF5CDAE269A149F189970
:1045D0003760501C189F641807287760279426902E
:1045E00000F375850836119D013D002D7FF7BAAEA9
:1045F000102D40F38682269A119B1027A3F1120EEC
:104600001548531CE419072BC6F8009077600A90F0
:1046100027942693CEF3001800F317860836103D32
:10462000102D40F37182B8F1000F0ED00133103419
:10463000072BC6F8009077602794269300F32B860B
:104640000836103D102D40F35F82DDF8308016E013
:1046500074BD000060BD000064BD000008364B1C46
:104660001034103D072BC6F80090776026932794EE
:1046700000F31E810836103D102D40F34582591C71
:1046800010340729C6F80090776027942691E5DD5D
:104690004046594625AA05F0F3FC00287FF409ACF2
:1046A000279C269932AEDAE70D980B99451A002D12
:1046B0007FF7CCAD102D40F38886269A1023013267
:1046C0008F48A5F11101E418072AC6F8009073601D
:1046D0000A9027942692C1F3001C00F31B8308362E
:1046E000103D102D4ADDBCF1000F0DD00132103409
:1046F000072AC6F8009073602794269200F324835B
:104700000836103D102D39DD21460C9C0EE0083690
:1047100001321031103D072AC6F8009073602692CE
:1047200027911ADC103D0836102D26DD013210319C
:10473000072AC6F80090736027912692E7DD20468D
:10474000594625AA069305F09BFC069B00287FF49A
:10475000B0AB2799269A32AEDAE72046594625AA09
:10476000069305F08DFC069B00287FF4A2AB103D5C
:10477000102D32AE2799269AD8DC0C46501C0A9B85
:104780006419072886E828002794269000F30983F7
:1047900008365BE55A480A9001350A9BE419072D53
:1047A00086E88800279426957FF777AE0C985946BF
:1047B00025AA05F065FC00287FF47BAB32AE279C70
:1047C000269D6BE60C98594625AA05F059FC002851
:1047D0003FF488AEFFF76DBB0C98594625AA0693A7
:1047E000CDF81CC005F04CFC069BDDF81CC0002871
:1047F0007FF45FAB32AE279C269A42E50C9859466F
:1048000025AA069305F03CFC069B00287FF451ABDB
:1048100032AE279C269A45E50C98594625AA05F004
:104820002FFC00287FF445AB279C32AE89E50C981D
:10483000594625AA05F024FC00287FF43AAB279CB2
:1048400032AEF0E40C98594625AA05F019FC002870
:104850007FF42FAB279C32AEF4E419990B960F2608
:1048600004EA060327092809CA1847EA05741678D6
:10487000054654EA050077468EF800600EF1FF3ECB
:10488000EDD108990B9ECB1B0E93FFF775BA002D47
:1048900008BF0A2C80F04F8142AF303407F8414DF9
:1048A000089CE21B0E92FFF767BA0223FFF72CBBAE
:1048B0004046594625AA05F0E3FB00287FF4F9AAF3
:1048C00032AE279C269BD6E60C98594625AA06931D
:1048D00005F0D6FB069B00287FF4EBAA32AE2799A1
:1048E000269AFFF786BA0C98594625AA05F0C8FB08
:1048F00000287FF4DEAA32AE2799269AFFF78CBAF9
:1049000064BD00001E9A002A40F3B282119D1599E1
:10491000119B8D42A8BF0D46FA18002D0A920ADDA0
:1049200026986419411C07293760756027942691E1
:1049300000F37F840836159B25EAE5755D1B002D85
:1049400040F35681102D40F36D8226984FF01008E9
:10495000431CA14AA5F111014444072BC6F800905D
:10496000C6F804800E9227942693C1F3001C00F32E
:104970004F840836103D102D40F35782BCF1000FD4
:104980000FD001331034072BC6F80090C6F804800E
:104990002794269300F38C840836103D102D40F3A5
:1049A000448221460C9C12E006F1080001331031CC
:1049B000103D072BC0F80090C0F804802693279183
:1049C0001BDC00F10806103D102D40F30D8401336F
:1049D0001031072BC6F80090C6F804802791269363
:1049E000E2DD2046594625AA05F04AFB00287FF45F
:1049F00060AA2799269B32A8D8E72046594625AABF
:104A000005F03EFB00287FF454AA32AE2799269B7E
:104A1000D9E70A9C32AF0E94FFF7AEB90C9859460D
:104A200025AA05F02DFB00287FF443AA279C32AE6F
:104A3000FFF7E8BB119F013F002F7FF72FAD102F2D
:104A40007FF7A8AE119B4FF0100801356249123B69
:104A50004444072DC6F80090C6F804800A912794B4
:104A60002695C3F3001300F3B1830836103F102FCF
:104A70007FF792AE7BB101351034072DC6F8009058
:104A8000C6F804802794269500F3B6830836103FB5
:104A9000102F7FF781AE22460C9C10E008360135BE
:104AA0001032103F072DC6F80090C6F804802792F8
:104AB00026951ADC0836103F102F40F35F8301352E
:104AC0001032072DC6F80090C6F80480279226956C
:104AD000E4DD2046594625AA05F0D2FA00287FF4E5
:104AE000E8A9279A269D32AED9E72046594625AA3D
:104AF00005F0C6FA00287FF4DCA932AE279A269D7D
:104B0000D9E73549269B0A9101330A9F6419072B7F
:104B100037607560279426937FF723ACC9E40C981F
:104B2000594625AA05F0ACFA00287FF4C2A932AE96
:104B3000279C269B39E40DF1C70C0B966646204650
:104B400029460A220023FEF783FB303232702046CA
:104B500029460A220023FEF77BFB04460D46374612
:104B6000013E54EA0500EAD108990B9ECB1B0E9337
:104B7000FFF702B90C98594625AA05F081FA0028DA
:104B80007FF497A932AE279C269B23E4109D2B68C7
:104B9000291DDD171A461C462B46002A73F100001A
:104BA0001091BFF6CBA82D22644265EB45058DF828
:104BB00073200123FFF7C3B810990D1D0C681095E1
:104BC0000025FFF7A1B9109C2568201D10902C46E8
:104BD0000025FFF722BA00BF64BD00000C985946BB
:104BE00025AA05F04DFA00287FF463A9279C32AE70
:104BF0001E9B1198159983420F4470DB099AD107C7
:104C00006DD40A9D119AED1BD31AAB42B8BF1D4655
:104C1000002D0ADD26996419481C07283760756045
:104C20002794269000F35D83083625EAE5755D1B21
:104C3000002D7FF797AB102D7FF763AF269A1027D3
:104C4000531C8849A5F11108E419072BC6F80090F8
:104C500077600A9127942693C8F3001800F33583F0
:104C60000836103D102D7FF74FAFB8F1000F0ED072
:104C700001331034072BC6F80090776027942693F1
:104C800000F34E830836103D102D7FF73DAFDDF861
:104C900030800FE00836431C1034103D072BC6F857
:104CA000009077602693279428DC0836103D102D5D
:104CB0007FF72AAF581C10340728C6F80090776099
:104CC00027942690E6DD4046594625AA05F0D8F9F6
:104CD00000287FF4EEA8279C269832AEDBE72698C2
:104CE0001899421C641818981499072A316070604A
:104CF0002794269200F3B682083682E7404659464A
:104D000025AA05F0BDF900287FF4D3A832AE279C70
:104D1000269BCBE70C98594625AA0693CDF81CC0D4
:104D200005F0AEF9069BDDF81CC000287FF4C1A891
:104D300032AE279C269AD3E4099AD2073FF583AB7B
:104D400037600120FFF7A3BB0C98594625AA0693AC
:104D500005F096F9069B00287FF4ABA832AE279C9D
:104D6000269ACEE40C98594625AA05F089F9002820
:104D70007FF49FA8279C269D32AEFFF76DBB0C9851
:104D8000594625AA05F07CF900287FF492A8279CB3
:104D9000269D32AEFFF76CBB0A9F0E9732AFFEF72F
:104DA000EBBF0C98594625AA05F06AF900287FF454
:104DB00080A8279C32AEFFF749BA05F0A1F8002879
:104DC00040F0E4800327099A274B0B97274F22F0E6
:104DD00080010324B8F1470FD8BF1F4612900991F4
:104DE0009DF873300E941590FEF7D1BF09994B06CC
:104DF00040F1B281109A0123111D148800251091F1
:104E0000FFF782B8099FF80640F1AB81109C0F9A1A
:104E10002168271D10970A60FEF7B2BE9AF800803D
:104E2000FEF7E5BE0F4A269B0E925A1C0E99641996
:104E3000072A86E82200279426923FF7CFAE08364D
:104E4000D6E60849269A0A91FFF770BA0C98594697
:104E500025AA05F015F900287FF42BA8279C32AE6F
:104E6000FFF7ABBB64BD000028BD00002CBD0000F7
:104E70002699B74B481C0134012107283360716023
:104E80002794269000F3498108362AB9119818B959
:104E9000099BD8077FF566AA26981899431C6418C1
:104EA00018981499072B316070602794269300F3AB
:104EB000C7820836C2F10008B8F1000F40F37A81CA
:104EC000B8F1100F40F3DA8110250133A8F1110277
:104ED000A0486419C2F30011072BC6F80090756052
:104EE0000A90279426930E9100F3DA820836A8F1EF
:104EF0001008B8F1100F40F3C3810E9A82B101334C
:104F00001034072BC6F8009075602794269300F3A1
:104F10000F830836A8F11008B8F1100F40F3B081E4
:104F200020460C9C13E0083601331030072BC6F8DE
:104F300000907560A8F110082790269300F3FC807C
:104F40000836A8F11008B8F1100F40F3948201332D
:104F50001030072BC6F80090756027902693E2DD8D
:104F60002046594625AA05F08BF800287EF4A1AF0B
:104F70002798269B32AED7E7099C0AF1010A44F034
:104F80002007099792F80180FEF731BE0A98471C66
:104F900000F0CF80B8F1670F00F04C82B8F1470FF6
:104FA00000F048820998002C40F480771397C0F2F3
:104FB0006B8200211291B8F1660F00F00B82B8F1FC
:104FC000460F00F00782B8F1650F00F06282B8F179
:104FD000450F00F05E82DDF828C002218DE8021046
:104FE0001EA81FAF20A9029003972A4623460491CA
:104FF0000C98CDF81CC002F043FBB8F1670F0746D0
:10500000DDF81CC002D0B8F1470F03D1099AD007D0
:1050100040F1438207EB0C03B8F1460F0B9300F00D
:10502000EE81284621460022002306F02DFC00BB1D
:10503000209A0B9C944240F2D88213463021D043F0
:1050400003F8011B2018A342209300F001000FD0A9
:1050500028B151700B9A01339342209308D00B9CD6
:10506000184600F8011B5970431CA3422093F7D146
:105070000B930B99B8F1670FC7EB0103119300F085
:105080006681B8F1470F00F06281B8F1660F40F019
:10509000B8821E9A0A9C002A40F38882002C40F0B5
:1050A00053820999C80700F14F8222EAE2730B93F9
:1050B0000E9215921299002900F0438113982D2227
:1050C00000218DF8732009901291FEF761BE0C98B3
:1050D000594625AA04F0D4FF00287EF4EAAE279CA6
:1050E00032AEFFF780BA0E9B109523EAE3720B9263
:1050F0009DF873301594FEF74ABE0C98402103F0DA
:10510000BDFECBF80000CBF81000002800F0728242
:105110004026CBF81460FEF726BD0C98594625AA08
:1051200004F0AEFF00287EF4C4AE1E9A279C32AE77
:10513000ABE606220A9235E72046594625AA04F036
:105140009FFF00287EF4B5AE32AE2798269BF8E686
:1051500060BD000064BD0000109805680746FEF7BA
:10516000B6BD109A099913680F9F101D11F0400FDA
:10517000109014BF1F801F60FEF702BD1446FFF79A
:105180000BBB04F04DFF1294129C20EAE0720E90CB
:105190000B929DF8733010951594FEF7F8BD0C989E
:1051A000594625AA04F06CFF00287EF482AE279CA5
:1051B000269B32AE11995A1C6418072A3760716019
:1051C000279426927FF7CDA8FFF773B90C9859461C
:1051D00025AA069304F054FF069B00287EF469AECE
:1051E00032AE279C269D41E40C461EE6A34C27992F
:1051F000269A1B94FEF7F9BF0C98594625AA04F08D
:105200003FFF00287EF455AE32AE279C269D3EE43B
:105210000C98594625AACDF81CC004F031FFDDF8E2
:105220001CC000287EF445AE32AE279C269BFFF7BB
:10523000A1BB0C98594625AA04F022FF00287EF451
:1052400038AE279C32AEFFF776BB0C98594625AA9C
:1052500004F016FF00287EF42CAE32AE279C269B6D
:10526000FFF7DDB90C98594625AA04F009FF00287C
:105270007EF41FAE1E9B279C32AEC2E480490A9189
:1052800001330A994444072B86E8020127942693A8
:1052900085DC08368EE70C98594625AA04F0F0FE06
:1052A00000287EF406AE32AE279C269BFFF7C9B9D4
:1052B0000C98594625AA04F0E3FE00287EF4F9ADC7
:1052C00032AE279C269BFFF768BB0C98594625AA4F
:1052D00004F0D6FE00287EF4ECAD32AE279C269B6F
:1052E000BFE40C98594625AA04F0CAFE00287EF4B3
:1052F000E0AD119E1E9F279CF31B32AE95E40A9FE2
:105300001095062F28BF062727EAE7710E970B9105
:105310005C4FFEF769BE594A269B0992FFF7F6B823
:105320000C98594625AA04F0ABFE00287EF4C1ADC6
:1053300032AE279C269BA6E42D238DF87330FEF712
:1053400005BE139C9DF873300994FEF720BD1E9A8C
:10535000D11C104602DB0A9C944228DAA8F102080C
:10536000431E002B1E938DF88480C0F232812B22C5
:105370008DF88520092B00F39F80303330208DF885
:1053800086008DF8873022A921AA119B119C881ACA
:105390001918012C1A900E9140F310810E9C0023D5
:1053A000621C22EAE2700E920B90159382E611992C
:1053B0008A4252DB0999CB0700F1DF8022EAE273CF
:1053C0000B930E924FF0670873E62D4B269A0A93C3
:1053D000FFF7D4B90A9F0320009001971EA91FA8C8
:1053E00020AF2A4623460390049702910C9802F0BE
:1053F00047F90A9ADDF828C0831807460B933978D5
:10540000302900F0A9801E980B9A13180B9308E618
:105410000A9B0A9A23EAE37112900B919DF873306C
:1054200010950E921590FEF7B2BC0022A2460A9289
:10543000FEF7DFBB0A9F002F08BF01270A97B1E5DF
:105440000C98594625AA04F01BFE00287EF431ADC5
:105450001E9A279C269B32AE2CE5002A119BD4BFB6
:10546000C2F102000120C01820EAE0740E900B94F3
:105470004FF067081DE6044602E700BF74BD000058
:1054800064BD000058BD00002D2204F100441292BA
:1054900091E50A9B03F1010C9FE5209C0B94E8E544
:1054A0000C98594625AA04F0EBFD00287EF401ADC6
:1054B00032AE279C269B1AE546F267650DF19200F5
:1054C000C6F2666585FB0324DA17C2EBA40101EB83
:1054D0008104A3EB4403024603F130001070501E18
:1054E00009290B46EEDC30330DF19305D9B2854224
:1054F00002F8011C7BD9AC1AE4070DF185001346B4
:105500000DD58DF8861013460DF1860013F8011B9A
:1055100005E013F8014B481C4C7013F8011B417057
:10552000411CAB42F5D142ACC2EB4401F6392BE74A
:105530000C98594625AA04F0A3FD00287EF4B9ACC6
:1055400032AE279C269BE5E40A9C601C111821EAD8
:10555000E1730E910B93ACE528462146002200230F
:10556000CDF81CC006F090F9DDF81CC000287FF4CF
:105570004AAFCCF101001E9046E7501C20EAE074CF
:105580000E900B944FF0670893E5109F109B3A68BC
:105590001F1D002A9AF801800A921097A246BEF6B3
:1055A00026AB4FF0FF340A94FEF721BBB4B909983B
:1055B000C10713D401210B910E917AE5099A12F0DB
:1055C00001007FF4EBAE0E9B159023EAE3710B9183
:1055D00070E52D215B428DF88510CBE60A9B9C1C63
:1055E00024EAE4700E940B9063E50B9241E50DF113
:1055F0008601C9E60C9C0C2020604FF0FF30FEF7BE
:1056000063BC1E98ACE600BF2DE9F04FC5B01D4647
:105610000B9114460C9003F0B7FB006811951490A1
:1056200004F0FEFC002116900020CDE918010C9931
:1056300019B18B6B002B00F00B810B9A938903F44B
:10564000005001B239B90B9843F40053426E838184
:1056500022F40051416603F0080002B2002A00F073
:10566000C0800B990869002800F0BB8003F01A0283
:105670000A2A00F0C280002134ABDFF86C95129149
:1056800008932793299128910A941A911B910F91BD
:105690009A460A9A1078002800F0DE80252800F04B
:1056A000DB80531C02E0252900F08D8019781C4610
:1056B00001330029F7D10A9AA51A85B12999289BA7
:1056C0004A190A98591C07298AE821002992289129
:1056D0000AF1080A00F3B2800F9842190F9223785A
:1056E000002B00F09780611C0A9100264FF0FF3CD0
:1056F00094F801800A9B0E968DF87B600996202114
:105700002B2266460133A8F12000582800F2DF82E0
:10571000DFE810F0ED02DD02DD02F702DD02DD025E
:10572000DD02DD02DD02DD022903A400DD026000EE
:10573000A900DD02C4003503350335033503350305
:105740003503350335033503DD02DD02DD02DD02FD
:10575000DD02DD02DD02DD02DD02DD028901CB00BA
:10576000DD02CB00DD02DD02DD02DD028201DD02B1
:10577000DD02CE01DD02DD02DD02DD02DD02E70138
:10578000DD02DD02FC01DD02DD02DD02DD02DD0203
:10579000DD02DD02DD02DD02DD02C802AA02CB006D
:1057A000CB00CB00C102AA02DD02DD025502DD0200
:1057B0006C027A0292021F02DD022602DD02FE0264
:1057C000DD02DD0213030A98251A76E70E9C11907C
:1057D00064420E94099840F00404099493F8008000
:1057E00090E70C980B9901F073FD00BB0B9B9B8914
:1057F00003F01A020A2A7FF43EAF0B99B1F90E00AA
:105800000028FFF638AF0C9822462B4601F020FD09
:105810000F900FE0299A22B10C980B9927AA04F057
:10582000AFFC0B9CA38903F0400108B210B14FF00C
:10583000FF340F940F9845B0BDE8F08F0C980B998A
:1058400027AA04F09DFC0028EBD10DF1D00A43E714
:10585000084603F0F1F8F0E60A9C40E78DF87B205B
:1058600093F800804EE71C4614F8018BB8F12A0F1C
:1058700001F0B384A8F130000026092801F2498420
:1058800014F8018B06EB860600EB4606A8F1300003
:1058900009282346F4D946EAE67634E7099C44F021
:1058A0008000099093F800802CE7119D0A93EB1D6E
:1058B00023F007014C68B3460E6808311191304659
:1058C0002146CDE9180121463046CDF81CB004F040
:1058D00017FB0128DDF81CC03046214641F0C4808A
:1058E0000022002305F0DAFF002841F046839DF8EE
:1058F0007B30099903200026B74DB84A0D901396C6
:1059000021F0800403200026B8F1470FCCBF934656
:10591000AB4609941090159613B10D9E701C0D9016
:10592000099C14F0020502D00D98811C0D91099A72
:1059300012F0840640F0D8820E9F0D9BFF1A002FB4
:1059400040F3D282102F41F38C8229981024289999
:1059500002194BF68450C0F200008AE811004B1C7B
:105960009F48A7F1110E072B179029922893CEF389
:10597000001C0AF1080A00F3C885103F102F40F3FD
:105980002182BCF1000F12D001334BF6845110324A
:10599000C0F20001072B8AE81200299228930AF12D
:1059A000080A00F3C485103F102F40F30B821C95AA
:1059B0001D960C9D0B9E12E001334BF68451103264
:1059C000C0F20001072B8AE812000AF1080A2992A6
:1059D000289300F3E581103F102F40F3F18101334C
:1059E0004BF684501032C0F20000072B8AE81100F9
:1059F000A7F110070AF1080A29922893DCDD28464E
:105A0000314627AA04F0BCFB00287FF40AAF299A8C
:105A1000289B0DF1D00ACFE7099C44F008000990BB
:105A200093F800806EE60A93099BB44643F0100594
:105A30000995099A960640F11D811199CC1D24F013
:105A40000700D0E900230830119014461D46002AB3
:105A500073F10000C0F2FC870123BCF1000F03DBEF
:105A6000099A22F08001099154EA050040F03A8336
:105A7000BCF1000F40F03683002B40F03085099DCB
:105A8000E90740F12C850DF5887B30240BF8414D5A
:105A9000089DCBEB05061096109900256145B8BF0F
:105AA00061460D919DF87B30CDF84CC0159533E7DC
:105AB000099C0A9344F010050995099BB44613F01C
:105AC000200300F0A880119BDE1D26F0070101F1E4
:105AD000080011900023D1E9004500228DF87B20B9
