:1000000000000110D93D0000293E00002B3E0000F9
:100010002D3E00002F3E0000313E00000000000099
:10002000000000000000000000000000210A0000A5
:10003000353E000000000000590A0000950A00004B
:100040003D3E00003F3E0000413E0000433E0000B8
:10005000453E0000473E0000493E00004B3E000088
:100060004D3E00004F3E0000513E0000533E000058
:10007000553E0000573E0000593E00005B3E000028
:100080005D3E00005F3E0000613E0000633E0000F8
:10009000653E0000673E0000693E00006B3E0000C8
:1000A000892A00006F3E0000713E0000733E000090
:1000B000753E0000773E0000793E00007B3E000068
:1000C0007D3E00007F3E0000813E0000833E000038
:1000D000853E0000873E0000893E00008B3E000008
:1000E0008D3E0000002902DA4A4210127047084B88
:1000F000B0FBF3F048434FF47A71B0FBF1F3FF33F8
:10010000180A90428CBFC2EB00000020704700BF6D
:1001100040420F00F8B5164604460D460F460B4602
:100120000022D86B93F838E0000100F4706004EB13
:10013000421140EA0E00C1F80401186C013210337C
:10014000042AC1F80001ECD16B68A968A3620122FE
:100150003046FFF7C7FFE968206301223046FFF70A
:10016000C1FF2969606301223046FFF7BBFF69695F
:10017000A06301223046FFF7B5FFA969E0630022C2
:100180003046FFF7AFFFE969206401223046FFF7F0
:10019000A9FF296A606401223046FFF7A3FF696A5C
:1001A000A06401223046FFF79DFFA96AE0640122A6
:1001B0003046FFF797FFE96A206501223046FFF7D6
:1001C00091FF296B606501223046FFF78BFF40F2FB
:1001D0008311A065022240F2031021622968206287
:1001E000626230460022FFF77DFF0F308321030952
:1001F000636221620021386CC0F3C112022A0AD066
:10020000012A03D1C0F38123083307E02AB9C0F3E0
:100210008123093302E0082300E00023DAB243041B
:1002200001D5023200E001327B6B23B1F86B00FA9A
:1002300002F213431B68013110370429DBD100207F
:100240002062D4F8002142F40023C4F80031D4F82D
:10025000201141F40020C4F82001D4F8402142F4D8
:100260000023C4F84031D4F8601141F40020C4F8F0
:100270006001F8BD70B50D784B6800EB45150C4674
:1002800016468968C5F8003210460122FFF72AFF9A
:10029000E168C5F8040200223046FFF723FF216918
:1002A000C5F8080201223046FFF71CFF6169C5F856
:1002B0000C0201223046FFF715FFA169C5F81002B4
:1002C00002223046FFF70EFFE169C5F81402012251
:1002D0003046FFF707FFC5F8180270BD002A14BFAB
:1002E0004FF480720022002B0CBF134642F0010332
:1002F000003118BF0121836001607047836843F0BB
:100300000201816082689207F8D5836803F01101C9
:10031000816082689307F8D47047836810B503F052
:10032000120181608268044642F010038360FFF787
:10033000E5FF0320206021680029FCD1FF22E16055
:100340002261216410BD012907D1826842F00103B6
:1003500083608168C907F8D57047836803F012018C
:100360008160704710B5FF22036A9A420DD0026A7D
:1003700001230A6003F1080450F8244041F82340A7
:100380000133DBB2082BF5D1EEE710BD10B5002329
:1003900051F8232003F118040133DBB2082B40F895
:1003A0002420F5D110BD82B0019B072383604269F0
:1003B000D20702D503680193F9E7042906D1012386
:1003C000C36542699306FCD50023C3650022012959
:1003D0004260C260026201D0042908D10129C264CE
:1003E0004265026503D1002101618369019342697D
:1003F00010210192816202B070472DE9F04F8BB05D
:100400000D46099211091207039102920446DDE993
:100410000201CDE906014FF0FF33002608950127C0
:1004200005934FF0000A4FF0000BB1464FF0000C5F
:10043000E046089A00236244DDE90601CDF804C0D5
:1004400003F026FDB0F1004FDDF804C001D94042B1
:1004500001314B1EB3F5803F09D2059A904206D276
:100460008A464FF0000BE0B105903E46C14608F1C8
:100470000108B845AC44DCD3059971B1089801373F
:1004800043190893DDE90201DDE90623121843EB65
:100490000103102FCDE90623C8D15AEA0B0135D04C
:1004A00001E03E46C146099A06EB09011009A1FB8D
:1004B0000A23704301FB0B33002103F0E9FC854262
:1004C0008CBFC0EB0500C5EB000064235843B0FBB4
:1004D000F5F5022D1AD8E0684FEA1A2140F08002A3
:1004E00041EA0B63FF20E260034000EA0A02636016
:1004F0002260E1683601F0B209F00F0940EA09060E
:1005000001F07F03E3600120A66200E000200BB051
:10051000BDE8F08F10B5C4680A4304F0C00413436B
:100520001C43C46010BD436913F0200202D0016077
:100530000120704710467047012A03D1042906D1D3
:10054000C2657047042902D1C36D0023C36570479B
:10055000074B021D520110B59C5803EB401021437C
:100560009950AA215523C0F88C10C0F88C3010BDCA
:1005700000C00F40084B021D520110B59C5803EB00
:10058000401024EA01019950AA235522C0F88C306A
:10059000C0F88C2010BD00BF00C00F40084B10B544
:1005A000041D41EA421203EB4414626003EB401065
:1005B000AA215522C0F88C10C0F88C2010BD00BFB5
:1005C00000C00F40012101FA00F0034BD3F8C42012
:1005D0000243C3F8C420704700C00F40054B0128F8
:1005E000D3F804210CBF42F4807222F48072C3F865
:1005F0000421704700C00F40024BD3F80401C0F340
:100600000020704700C00F40044BD3F8042102F4CF
:1006100080710843C3F80401704700BF00C00F4059
:10062000044BD3F8082122F4407141EA0020C3F8BA
:100630000801704700C00F40044BD3F8082122F096
:100640001F010843C3F80801704700BF00C00F40F6
:10065000054B064AD3F80C0100F00301012994BFB1
:1006600010460020704700BF00C00F40001BB700BD
:10067000074B10B5D3F8880010F4807007D0D3F87A
:100680008440FFF7E5FF04F01F014C1C604310BDE0
:1006900000C00F4008B5FFF7AFFF28B1012807D110
:1006A000BDE80840FFF7E4BFBDE80840FFF7D0BF52
:1006B000002008BD08B5FFF7EDFF044BD3F8041187
:1006C00001F01F02B0FBF2F008BD00BF00C00F40F8
:1006D000064B10B5D3F8A84114F01F0404D0FFF75F
:1006E000D9FFB0FBF4F010BD204610BD00C00F4094
:1006F00010B50446FFF7DEFF054BD3F80021511C6F
:10070000B0FBF1F203482146BDE81040FFF702BDFF
:1007100000C00F4000C0092010B50446FFF7CAFF13
:10072000054BD3F80021511CB0FBF1F203482146E0
:10073000BDE81040FFF79EBD00C00F4000C009207B
:1007400010B504460920FFF73DFF2046BDE81040E4
:10075000FFF7E3BD4209012300F01F0003FA00F197
:1007600004489200131859605A6822EA010159603E
:10077000704700BFC8C10F400B4B98420ED003F525
:10078000804188420CD001F5082290420AD002F53F
:100790008043984214BF0420032070470020704714
:1007A000012070470220704700C0004038B5044661
:1007B000FFF7E2FF0F4B05469C420DD003F50820E2
:1007C00084420BD000F580418C4209D00A4A944201
:1007D00014BF0320082004E0042002E0182000E0F9
:1007E0001920FFF7EFFE20462946BDE83840FFF705
:1007F000DABD00BF0000014000400A4038B50446A1
:100800000D46FFF765FF294602462046BDE8384001
:10081000FFF7F3BD38B50C460546FFF7ADFF22469E
:1008200001462846BDE83840FFF786BE08B5FFF709
:1008300041FF014B186008BD2C2E001038B50C4B41
:100840000C4C01259D602046DD60FFF7AFFF204680
:100850004FF4E131FFF7D2FF002220460321134677
:10086000FFF758FE20462946BDE83840FFF7D2BFC3
:1008700000C0024000C0004010B5044603482146B5
:10088000FFF751FE0028F9D010BD00BF00C00040A6
:1008900070B50E4615460024AC4204D2305DFFF719
:1008A000EBFF0134F8E7284670BD000008B5FFF7FC
:1008B000C5FFFFF7BBFF094B1A6842F08060186064
:1008C000996941F080629A61186840F0006119608E
:1008D0009A6942F00060986108BD00BF408009201D
:1008E0007047000038B5474C0020C4F80C01FFF7F2
:1008F00075FE03232020C4F8B031C4F8A001D4F859
:10090000A0114A06FBD53F4A01250020C2F80C5130
:1009100009210246FFF742FE00202946FFF718FE94
:10092000002228461321FFF739FE29462846FFF703
:100930000FFE0220FFF774FE0520FFF77DFE28461C
:100940002946FFF717FE2F4CD4F888305B05FAD5FF
:100950000120FFF759FE0120FFF740FE0220C4F8F6
:10096000A8010B20FFF72EFE2020FFF7F3FE032245
:10097000002505EB42132449013540F20124202DC6
:1009800041F82340F5D10132052AF1D1102303F1BA
:100990004005013340F20120202B41F82500F6D11B
:1009A0001A4B03F1E8050833AB420BD013F8084C9F
:1009B00013F8070C53F8041C00EB4412124C44F8D3
:1009C0002210F0E70F4C4FF007310125C4F8DC117D
:1009D0000B20C4F80051FFF7BDFE00221346294644
:1009E0000B48FFF77BFC0B48FFF782FE0A48FFF736
:1009F00093FE0A48FFF790FED4F8A0212A43C4F8DA
:100A0000A02138BD00C00F4000C0024030C6000029
:100A100000C009207CC5000010C60000F0C5000021
:100A2000064B19680868B0E8F00F80F309884FF0AA
:100A3000000080F311884EF00D0E70476C09001015
:100A4000EFF311804FF0280181F3118870470020E7
:100A500080F3118870470000EFF309800C4B1A688F
:100A600020E9F00F10602DE908404FF0280080F3D6
:100A7000118800F0AFF84FF0000080F31188BDE856
:100A8000084019680868B0E8F00F80F309887047DB
:100A90006C09001008B5084B08484FF080521A60E6
:100AA0000168074A1160FFF7CBFF00F029F800202A
:100AB000BDE80840FFF7CCBF04ED00E0BC08001023
:100AC00014E000E043685A688B604A605A6891609D
:100AD00059604160086101684B1C036070474368BE
:100AE00082689A608268536003695968814208BFCE
:100AF0005A60002202611868411E19601868704728
:100B000038B52B4B186800284CD12A4801684A1C7C
:100B100002600368ABB9284B284A1968106818604E
:100B20001160274A1168481C10601A68254811682E
:100B300011B94FF0FF3303E01B68DA68D1684B68E6
:100B400003601C481F4902680B689A422ED31A485A
:100B50000268116819B94FF0FF331A4925E004689B
:100B6000144AE368DC6811686068814202D2154B60
:100B7000186038BD251D2846FFF7B1FFA36A1BB1D9
:100B800004F11800FFF7ABFF0F48E36A02689342D5
:100B900088BF03600D48142101FB03002946FFF7BD
:100BA00091FFD4E70A490A68531C0B6038BD00BFA7
:100BB0007009001074090010C408001078090010B2
:100BC00068090010000000107C090010C80800101F
:100BD000C0080010104B186810B101210F4819E02F
:100BE0000F4A1049106814235843085818B913685D
:100BF000591E1160F4E7126803FB021303F10802A7
:100C0000596848689042586004BF406858605B6803
:100C10000548D9680160704770090010800900100C
:100C20007C090010C80800106C09001070B5D0B91C
:100C30000E4C2678012E14D100F08CF803F034F815
:100C40000B4D2670286003F033F8286803F040F855
:100C500018B9084803F04CFD03E0237803F0FE00C8
:100C60002070207870BD012070BD00BF040000100E
:100C70008409001010C7000010B51446002826D1C2
:100C8000144B1878C30720D4032920D8DFE801F0DB
:100C9000020C121810483221006803F091F8D0F1CC
:100CA000010038BF002010BD0B4B186803F04AF854
:100CB000206008E0084A106803F04AF8208002E04B
:100CC0004FF480511160002010BD032010BD04209E
:100CD00010BD00BF040000108409001010B51C46B0
:100CE00068B963B108480078C0070AD407480068AB
:100CF00003F034F8D0F1010038BF002010BD04200B
:100D000010BD032010BD00BF0400001084090010B6
:100D100010B9024B1878704701207047040000108A
:100D200010B51C4668B963B108480078C0070AD4FA
:100D30000748006803F02EF8D0F1010038BF00200A
:100D400010BD042010BD032010BD00BF0400001022
:100D50008409001030B50F4D2C6889B0B4B90E4825
:100D6000FFF7EEFC1F2040F2DD7114230094019484
:100D70000390012407910848029369460694FFF7FF
:100D800005FB05482146FFF7DEFA2C60012009B07B
:100D900030BD00BF880900100040024010B588B087
:100DA000044669460948FFF7DDFA009B019802995D
:100DB000E371A07161710698049A039B0799A07072
:100DC0002271E3702180012008B010BD0040024074
:100DD00007B56846FFF7E2FF9DF802309DF8032053
:100DE000580540EA02419DF805209DF8060041EAB9
:100DF000C22343EA40119DF80720BDF8000041EAF4
:100E00005203A0F2BC7143EA41600EBD10B500234D
:100E1000934203D0CC5CC4540133F9E710BD03699D
:100E200030B501F10902002B37D043690024104688
:100E30001D5D202D024608D0052D08BFE52500F8D0
:100E4000015B0134082C0246F2D11C7A202C0DD013
:100E50002E2200F8012B08241D5D202D024605D00E
:100E600000F8015B01340B2C0246F5D1D87A0872E8
:100E7000987FDC7F000440EA04601C7F20435C7F95
:100E800040EA042008605C7E187E40EA04208880E6
:100E9000D87D9B7D43EA0020C8800021117030BDC1
:100EA00008B5036873B11A7862B1D9888088814225
:100EB00008D15878FFF72CFF10F0010F0CBF00206D
:100EC000032008BD092008BD2DE9F041C56A8D4207
:100ED00004460E4602D10020BDE8F081037913B923
:100EE000002EF8D01FE000F13008414640782A4635
:100EF0000123FFF715FF10B10120BDE8F08120713B
:100F0000E269206A11188D42EAD2E778012FE7D909
:100F1000E3696078ED1841462A460123013FFFF757
:100F2000FFFEFFB2F2E7607804F1300132460123A0
:100F3000FFF7D4FE0028DFD1E662BDE8F08138B5C6
:100F400000210446FFF7C0FF0346002B50D1227852
:100F5000032A45D16079002842D0E36204F13001D0
:100F60000025CD540133B3F5007FF9D1522384F825
:100F7000303084F831306123AA2084F8323084F88C
:100F80001732236984F82F027220552284F8140244
:100F900084F81502180C84F82E2284F81A024122D3
:100FA000E06884F8332084F8162284F81832C3F3FA
:100FB00007221B0E84F8192284F81B32C0F3072283
:100FC000030C84F81C02000E84F81D2284F81E32E3
:100FD00084F81F02626960780123FFF7A1FE657142
:100FE000002160780A46FFF747FE003018BF012055
:100FF00038BDCA7E8B7E032843EA022305D1487D93
:10100000097D41EA002243EA024318467047000086
:1010100010B504460A46407804F130010123FFF779
:101020005DFE80BB94F82F2294F82E3243EA022111
:10103000174B0AB29A4228D194F8682094F86910A4
:10104000130494F8662043EA016194F86730114371
:1010500041EA03210F4B21F07F429A4216D094F8C7
:10106000840094F88510020494F8820042EA016139
:1010700094F88320014341EA022121F07F40C01A05
:1010800018BF012010BD032010BD022010BD00BFFD
:1010900055AAFFFF464154002DE9F041154602686C
:1010A0001378303B092B05D854783A2C02D1023200
:1010B000026000E0002300200860002B40F059810E
:1010C000B54C2468002C00F057810C60217881B168
:1010D0006078FFF71DFEC1070BD4002D00F04F8193
:1010E00000F00401C8B2002814BF0A200020BDE8A7
:1010F000F081002020706070FFF798FDC20700F1BA
:1011000041812DB100F00403DAB2002A40F03D81A4
:1011100000212046FFF77CFF012818D194F8F20146
:1011200010B90D20BDE8F08194F8F86194F8F91138
:1011300094F8F601330443EA016294F8F71102438C
:1011400042EA012620463146FFF762FF00E0002612
:10115000032800F01D810028E3D194F83C2094F886
:101160003B3043EA0220B0F5007FDAD194F84750D3
:1011700094F8461051EA05210DD194F8563094F8B0
:10118000572094F85410180440EA026594F855204A
:101190000D4345EA022194F84050E1616B1E012B9A
:1011A000E570BED894F83D20A270002AB9D0501E38
:1011B0001042B6D194F8420094F8413043EA00233B
:1011C00098B21B072081ACD194F8447094F8433056
:1011D00053EA07230DD194F8523094F853701B044E
:1011E00043EA076394F850703B4394F8517043EA24
:1011F000072394F83F8094F83E7057EA082890D06F
:1012000005FB01FC08EB10176744BB4289D3DB1BCD
:10121000B3FBF2F3002B84D040F6F575AB4206D950
:101220004FF6F57293428CBF0325022500E001259D
:101230000233BF1906EB0802032DA361A7622262E5
:1012400013D100287FF46DAF94F85E2094F85F000E
:10125000120442EA006294F85C00024394F85D00D4
:1012600042EA0022626298000FE000283FF459AF82
:101270000CEB0200022D606201D1580005E0032250
:101280005A4303F0010303EB520000F2FF13B1EBEA
:10129000532FFFF446AF00204FF0FF31032D2161A3
:1012A000E0605AD194F8612094F86030607143EAAC
:1012B000022172186261607804F130010123FFF7A6
:1012C0000DFD002849D194F82F0294F82E2242EA0D
:1012D0000023324819B281423FD194F8322094F869
:1012E0003330110441EA036094F8303094F831202F
:1012F000184340EA02212A4881422ED194F816224E
:1013000094F81732110441EA036094F8143294F807
:101310001522184340EA0221224881421DD194F847
:101320001E3294F81F22190441EA026094F81C222C
:1013300094F81D32104394F81A2240EA032194F8DD
:101340001B02E160130443EA006194F8180294F868
:101350001922014341EA02232361134925700888B9
:10136000421C93B200200B80E380E0622071BDE854
:10137000F0810B20BDE8F0810C20BDE8F08128460B
:10138000BDE8F0810320BDE8F0810A20BDE8F081CE
:101390000120BDE8F08100BF9009001055AAFFFFB1
:1013A00052526141727241618C09001083690239A5
:1013B0009A1E914204D28278806A02FB0100704733
:1013C000002070470129F8B504460D465CD98369B1
:1013D000994259D20178022928D0032937D001290E
:1013E0004FD1026A05EB550602EB5621FFF76CFD63
:1013F000002846D1F005236A04EBD0570136204679
:1014000003EB562197F83070FFF75EFD002838D1C6
:10141000F60504EBD654EB0794F8301047EA0122A6
:1014200001D51009F8BD1005000DF8BD026A02EBE8
:101430001521FFF749FD20BB2D06ED0D6319641939
:1014400093F8301094F8310041EA0020F8BD036AA7
:1014500003EBD511FFF738FD98B96D06ED0D05F1D9
:10146000300163186419D8789A785B78010641EAEC
:10147000024294F8301042EA0320084320F0704002
:10148000F8BD4FF0FF30F8BD0120F8BD70B504463F
:101490000D46E1808168012901D1022070BD0368F9
:1014A0009A699142F9D271B91878032801D1596A21
:1014B00049B919890020A942E060EED95B6A03EBC3
:1014C0001512226119E09E783601B5420ED32068CC
:1014D000FFF778FF421C014618D00128DDD92368A8
:1014E0009A699042D9D2AD1BADB2EEE7E1602068B7
:1014F000FFF75CFF00EB1511216105F00F05206877
:101500006D01303541196161002070BD012070BD51
:101510000129F8B504460D46164670D983699942EB
:101520006DD2017802293AD0032949D0012962D12C
:10153000026A05EB550702EB5721FFF7C5FC0028AF
:101540005AD1F805C20D15F00105F3B207D0A11864
:1015500091F8300000F00F0141EA0313DBB2A2184A
:10156000216A82F8303001200137207101EB5721C8
:101570002046FFF7A9FC00283ED1FF05FA0D15B162
:10158000C6F3071607E0A318C6F3032693F8301036
:1015900021F00F073E43A71887F830602CE0036A5C
:1015A00003EB1521FFF790FC30BB2D06EA0DA118C7
:1015B0000D4681F83060C6F3072681F831601BE0E4
:1015C000026A02EBD511FFF77FFCA8B96D06E90DA1
:1015D00001F13003E3186518DA78120602F0704161
:1015E0000E4385F83060C6F30722310C360E5A7070
:1015F0009970DE7000E0022001232371F8BD022003
:10160000F8BDF8B505460F4631B9C6686EB18069B8
:10161000864228BF012609E0FFF7D4FE01283BD906
:10162000AB69984239D33E4600E001263446A969A9
:1016300001348C4204D3012E01D80020F8BD0224CD
:1016400028462146FFF7BEFE48B1431C02D14FF0A9
:10165000FF30F8BD01281FD0B442E8D1EDE728469D
:1016600021466FF07042FFF753FF98B947B92A69D6
:10167000EC60511C0CD0531E01202B61687107E0F7
:10168000284639462246FFF743FF0028EFD001E005
:101690002046F8BD0128DAD00120F8BD2DE9F84335
:1016A000C6880446701C86B20F4616B90420BDE8F1
:1016B000F8832369002BF9D016F00F085CD1591C70
:1016C0002161E168206819B90289B242EED953E07C
:1016D0008278531E13EA16124ED1FFF773FE0128CB
:1016E000054602D80220BDE8F883411C02D1012042
:1016F000BDE8F883206881698D4237D3002FD5D0AB
:10170000E168FFF77EFF0546002841D00128E9D0B7
:10171000421CECD020680021FFF7D6FB0028E6D160
:1017200022683032002717540130B0F5007FF9D11C
:10173000D4F8009029464846FFF738FEC9F82C0037
:1017400020688378BB420ED90122027120680021F3
:10175000FFF7BAFB0028CAD12068C36A0137591CB9
:10176000C162FFB2ECE7C16ACF1BC762E5602068C7
:101770002946FFF71BFE20612068E6804FEA4818E3
:1017800008F1300800EB080363610020BDE8F8832E
:101790000720BDE8F88300002DE9F0410B782F2BDE
:1017A00004460E4601D05C2B00D101360025A56011
:1017B00030781F2853D820462946FFF767FE656119
:1017C000BDE8F0815C294AD0A56900262022AA55EF
:1017D00001360B2EFAD1002294460821104617F844
:1017E0000C30202B0CF101063FD8BE19202B94BFE2
:1017F00004230023002A00F0A3802A78E52A01D1DF
:1018000005222A70082901D18100C8B200F0030224
:1018100000F00C01012A08BF43F01003042908BF9F
:1018200043F00803EB7220460021FFF72FFE00284B
:1018300059D0A169CB7A002874D103F00402D1B247
:10184000002940F09B806169C87A00F01003DAB289
:10185000002A72D025682878FFF7CBFBA06031788A
:10186000374601362F29ADD1F9E72F2BBDD05C2BA0
:10187000BBD02E2B7BD08A4262D203F17F0813F0BB
:10188000800F5FFA88F818BF40F00300B8F11E0F10
:1018900006D903F120085FFA88F8B8F11C0F18D8B0
:1018A00017F806800CF10206A8F1400CBCF13E0FBF
:1018B00004D988F0800CBCF17C0F41D801F1FF3CC9
:1018C00062453DD2AB54AB18023283F80180B44676
:1018D00085E7DFF8AC8018F801CFBCF1000F32D0FB
:1018E0009C45F8D12CE020682169FFF7EDFA00282B
:1018F0009FD1626913789BB1D17A01F00803D9B204
:1019000049B9A7690346D55CF95C01338D4202D120
:101910000B2BF8D18DE720460021FFF7BFFE86E7AD
:10192000042086E7042829D103F00401C8B2002866
:1019300014BF04200520BDE8F0810520BDE8F0813A
:101940000620BDE8F081A3F1410CBCF1190F02D8CB
:1019500040F0020008E0A3F1610CBCF1190F03D8BC
:10196000203B40F00100DBB2AB540132AFE7082965
:10197000E6D180000A46C0B20B21A8E7BDE8F0819D
:101980002CC7000038B500210446FFF77FFD05464F
:1019900018BB20682169FFF797FA0546E8B9636923
:1019A0001878E52805D020B120460121FFF776FE02
:1019B000EDE720682169FFF787FA054668B9606995
:1019C00029460022425401312029FAD1A1690B2273
:1019D000FFF71CFA236801201871284638BD10B59E
:1019E000042304462169B9B12068FFF76DFAD0B924
:1019F00062691378B3B1E52B06D02E2B04D0D17ACF
:101A000001F00802D3B283B120460021FFF746FE61
:101A100003460028E6D006E0184633B100202061D6
:101A2000184610BD04200346F8E710BD012970B523
:101A300004460D4622D9836999421FD2A069854286
:101A400005D220462946FFF7BDFC064608B900200E
:101A500070BD012812D0411C0ED02046294600221C
:101A6000FFF756FD58B921694A1C03D04A1C0125CD
:101A7000226165713546E1E7012070BD022070BD2D
:101A800048B9064A136803B1187009B100200870FC
:101A90001160002070470B20704700BF90090010B4
:101AA0002DE9F0478CB0164601910546002800F05C
:101AB00096800023036005A901A802F01E02FFF72B
:101AC000EBFA8046002840F0938002A80B90019921
:101AD00005A8FFF761FE0A9C18B9002C0CBF062070
:101AE000002016F01C0F06F01F0748D048B104284C
:101AF00002D105A8FFF746FF47F008070A9C48B146
:101B000075E0E07A10F0110F70D106F00401CEB24A
:101B1000002E67D107F00802D3B2002B3DD0FFF7AB
:101B200057F9C0F30726A073E673010C0026000ED8
:101B3000DDF814902174E67226776677A677E6774B
:101B4000607499F800002146FFF753FA0122A67647
:101B5000E6762675667589F804200646E8B148469B
:101B60003146D9F82CA0FFF761FF00283FD1059836
:101B7000013EC6605146FFF7A7F970B137E0002873
:101B800035D1E17A01F01002D3B2002B2CD106F04E
:101B90000206F6B20EB1C80728D407F00803D9B27E
:101BA00009B147F02007059EF06A2C62E861AF7129
:101BB00030782146FFF71DFA2861A37FE27F1904E0
:101BC00041EA0260227F637F2E601043F28840EA80
:101BD00003210020E960A860A861AA8008E04FF016
:101BE000090805E0082002E0042000E00720804604
:101BF00040460CB0BDE8F0872DE9F74F9A46002328
:101C0000CAF80030044688461746FFF749F90546EA
:101C1000002840F0A080A179080600F19980C9074A
:101C200040F19880E068A268861AB74238BF3E4605
:101C3000002E00F09080A168CB0570D120688378D9
:101C40005A1E02EA512313F0FF030CD109B920698F
:101C500004E061690193FFF7B5FB019B01280BD9F3
:101C6000421C55D06061D4F800B0616901935846B8
:101C7000FFF79CFB019B20B9A07960F07F03A37163
:101C800066E05FEA562900EB030724D09BF80220A8
:101C900009EB0300904288BFC3EB020941469BF861
:101CA00001003A465FFA89F3FFF718F8A17980BB83
:101CB00001F04001CBB25BB1A269D71B4F4507D2FF
:101CC00008EB472004F124014FF40072FFF79EF85F
:101CD0004FEA492731E0A269BA421FD0A07900F04B
:101CE0004001CBB25BB104F124019BF80100012358
:101CF000FFF716F8A17960B921F04002A2712146E0
:101D00003A4651F8240B01234078FEF7E7FF28B14B
:101D1000A17961F07F05A57101251CE0A761A76885
:101D2000F905CB0DC3F50077BE4238BF3746E11841
:101D3000404624313A46FFF769F8A068DAF80030E7
:101D4000C119DA19A160B844CAF80020F61B6FE780
:101D5000022500E007252846BDE8FE8F2DE9F74F54
:101D600099460023C9F80030044688461746FFF715
:101D700097F80546002840F0B780A079010657D4AF
:101D800000F00201CAB2002A00F0AD80E368DF4231
:101D900028BF002730E05FEA572B00EB0A0674D01B
:101DA00098780BEB0A01814288BFCAEB000B4146D1
:101DB000587832465FFA8BF3FEF7B2FF002873D1F2
:101DC000A3699E1B5E450BD204F124004FF4007200
:101DD00008EB4621FFF71AF8A27922F04000A07123
:101DE0004FEA4B26A168D9F800208B199019A360FF
:101DF000B044C9F80000BF1B0FB3A168CA055AD18F
:101E0000206890F802A00AF1FF3202EA512313F091
:101E1000FF0A1DD171B9216921B9FFF7F2FB014613
:101E2000206161B10129A3790FD163F07F01A17114
:101E3000022559E06169FFF7E4FB0146F1E7A0687C
:101E4000E26890424AD9E06048E04A1C2DD06161C6
:101E5000A07900F04001CAB262B12146A26951F8EE
:101E6000243B58780123FEF75BFFA379E8B923F000
:101E70004000A0712268616901921046FFF796FA4E
:101E8000019B002887D1A379CFE7A169B14211D086
:101E9000A068E26890420DD2587804F124013246DD
:101EA0000123FEF71BFF28B1A37963F07F05A5711D
:101EB000012519E0A661A668F305D90DC1F50076E4
:101EC0006018B74238BF3E46243032464146FEF7DE
:101ED0009DFFA07940F04002A27183E7A37943F00F
:101EE0002001A17100E007252846BDE8FE8F70B5EE
:101EF0000446FEF7D5FF00284ED1A37903F0200257
:101F0000D1B2002948D003F04000C3B26BB12146E2
:101F1000012351F8242B5078A269FEF701FF002815
:101F200039D1A67926F04001A1712068E169FEF758
:101F3000CBFF0646002E2FD1256AE87A40F0200319
:101F4000EB72E2682A77A189080A6877E389AB77A0
:101F5000E27BEA7721690B0C1A0AC1F30720A97604
:101F60002B756A75E876FEF733FFA875030CC0F38E
:101F70000721000EE97568762B76AE74EE74A279AF
:101F80002368012022F02001A17118712068BDE8AA
:101F90007040FEF7D4BF012070BD10B50446FFF7B6
:101FA000A6FF00B9206010BD30B587B0044601918E
:101FB00030B301A821460022FFF76EF82568E0B98A
:101FC00003ABA36120460199FFF7E6FB80B9616985
:101FD00041B1C87A00F01002D3B26BB12878FFF794
:101FE00008F8A060E9882046A1800021FFF74EFA9A
:101FF000042801D028B100E005200022226000E082
:10200000092007B030BD7FB504460E46FEF748FFF5
:102010000546E8B926B920462946FFF737FA16E003
:1020200001ABA3612046FFF7DAFC042801D125614A
:1020300000E060B920463146FEF7F1FE002120465F
:10204000FFF72CFB042802D10020206100E00546A8
:10205000284604B070BD0000030A0B70C3B21370B1
:10206000087808B11F207047072BFBD8034A02EB02
:10207000431191F89033DB07F4D57047000000203E
:1020800070B500220646154D05EB821404F59074D8
:1020900094F8201011F0010104D00132042AF2D189
:1020A000182070BD4022204602F08CFA94F82030AF
:1020B0002168A68443F001000E2206F11C0384F877
:1020C000200062F31F7105EB43102160416809B1E4
:1020D0008C6000E084604460002070BD000000203F
:1020E00070B506460020164D00F1110405EB4414AE
:1020F000217C11F0010104D001300B28F3D117200D
:1021000070BD2022204602F05DFAA278237CA682D0
:1021100042F00401A17043F001002368207406F12D
:102120001C020E2060F31F7305EB421123604B6805
:102130000BB19C6000E08C604C60002070BD00BF63
:1021400000000020F0B5124C9DF814709DF8186046
:10215000C5B204EB4515D5F88443A578616063F3F7
:10216000C405A570236867F31963236012B1531E79
:10217000C91800E01146E160E2821EB9A27842F07F
:10218000E001A170C0B2BDE8F040FFF7A9BF00BFF9
:1021900000000020054B5A6DD20705D5586DC0F3DD
:1021A00040230B70002070471D20704700C008209E
:1021B000044B4FF4A06202FB0030B0F8801088B2EC
:1021C000704700BF0000002010B54FF4C87000F049
:1021D000DEFB084B10225A65586D10F01004FBD13D
:1021E000044B4FF4801159654FF4C87000F0CFFBD9
:1021F000204610BD00C00820354B192270B5194685
:102200000546C3F8F42FD1F8F84F314804F0190609
:10221000192EF8D10123C0F8103183602C4A91683F
:1022200011F00106FAD12B484FF4A06202FB05041D
:102230003146204602F0C6F994F8813494F891149E
:1022400043F0400294F8A13484F8812441F0400026
:1022500043F0400284F8910484F8A12431464FF4FD
:10226000A0641C4A6C434FF4A07303FB051304F5F0
:10227000906001311018202942F82300EFD1144B4F
:1022800000205860596821F0C00141F08001596078
:102290001149596342F62721196404F592615118D6
:1022A000196204F594615118121999629A6159687A
:1022B00041F03F024FF480315A601965DA68D968FD
:1022C0000A43DA600549064A59611A6170BD00BFC8
:1022D00000C0082000000020DF2E78277F0000C00B
:1022E00042000080024B0020C3F81001704700BF7D
:1022F00000C008202DE9F04F8BB000249DF85070ED
:102300009DF854A0BDF858809DF85C90CDF80880E9
:102310008DE88004CDF80C90049406900791089203
:10232000099300F043FB8346002871D1032F12D894
:10233000394AD65DFF2E0ED00546384805F11C04FB
:1023400000EB4414217C11F0010107D00135082D68
:10235000F3D116205BE04FF0200B59E020222046FD
:1023600002F030F9237C207843F0010222740799AF
:1023700061F3060020702288099B63F3CA12228051
:10238000002F42D0BAF1020F14BF4FF0020A4FF0F3
:10239000010A0899607884F811900A1C18BF01227C
:1023A0006AF3C400618862F34510012F4FEA885830
:1023B00014BF0023012300F0BF004FEA985863F3D5
:1023C000C71068F30A0160706180E8B202D0FFF7BD
:1023D00087FE01E0FFF754FEC8B9104905F11C0261
:1023E00001EB42125020137C66F347031374069BE3
:1023F00000FB0366483601EB061605EB0325F16882
:10240000D160F2601B9A156002E0BA46C1E78346CC
:1024100058460BB0BDE8F08F3CC70000000000201C
:1024200073B50DF106010DF10702FFF715FE002847
:1024300034D19DF807301A4A1C3302EB4313597804
:1024400041F040025A70174A0421D1601549CA6808
:10245000596812F0040F19D121F00F059A6822F083
:102460000F02AA42F2D05E78F60908D0916899600E
:1024700092F820106FF3000182F82010EEE79468C4
:102480009C60117C66F300011174E7E721F00F02F4
:1024900059789A606FF386111A7259707CBD00BF2B
:1024A0000000002000C0082037B50DF106010DF135
:1024B00007020546FFF7D0FD0446002835D128461F
:1024C000FFF7AEFF80BB9DF8073019491C3301EBC5
:1024D000431350255A7842F0400058709DF806206A
:1024E000187C6A4302EB5000483001EB0012D168BF
:1024F0008B4201D00A46FAE7D868D0605A78D009F2
:102500005A6806D092F820006FF3000082F820008D
:1025100003E0117C60F300011174197C0E226FF34B
:1025200000015A61197400E0044620463EBD00BF18
:102530000000002007B50DF106010DF10702FFF7BD
:102540008BFD60B99DF80730054A1C3302EB43113F
:102550000B7A486160F3000360F341030B720EBD18
:10256000000000207FB515460C4600294ED0002AF9
:102570004CD00DF10E010DF10F02FFF76DFD03467A
:10258000002844D102228DE80C009DF80F0021465E
:102590000822FFF7D7FD002839D1E288F2B994F973
:1025A00000309DF80F00032101228DE80600002174
:1025B0000A468B42B4BF01230223FFF7C3FD30BBA1
:1025C0001448826842F0020181609DF80F30124881
:1025D0001C3300EB431112224A6111E094F90030E0
:1025E0009DF80F1001900326084600962946002BFF
:1025F000ACBF01230223FFF7A5FD0028CFD006E0E2
:102600004B69122BFCD04869C0B200E0202004B016
:1026100070BD00BF00C00820000000202DE9F04F71
:1026200089B0144605930E46A9B1A2B10DF11E0161
:102630000DF11F02FFF710FD002840F0BA809DF851
:102640001F805D4B08F11C0503EB4515287AC00778
:1026500003D50420ADE02020ABE06FF011118C42D7
:1026600003D16C88C4F30A0294B26B78DB0900F0E2
:1026700083806B88C3F30A004F4BB3F8809001B29C
:10268000CA001FFA89F0049200F10109002C00F041
:1026900085806868049A37053B0DC3F5005720F024
:1026A0000F03944238BF2246A3F80090B5F802C049
:1026B000CCF30A01BA4238BF17461FFA81FCB7FBB8
:1026C000FCF20CFB1270002814BF1146511EDA7880
:1026D00061F3020226F47F60DA707A1E20F00F01A7
:1026E000B018D860E41B5960BE4630460022BEF1E7
:1026F000000F20D0082A1ED0E64534BFF246E2463D
:1027000020F47F6BCDF80CA02BF00F0A8A450CBF8C
:102710004FF4604B4FF4704B4FEA005A4BEA1A5B90
:1027200003EB420A0132AAF810B0DDF80CA0CAEBA4
:102730000E0E5044DBE74046FFF7A2FC002838D1DC
:1027400009F1010E1FFA8EF9F6199FE73505280DDC
:10275000C0F50051A14228BF21468DB20023641B61
:1027600014BF0022012201920093404631462A46BE
:10277000FFF7E8FCE8B97619002CE7D19DF81F00B7
:102780000D4901EB401292F8903303F0FE0004284B
:1027900004D10A498A6842F004038B609DF81F1037
:1027A000054A1C3102EB41130599122058619961C9
:1027B000002009B0BDE8F08F0000002000C0082014
:1027C00007B50DF106010DF10702FFF745FC38B919
:1027D0009DF80730034A1C3302EB43104169C8B22D
:1027E0000EBD00BF00000020F8B55F4BDA68DA606C
:1027F0001D691540044600F0B5804FF000406A06A0
:10280000586121D4AB075AD55EE04A6DD00321D47C
:10281000554B586D820344BF4FF400325A65596DD1
:10282000480303D5504A4FF4802050655B6D19036F
:1028300003D54D484FF4002141654B4B5A6DD102F1
:1028400044BF4FF48011596547494B6D13F4F81F8D
:10285000DBD1D7E74FF480330A6D4B65496DC9076B
:10286000204602D500F052FAD2E700F059FACFE73D
:102870003E489D68834239D89A8C997801F0E000EF
:10288000E02807D03A48D1B21C3100EB411118685A
:10289000000F4861196811F0704F4CD13449D2B221
:1028A00001EB421090F88123D10956D093F82020F3
:1028B0006FF3000283F820202B46002DD8D12A4840
:1028C0004FF000410161F8BD29484FF4A06202FBBE
:1028D0000404D4F8841031F00F03F0D000229D6876
:1028E0009A601A46002DC3D02B46F8E79C8A596897
:1028F0002246A9B1DE68DF8A86EA010020F47F6003
:102900000905090D20F00F003605C1EB1656002809
:1029100014BF4FF4805000208019C1437818D8822A
:102920001349E4B201EB4414D4F898130029A4D05D
:10293000D88A0880A1E70E48D1B21C3100EB4111C2
:10294000087AC00702D41868000F00E0042048612C
:10295000087A6FF300000872A0E7187C61F30000AA
:102960001874A9E7F8BD00BF00C00820E0010020EE
:102970000000002082B00023019380000199814271
:1029800003D2019A531C0193F8E702B0704713B5C4
:10299000044600210191019BA34206D24FF47A70B4
:1029A000FFF7E8FF0198411CF4E71CBD70B59DF8E6
:1029B0001050BDF818409DF81C6000283ED1090653
:1029C0003CD4022A3AD813F0700F37D1032D35D8F2
:1029D0009DF81430022B31D8012A02D1681E01283B
:1029E0002CD9022D04D0032D0DD0012D01D118E0DA
:1029F0000AB9402C05E0022A01D0002070BDB4F5D0
:102A0000007F1BD8F9E7CEB1002AF2D0022AF4D118
:102A1000B4F5806F12D8102E10D89DF8201069B12F
:102A2000EBE7013E0F2E09D81AB9B4F5806F05D235
:102A3000E3E7022AE1D1B4F5806FEDE7202070BD15
:102A4000012008B50146FDF783FD094BD3F8A82006
:102A50005205FAD507480121022241678167C0F873
:102A6000CC20D3F8C40040F00041C3F8C41008BD26
:102A700000C00F4000C00240024B4FF080721A604D
:102A8000704700BF00E100E010B5054B1A78022A3C
:102A90001C4602D10020FFF7A7FE237810BD00BF1F
:102AA000BA2E00102DE9FF41174C0139904606223D
:102AB00041F400751E4662708023144A65802370BD
:102AC0000025092301A925716571A371E5710746E8
:102AD000155400F04FF9A0B9BDF80650BDF8281004
:102AE000A8F800508D420BD838463146E58000F0FA
:102AF00041F930B97378022B14BF0620002000E0A2
:102B0000052004B0BDE8F08100150020B92E0010AA
:102B10002DE9F04105460E4690462C888CB1376869
:102B20003B789C4238BF2346F818E11A3060298070
:102B3000C0470228F1D0012804D137602C80BDE8BD
:102B4000F0810220BDE8F08130B5684B1A5C8DB091
:102B50000446092A00F2C880DFE812F00A00C60025
:102B600018001F0035003C004F005D007B00A100F5
:102B70005F480388002B00F0B780591E8AB202809C
:102B8000002A40F0B1805B48027842E0584A4FF496
:102B90007A71118003221A55A6E055490A88501E01
:102BA000088072B102214B1E99B2002900F09C806E
:102BB00000230693069AB2F57A6FF4D20698431C66
:102BC000F7E70422E7E700201855494B64211980F4
:102BD000052061E0FFF7F8FA0DF117012046FFF735
:102BE000D9FA9DF81710444A404B1155404A00202D
:102BF000C8211855118006204EE0002108238DE8D9
:102C00000A0002910A460B4600F050F9002858D0FD
:102C10000722364BBFE7394B394D59681A6869604E
:102C200007A92A6000F0A6F8054600284CD19DF8B7
:102C30002300344B29461855204600F089F92046D8
:102C4000FFF7C2FA2A48294AC821018015550820F1
:102C500022E000252B4B0095185C02950190294637
:102C600020462A462B4600F021F950B3264A244B31
:102C700011685068196058602946204600F07AF8BB
:102C8000054608BB2046294600F062F9174B184953
:102C90001D5564220A800920164A107024E0002184
:102CA000184B0091185C029101900A460B46204691
:102CB00000F0FCF80D4A0A212046115500F074FF7F
:102CC00012E00025042100E00321084B185D0128D3
:102CD0000AD020462A4600F0D5FF204600F05EFFCD
:102CE0002046022100F060FA0DB030BDBC2E00106D
:102CF0009409001096090010342E001040C70000FF
:102D000000150020302E001048C7000010B5044602
:102D100000F03EFF014B02221A5510BDBC2E0010E0
:102D200070B50D4E0446002100F012F906EBC416F2
:102D3000002206EB0213551C1869E9B210B12046B7
:102D400000F006F9072D2A46F3D1204600F026FFB1
:102D5000024B0121195570BD382E0010BC2E0010F9
:102D600008B5034B1878FFF723FA80B208BD00BFFF
:102D7000B82E00102DE9F0472B4B93F90020DD8889
:102D8000002A04468A4603DB2A46002300F06AF93B
:102D9000DFF89C90254F19F80400234E4FEAC40831
:102DA00008EB00010B01FA18F85852683146FFF79A
:102DB000D9FB002835D196F9000000280CDB1C490E
:102DC0001A4A0B5D03EBC40402EB04140020A0813B
:102DD00060810834BDE8F08719F80410B379F279FE
:102DE000884407EB081743EA0220B8815146002DBA
:102DF000E5D00F4E0D4B305D00EBC40203EB02102B
:102E000000F1080342898689964204D94068805CB3
:102E100001325A8000E00020013D01F8010BADB203
:102E2000E5E70220BDE8F08700150020382E0010ED
:102E3000B92E00100D4A38B500230C4609215170F7
:102E40005480137153719371D3711370084A1946EA
:102E500005461354FFF78EFF38B9064B06491C7020
:102E6000002C0CBF0A240B244C5538BD0015002043
:102E7000B92E0010312E0010BC2E001010B5094BD9
:102E8000022299801A70084901225A7000229A7011
:102E9000DA709A71DA7104460A541146BDE810409E
:102EA000FFF768BF00150020B92E00102DE9F0478C
:102EB00088B0044688469DF84070BDF84490154699
:102EC00032B9204A115C082994BF0021012100E099
:102ED00001211D48025D1D48019308EBC40A01232E
:102EE000002600EB0A1A039304930095CDF808908E
:102EF00005960696CDF81CA020463B46FFF7FAF94A
:102F0000E0B9022DAAF80A00AAF80C0002D14FF489
:102F1000007002E0002DFAD048460C4908EBC404CA
:102F200001EB04140021208100F09EF96060003064
:102F300004F10805A77318BF012000E0304608B06F
:102F4000BDE8F087BC2E0010342E0010382E001083
:102F50000729F8B50ED801EBC006074F3601BC199A
:102F60000025B859FFF7A0FABD51606800F0BAF922
:102F700065602581F8BD00BF382E00100020704725
:102F8000F8B504461E4E1F4D335DE700F8180101E9
:102F90006A1892F90E30002B0DDB6858FFF710FC11
:102FA00038B9305D3F1805EB0715A9892A89914288
:102FB0000FD300220EE06858FFF702FC0028F8D17A
:102FC000335DFF1805EB0715A88969890835884224
:102FD000EFD0012282B90A4B0A4A185D00EBC40106
:102FE0000B01D058FFF7ECFB042807D00648015D21
:102FF0000129C7D10220F8BD0020F8BD0120F8BD8D
:10300000B92E0010382E0010BC2E00102DE9F04112
:10301000DFF84C80114C18F80030C7000546F8184E
:1030200001016058FFF7CCFB064680B918F805206F
:10303000BB181A01A11888894B8998420AD10B46FE
:10304000A05849686FF011120C33FFF7E7FA00201F
:10305000BDE8F0810120BDE8F08100BF382E0010EE
:10306000B92E00102DE9F0431BB11B88D21A92B281
:10307000C91800239CB2A2421AD00F4F0F4D3C5CDE
:1030800011F80380C600341905EB0414B4F80CC021
:10309000B4F80890E14509D9646804F80C803C5CF8
:1030A000341905EB0414A5890135A5810133E1E745
:1030B0000020BDE8F08300BFB92E0010382E0010AC
:1030C0002DE9F0470446884615461E46FFF758FF8F
:1030D0000746002861D1002E35D03388ED1AADB2F5
:1030E000984430E0DFF8BC902D4E19F804004FEA08
:1030F000C40A0AEB00010B01F21892F90E00002835
:1031000024DAF058FFF75CFB40B919F80400824458
:1031100006EB0A118E894A89964225D1002321485F
:103120001F4E025DE1001BB38B1806EB031672897C
:10313000B08990421AD97368995C01327281013D5D
:1031400008F8011BADB2002DCCD126E0F058FFF7F6
:1031500037FB0028E2D119F804108A4406EB0A165E
:10316000B28933899A42D9D20123D8E70021E6E710
:1031700088180001311830580A898B814B810B4621
:10318000954238BF2A4649680C33FFF747FA204674
:10319000FFF7F6FE0028D6D007463846BDE8F08790
:1031A000382E0010B92E0010012970B504461AD02F
:1031B000022918D10C4B0D4900251D540C4B082237
:1031C00001260E541A54FFF717F80A4928B9204669
:1031D0000E70BDE87040FFF74FBC20460D70BDE893
:1031E0007040FFF77FB870BDB92E0010BC2E0010E4
:1031F000302E0010BB2E0010022970B504460D467B
:1032000008D10B4E33782BB94FF4805000F016F8EC
:1032100001203070074920460D55FFF711FC20466C
:103220002946FFF7C1FF044B01221A7070BD00BF91
:1032300097090010BA2E0010BB2E0010094B5A88B7
:103240004FF6FC716FF30F0201405A801A88081F75
:1032500060F30E02C2F3072141F080001A8058701B
:10326000704700BF00050020F0B5830718BF20F0AD
:1032700003001B4B18BF04305A7802F08001CAB219
:103280002AB11C68C4F30E0189B2814206D25B8860
:1032900013B1134AD318EFD11846F0BD021D914265
:1032A00003D86FF3CF341C6018E09D5A5F886FF02D
:1032B0000304241A091945EA074561F30E0545F48C
:1032C00000459D50196860F30E0105489E18321A9A
:1032D00089B241EA02406FF3CF301860181DF0BD8B
:1032E0000005002070B5002845D030F8021C021FF0
:1032F000C1B1214D6C18637803F08003DBB28BB150
:1033000050F8043C6958C3F30E06C1F30E0171185E
:10331000043161F30E0340F8043C618861F31F43FC
:1033200040F8043C144B5988F1B1134C6118914298
:1033300017D1597801F08001C9B2B9B11A6850F8B3
:10334000041CC2F30E04C1F30E016118043161F3D1
:103350000E021A6030F8020C60F31F421A601A461F
:1033600004E019B10B46DEE7002AE2D0136843F40B
:103370000041116070BD70BD0005002070B5044DA6
:1033800004462E5C00232B54FFF7DEFB2E5570BD48
:10339000B92E00104378042B0BD14179082908D1AC
:1033A0008279062A05D1C079502814BF0220002056
:1033B00070470220704700002DE9F0478046FFF774
:1033C000CFFC98F8044098F80020274B1A55824605
:1033D00042F210792046FFF719FE00283AD1FFF794
:1033E000BFFC504507D009F1FF3293B2B9F1000F8D
:1033F00037D08246994698F802001B4F1B4D38552E
:10340000E60031180A01A858FFF7DAF9042809D0B4
:1034100098F80030F01801013B556858FFF7D0F9D3
:10342000042810D1385D31180A01A858FFF782F836
:103430003B5DF61805EB06152046A97BFFF71EFD40
:103440000120BDE8F0870A4A135D012BC2D102209A
:10345000BDE8F08798F80200034908550020BDE850
:10346000F0870320BDE8F087B92E0010382E001039
:10347000BC2E00102DE9F04F036905790446581C55
:103480000F469246421C08BF012055215322422676
:10349000432320617A70BE70FB70397020695C4EE6
:1034A0007860A1780023715585B0284639461F22DF
:1034B000FFF7D8FD81460346002840F0A580725DE5
:1034C000DFF850814FEAC50B0BEB0203180108EB44
:1034D00000024B46516858F800009289FFF79EF8A9
:1034E000715D0BEB010308EB0310A0F80C90A0F842
:1034F0000A902846FFF744FDBAF1000F65D097F90E
:103500000C20D7F808B02579002A1FFA8BFB17DAB0
:103510002046FFF751FF0346002854D12278284661
:10352000725551465A46FFF7CBFD034600284AD153
:10353000735D03EBC50508EB05118881488144E004
:10354000A7784B46284651465A467755FFF78AFDDD
:1035500007460346002836D1715D4FEAC50909EBDD
:103560000103180108EB00023B4658F800005168BF
:103570009289FFF753F8765DB14408EB0918A8F873
:103580000C70A8F80A70DFF88880224E18F8051031
:10359000EF007B1818013058FFF712F958B918F8E6
:1035A0000520BF1806EB07163189B3898B422CBF63
:1035B0000021012100E0002139B91748415D0129AE
:1035C000E1D1022320E0012B1ED820462579FFF708
:1035D000F3FE0346C0B920780D4E694670550D22A2
:1035E0002846FFF76DFD034670B9725D09499DF8E5
:1035F0000C3002EBC50501EB0515002B14BF802331
:103600000023A88168810835184605B0BDE8F08F11
:10361000B92E0010382E0010BC2E001008B54378CB
:10362000052B0CD1C17801F00302022A0CD180785D
:10363000FFF7A4FC002814BF0220002008BD042BC3
:1036400014BF0220012008BD022008BD2DE9F0436F
:1036500087B090F804900492ADF816100C22002167
:10366000044600F1080000F0ADFF049B58780228E2
:1036700052D100273D46B8465FB90DF1160004A9A6
:10368000284AFFF745FA002848D1049F054680469E
:10369000F2E70DF1160004A9234AFFF739FA0028D2
:1036A000EBD1049991F90220002A04DB0D46B8F110
:1036B000000F01D1E0E78846002DDDD001262378F8
:1036C000B34207D1B8F8042098F8021060786281FC
:1036D000012311E0A078B04209D00136F6B2082EDD
:1036E000EDD1B978012261722272002017E0AA8818
:1036F000E078A978A2810223002814BF02200020CC
:103700008DE806000290314648460222FFF7CEFBC4
:103710000028E2D1032002E0012000E0022007B0EF
:10372000BDE8F083953300001D3600002DE9F0411F
:10373000174B0479427A174E9A8021210546197059
:10374000FF20002158709970D9709971D971204665
:103750003155FFF70FFBC0B92A780F4F32554FEAAA
:10376000C40808EB020307EB03112046897BFFF72F
:1037700085FB50B9A878804407EB08173055B97B12
:103780002046BDE8F041FFF779BBBDE8F08100BFFE
:1037900000150020B92E0010382E001038B50C4B43
:1037A0000279407AA1241C70FE2498805C7001206C
:1037B00000249C70DC709871DC71064B10460D463D
:1037C0009C54FFF7D7FA032804BF2C70204638BD5D
:1037D00000150020B92E001070B515460379134A64
:1037E0000446D05C0B2888B00E461BD1217AC9B1A3
:1037F00000211F22684600F0E5FE802206201221EB
:1038000024238DF80C208DF80E008DF80F10204623
:1038100069462A4602938DF80D608DF81330FFF744
:1038200029FE00E0012008B070BD00BFBC2E0010D2
:1038300030B5104A03790446D05C0B2889B00D4698
:1038400014D1217A91B100211F22684600F0BAFEFE
:10385000062280238DF80E202046694600228DF82E
:103860000C308DF80D50FFF705FE00E0012009B087
:1038700030BD00BFBC2E001070B514460379154A48
:103880000546D05C0B2888B00E4620D1297AF1B1CC
:1038900000211F22684600F095FE80220A20252183
:1038A00008238DF80C208DF80E008DF80F10284697
:1038B0006946224602938DF80D60FFF7DBFD38B9AB
:1038C000236861681ABA0BBA2260636000E00120C5
:1038D00008B070BDBC2E001070B515460379134AB0
:1038E0000446D05C0B2888B00E461BD1217AC9B1A2
:1038F00000211F22684600F065FE80220620032179
:1039000012238DF80C208DF80E008DF80F10204634
:1039100069462A4602938DF80D608DF81330FFF743
:10392000A9FD00E0012008B070BD00BFBC2E001052
:10393000F0B514461E461A4A03790546D05C0B289A
:1039400089B00F4628D1297A31B300211F22684659
:1039500000F038FEBDF838308DF80D7080220A2056
:10396000734328218DF80C208DF80E00220C200ABC
:1039700002938DF80F10230E8DF812208DF813008E
:10398000694628460F9A8DF811308DF814408DF84D
:103990001760FFF76FFD00E0012009B0F0BD00BF28
:1039A000BC2E0010F0B514461E46184A0379054691
:1039B000D05C0B2889B00F4625D1297A19B3002194
:1039C0001F22684600F0FEFDBDF838308DF80D70FE
:1039D0000A2273432A20210E8DF80E20220A029318
:1039E0008DF80F008DF81110230C8DF81320284648
:1039F00069460F9A8DF812308DF814408DF81760D3
:103A0000FFF738FD00E0012009B0F0BDBC2E00102A
:103A100000B5A1B0FCF74AFF464B02211879FFF729
:103A2000EBFBFCF70BFF0020FCF75AFF424800F0CD
:103A30005FFE42490020FEF723F841484149012238
:103A4000FEF72EF818B1404800F052FE1DE03F4846
:103A500000F04EFE3A483E494FF4005202ABFEF7EA
:103A6000CBF860B9029951B1044602988442F1D270
:103A7000374A3848115D00F03BFE0134F5E736481F
:103A800000F036FE2E48FEF788FA344800F030FE8B
:103A90002B4833490A22FEF703F8B8B9314800F041
:103AA00027FE274830490E2201ABFEF757F938B9F7
:103AB00010A82E49019A00F031FE10A800F018FE5F
:103AC0002B4800F015FE1E48FEF767FA294800F063
:103AD0000FFE09A82849FEF767FAF0B9274800F059
:103AE00007FE09A803A9FEF78EFAB0B99DF81530B4
:103AF0009BB19DF814100DF1150301F01000C2B236
:103B000010A822B11E491A4600F008FE03E01D4924
:103B1000039A00F003FE10A8E1E7064C1A4800F0F3
:103B2000E7FD20790021FFF785F9184800F0E0FD56
:103B3000FEE700BF0800001050C700009809001001
:103B4000D02B001072C700007EC70000A9C700007C
:103B5000D00B0010E9C70000ECC7000002C800004D
:103B600025C800002FC8000055C8000064C8000028
:103B7000EEC7000078C80000E8C7000091C8000048
:103B8000AAC80000B9C80000C7C80000DBC8000010
:103B90000146014800F0ACBDF0C8000001460148F4
:103BA00000F0A6BD0DC9000070B54FF40073ADF56F
:103BB000127D009301210DF10E0212AB0546FEF7B6
:103BC00071FF08B1254844E0254CBDF80E10204691
:103BD00012AA2571FFF73AFD08B1224839E0207991
:103BE0000121FFF727F9064608B11F4831E02046BA
:103BF0000DF10D01FFF7D2FD054608B11B4814E099
:103C00009DF80D101A48013100F072FD2046FFF7B3
:103C10008DFD064608B1174813E02046314604AA38
:103C2000FFF75AFE054628B1134800F061FD2079E0
:103C300031460AE02046294609AAFFF7CDFD38B1F2
:103C40000E4800F055FD20792946FFF7F3F802E011
:103C50000B4800F04DFD0DF5127D70BD2EC9000022
:103C6000080000105BC900008EC90000B4C9000044
:103C7000D6C9000004CA00002ECA00004FCA0000C6
:103C800077CA000037B51346054A0446105C0D4656
:103C9000009021462A46034800F02AFD3EBD00BFA1
:103CA000BC2E0010D1CA0000004870470800001068
:103CB00010B504462079054A115C0B2903D0022176
:103CC000FFF75CFBF6E7012010BD00BFBC2E001023
:103CD00070B50546154800F00BFD28460021FFF79A
:103CE000A7FD044650B18028F7D0114800F000FD30
:103CF00028790021FFF79EF8002070BD0D4E0E4878
:103D000000F0F6FC284621463246FFF7B5FD28B103
:103D10000A4800F0EDFC28792146EBE796E806001A
:103D2000074800F0E5FC012070BD00BF30CB00006B
:103D300045CB0000C80B00104ECB000056CB000056
:103D40007ACB0000014B1868704700BFC80B001009
:103D5000014B5868704700BFC80B001013B50A4CE0
:103D6000DBB2A488019100940021FFF7E1FD48B186
:103D7000064800F0BDFC064B00211879FFF75AF801
:103D8000002000E001201CBDC80B001095CB0000F6
:103D90000800001013B5084CDBB2A4880191009410
:103DA0000021FFF7FFFD20B1044800F0A1FC002036
:103DB00000E001201CBD00BFC80B0010B3CB000009
:103DC0006423594382B001910198421E0192002858
:103DD000FAD1012002B070470C490D4A0D4B9B1AD5
:103DE00040F30580043BC858D0503FF7FBAF0A4A68
:103DF0000A4B9B1A40F305800020043BD0503FF74C
:103E0000FCAF0748804707480047000080CD00000E
:103E100000000010BC080010BC080010C42E0010E8
:103E2000E5080000113A0000FEE7FEE7FEE7FEE7C6
:103E3000FEE7FEE7FEE7FEE7FEE7FEE7FEE7FEE75A
:103E4000FEE7FEE7FEE7FEE7FEE7FEE7FEE7FEE74A
:103E5000FEE7FEE7FEE7FEE7FEE7FEE7FEE7FEE73A
:103E6000FEE7FEE7FEE7FEE7FEE7FEE7FEE7FEE72A
:103E7000FEE7FEE7FEE7FEE7FEE7FEE7FEE7FEE71A
:103E8000FEE7FEE7FEE7FEE7FEE7FEE7FEE700BF30
:103E90004BB942B9002908BF002802D04FF0FF31CA
:103EA000084600F03BB882B0EC462DE9005000F027
:103EB0001DF8DDF804E002B00CBC70472DE9F041BC
:103EC0001646984604460D4600F02AF806FB01FC0B
:103ED000A6FB002300FB08C7FB18A21A65EB03032F
:103EE000069CC4E90023BDE8F08100BF2DE9F04144
:103EF000904606460F461D4600F070F900FB05F39C
:103F0000A0FB084508FB0138069B4544341B67EBC2
:103F10000505C3E90045BDE8F08100BF704700BF5B
:103F200000292DE9F00F1D46C0F29D800024002DD0
:103F3000C0F2948080460F4694461E46E3BB8A42F8
:103F400055D9B2FA82F747B1C7F1200520FA05F634
:103F500001FA07F1BA40B8403143170CB1FBF7F64C
:103F60001FFA82FC07FB16110CFB06F5030C43EA53
:103F700001439D4208D9711E9B1880F013819D4218
:103F800040F21081023E9B18591BB1FBF7F507FB6D
:103F900015130CFB05FC80B240EA03418C4507D9A0
:103FA0006B1E8A1880F00081944540F2FD80023D2E
:103FB00045EA0641002503E08B420CD9002529463D
:103FC0000A462B4614B1524263EB4303104619468E
:103FD000BDE8F00F7047B3FA83F5002D40F08780FD
:103FE0008B4201D38242EAD800250121E8E712B9C9
:103FF0000126B6FBF2F2B2FA82F6002E39D18E1A01
:10400000130C1FFA82FC0125B6FBF3F703FB1761C3
:104010000CFB07F84FEA104949EA0146B04506D9BA
:10402000791EB61802D2B04500F2D3800F46C8EB15
:104030000606B6FBF3F103FB11630CFB01FC80B237
:1040400040EA03439C4506D94E1E9A1802D2944575
:1040500000F2C280314641EA0741B1E7E4435242EF
:1040600063EB430366E7404261EB41014FF0FF34ED
:104070005DE7B240C6F1200921FA09F720FA09F9F3
:1040800001FA06F1130CB7FBF3F81FFA82FC03FBED
:1040900018770CFB08F549EA01094FEA194141EA92
:1040A0000747B040BD420AD9BF1808F1FF3680F07B
:1040B0008E80BD4240F28B80A8F10208BF18791BA8
:1040C000B1FBF3F503FB15170CFB05F61FFA89F995
:1040D00049EA07418E4206D96F1E891871D28E4275
:1040E0006FD9023D89188E1B45EA08458CE7C5F15A
:1040F000200122FA01F306FA05F627FA01F207FA7F
:1041000005F720FA01F11E434FEA1649B2FBF9F810
:104110001FFA86FA09FB18220AFB08FB0F433B0C27
:1041200043EA024293450CFA05FC08D9921908F1BA
:10413000FF314AD2934548D9A8F102089219CBEB36
:104140000203B3FBF9F109FB11320AFB01FABFB21A
:1041500047EA02439A4506D94A1E9B1933D29A452B
:1041600031D902399B1941EA08410F0C1FFA8CF82A
:1041700008FB07F68AB24FEA1C4C08FB02F80CFB5E
:1041800002620CFB07FC02EB1842964288BF0CF55A
:10419000803CCAEB03030CEB124C63450ED305D0F5
:1041A00000250DE70E46EFE61D4601E700FA05F093
:1041B0001FFA88F808EB0245A842F1D20139002520
:1041C000FEE63D468FE71146CDE78846B7E7B046A5
:1041D00075E7023FB6182AE702393CE72DE9F007F8
:1041E000144605460E46002B3DD18A4249D9B2FA03
:1041F00082F747B1C7F1200120FA01F206FA07F66B
:10420000BC40BD401643220CB6FBF2F0A1B202FB4B
:10421000106601FB00F32F0C47EA0646B34208D9AB
:10422000471E361980F0FA80B34240F2F780023818
:104230003619F61AB6FBF2F302FB136201FB03F127
:10424000ADB245EA0242914207D95E1E121980F0D2
:10425000E780914240F2E480023B43EA00400021C3
:10426000BDE8F00770478B4243D8B3FA83F4002CC3
:1042700042D18B4202D3824200F2E1800021012030
:10428000EEE712B90127B7FBF2F4B4FA84F2002A80
:1042900040F089800A1B230CA7B20121B2FBF3F680
:1042A00003FB162207FB06F04FEA154C4CEA0242CC
:1042B000904207D9121906F1FF3C02D2904200F257
:1042C000D0806646121AB2FBF3F003FB102307FB03
:1042D00000F7ADB245EA03439F4207D9421E1B19BE
:1042E00080F0A0809F4240F29D80023840EA064064
:1042F000B6E700210846B3E7C4F1200622FA06F724
:1043000003FA04F321FA06F501FA04F120FA06F69D
:104310003B434FEA134CB5FBFCF71FFA83F80CFB49
:10432000175508FB07F946EA010A4FEA1A4141EA24
:104330000545A94502FA04F204D97E1EED18C0F025
:1043400081803746C9EB0501B1FBFCF60CFB161565
:1043500008FB06F81FFA8AFA4AEA0541884503D99C
:10436000751EC91874D32E4646EA0746370C1FFA45
:1043700082FC0CFB07F5120CB3B20CFB03FC02FB36
:10438000035302FB07F203EB1C439D4288BF02F577
:104390008032C8EB010102EB134291424CD343D06F
:1043A000304600215CE79440C2F1200521FA05F671
:1043B00020FA05F501FA02F1230CB6FBF3FCA7B2D3
:1043C00003FB1C6607FB0CF829430D0C45EA064667
:1043D000B04500FA02F508D936190CF1FF303ED28B
:1043E000B0453CD9ACF1020C3619C8EB0602B2FB61
:1043F000F3F003FB102607FB00F889B241EA0642FE
:10440000904506D9461E121927D2904525D9023863
:104410001219C8EB020240EA0C413FE7384608E7B0
:1044200033461AE7104661E700FA04F01FFA8CFCE5
:104430000CEB03439842B3D2701E002110E72146D3
:1044400020460DE7A9457FF67CAF023FED1879E7DE
:10445000884588D9023EC91886E73046D9E78446A0
:10446000C3E7023E12192DE70F2A2DE9F00340F2AF
:10447000A18041EA00039B0740F09E800C68A2F1F6
:10448000100504604B68AC4643608C68BCF10F0FAC
:104490008460CC68C5F30015C46000F1100301F11D
:1044A00010042BD975B12568ACF1100C1D6065683E
:1044B0005D60A5689D60E5681034DD601033BCF177
:1044C0000F0F1BD9276804F110061F60676803F1FE
:1044D00010055F60A768ACF1200C9F60E768DF60A3
:1044E00024691C61776806F110046F60B768203397
:1044F000AF60F668BCF10F0FEE60E3D8A2F11008D0
:1045000028F00F0302F00F0403F1100C032C00EB52
:104510000C0301EB0C0851D9211F4FEA91094446C5
:1045200008EB890C54F8046BC8EB0C010CF1040C7B
:104530001D46644545F8046BC1F3800112D029B1D2
:1045400054F8041B644545F8041B0BD0274657F864
:10455000041B2E4646F8041B64686C603C1D351D28
:104560006445F3D109F1010C4FEA8C0902F0030212
:1045700008EB09014B44D2B10D789A18DC4303F8DB
:10458000015B1419934204F0010410D02CB111F80E
:10459000014F03F8014B934209D04D781C4604F8B3
:1045A000015B8D7802315D70631C9342F5D1BDE8EB
:1045B000F00370470346DEE70346DDE74146224647
:1045C000D9E700BFF0B48407034600F08D80541E85
:1045D000002A00F08780E507CEB211D41A4602F80F
:1045E000016B13461546920710D0621E002C79D03D
:1045F00003F8016B14469A071D4607D0013CEDE70E
:10460000034603F8016B9A071D46F7D1032C52D9D4
:10461000CEB246EA06270F2C47EA07432DD9A4F16C
:10462000100217460F2FC2F300162B606B60AB60B1
:10463000EB6005F1100216D93EB1103F13605360D4
:104640009360D36010320F2F0DD9203F02F1100676
:10465000136053609360D360136153619361D361BE
:1046600020320F2FF1D8A4F1100222F00F0204F033
:104670000F041032032C15441DD9271F3E462A462D
:10468000032E42F8043BC7F380070DD927B1043E3F
:10469000032E42F8043B07D9174647F8043B083E6F
:1046A00053603A1D032EF7D8231F23F00302131D76
:1046B00004F00304ED18ACB1C9B2EA432C1905F8B3
:1046C000011BA318A54203F001020BD01AB105F893
:1046D000011BA54206D02B4603F8011B69705D1C27
:1046E000A542F8D1F0BC7047054614468EE700BFDE
:1046F0000FB410B540F2484382B004ACC1F20003DD
:1047000054F8042B186823468168019401F09CFD3D
:1047100002B0BDE8104004B0704700BF0EB4F0B561
:104720009CB021AC54F8042B40F248436FF0004594
:10473000C1F20003064602A90495079518684FF4D4
:10474000027723464FF6FF75ADF814700296069671
:10475000ADF81650019400F009F8029900220A7091
:104760001CB0BDE8F04003B0704700BF2DE9F04F2A
:10477000C3B08B46109314460C9005F025F90068E1
:10478000002600271490CDE9166706F069FABBF8F9
:104790000C30189003F0800001B221B1DBF810203A
:1047A000002A01F0CA82002732AEDFF82095119767
:1047B0000896259627972697A24619971A970F9736
:1047C0009AF80040002C00F0A281252C00F09F8177
:1047D0000AF1010301E0252D04D01D781C460133A8
:1047E000002DF8D1CAEB04057DB1269A2798531CF9
:1047F0004119072BC6F800A075602791269300F396
:10480000698108360F9F7F190F972078002800F0E4
:104810006981002104F1010A94F801804FF0FF340E
:104820000D918DF8731009910A9420202B210AF123
:10483000010AA8F12002582A00F25D82DFE812F096
:1048400074025B025B027E025B025B025B025B0244
:104850005B025B02B901C5015B024301CA015B0255
:1048600085028C028C028C028C028C028C028C02DF
:104870008C028C025B025B025B025B025B025B02EE
:104880005B025B025B025B02870088015B028801BE
:104890005B025B025B025B02F8015B025B026D0084
:1048A0005B025B025B025B025B0259005B025B0224
:1048B000FF015B025B025B025B025B025B025B026D
:1048C0005B025B025B02E6018B00880188018801C4
:1048D000AA028B005B025B02D7025B029D027100A1
:1048E0001F0234025B02B1025B025D005B025B02ED
:1048F0004802099D45F010020992099B990600F1B2
:104900000882099CE20641F19180109F3D683B1DA1
:1049100010932C460123002516E1099A42F010015C
:104920000991099B13F0200340F00481099C14F0C5
:10493000100040F06187099D15F0400300F05C878E
:10494000109F03463A1D3C8800251092FCE0099D0B
:1049500045F010030993099FBF0640F1DA80109CCF
:10496000E01D20F00705D5E9002308351095144611
:104970001D46002A73F10000C0F2358701230A9F0B
:10498000002F03DB099921F08000099054EA05000B
:1049900040F0EF830A9A002A40F0EB83002B40F0AE
:1049A0005886099BDA0741F1178042AF30210898F9
:1049B00007F8411DC21B0E920A990E9800248842E6
:1049C000B8BF08469DF873300B901291159413B13F
:1049D0000B9B5A1C0B92099810F002010A9102D00D
:1049E0000B9A941C0B94099B13F08400139040F0D5
:1049F00028820D9D0B996D1A002D40F32282102DF7
:104A000041F31482279A269B4CF628401024C0F2CA
:104A1000000086E811001119A7485A1CA5F1110ED3
:104A2000072A1B9027912692CEF3001300F36C8582
:104A30000836103D102D40F3F8818BB101324CF651
:104A400028431031C0F20003072A86E81800279196
:104A5000269200F368850836103D102D40F3E5815D
:104A600033462E463D460C9F13E0083301324CF688
:104A700028401031C0F20000103E072A83E81100E0
:104A80002791269200F3BF81103E0833102E40F389
:104A9000C98101324CF628401031C0F20000072ACB
:104AA00083E8110027912692DFDD3846594625AA72
:104AB00006F006F9E8B92799269A32ABD6E70D9C9D
:104AC000109267420D97099B43F0040209929AF8ED
:104AD0000080ACE60C98594625AA06F0F1F840B9DA
:104AE00032AE8FE6279C24B10C98594625AA06F0D1
:104AF000E7F8BBF80C100F9C01F040031AB2002A33
:104B000018BF4FF0FF34204643B0BDE8F08F544645
:104B10007BE60999CD0600F15986099C640640F1AF
:104B200055861098B0F90040021DE51710922B46EB
:104B300022461EE7109BDF1D27F0070202F1080145
:104B400010910023D2E9004500208DF8730016E78C
:104B5000109DEF1D27F007010D684C68083110917A
:104B600028462146CDE916012146284605F0E8FFF2
:104B700001282146284640F040870022002307F004
:104B8000ADFC002841F0F8819DF8733000274B4AB6
:104B9000099912974A4F03200B90B8F1470FD8BFDD
:104BA000174621F080040320002209940E901592EC
:104BB0000DE7109A109B17681A1D002F0D97FFF62E
:104BC0007EAF9AF80080109231E68DF873109AF853
:104BD00000802CE6544614F8018BB8F12A0F01F03E
:104BE000F482A8F130030022092B01F23E8214F86E
:104BF000018B02EB820703EB4702A8F13003092B7C
:104C0000A246F4D942EAE2740A9412E61099109C82
:104C100008680127221D00230B970E9710928DF82C
:104C2000A0008DF8733028AF002312931593D2E6BD
:104C3000099C44F0080309939AF80080F7E5099964
:104C4000204D8F06199548D5109FFA1D22F00703B5
:104C500003F108041094D3E900450999C80740F10D
:104C6000448454EA050000F04084302041F00207FB
:104C70008DF874008DF875800997022364E7109809
:104C80000999109D071D104841F002034FF0780864
:104C900030222C680993109700258DF874208DF828
:104CA0007580199002234FE7099B43F02002099277
:104CB0009AF80080BBE500BF28CC0000D4CB0000F0
:104CC000D8CB0000E4CB0000F8CB000018CC0000EB
:104CD00009999B4D8F061995B6D40998C50600F120
:104CE0009285099F7C0640F18E85109A0025131D40
:104CF00014881093B1E7B8F1000F3FF4F3AE01222E
:104D000000240B928DF8A0808DF873400E9228AF8E
:104D10008AE7109C0123E01D20F0070505F1080734
:104D20001097D5E900450FE79DF87330002B40F050
:104D300095868DF873009AF8008078E5099C44F018
:104D4000010709979AF8008071E5099F47F08003F1
:104D500009939AF800806AE557460022A8F13005C9
:104D600017F8018B02EB8203A8F13004092C05EB44
:104D70004302BA46F2D90D925BE5099CA40640F1C4
:104D80006186109F0F983B68C417043718605C60F9
:104D9000109715E5099A42F0400309939AF80080AC
:104DA00045E5109B00248DF873401F681D1D002FE2
:104DB00001F0C5800A9938460029C1F202802146D7
:104DC0000A9A05F013F9002801F042810A99C01BE4
:104DD00088420E90129440F3A687129821EAE1745B
:104DE0000B949DF8733010950E911590EFE59AF89D
:104DF00000805246B8F16C0F00F0DE86099F47F044
:104E00001003099313E53846594625AA05F058FFC3
:104E100000287FF46EAE103E102E32AB2799269AF2
:104E20003FF737AE2F4635461E464C191B9B511C8B
:104E3000072986E828002794269100F30F84083676
:104E400000E0279C9DF8730068B1269B0134591C33
:104E500001200DF1730207293260706027942691BA
:104E600000F3058308360A9B63B126990234481C77
:104E700002231DAA0728326073602794269000F34E
:104E800001830836139D802D00F02E82129D0E9B0B
:104E9000ED1A002D75DD102D40F3F385269A1023B1
:104EA00001322848A5F1110EE418072AC6F800902F
:104EB00073600A9027942692CEF3001C00F3AC8214
:104EC0000836103D102D51DDBCF1000F0DD0013220
:104ED0001034072AC6F8009073602794269200F3D6
:104EE000AD820836103D102D40DD31463E460C9F08
:104EF0000EE0083101321034103D072AC1F800904D
:104F00004B60269227941FDC103D0831102D2BDDBD
:104F100001321034072AC1F800904B602794269282
:104F2000E7DD3846594625AA069305F0C9FE069BDB
:104F300000287FF4DEAD279C269A32A9DAE700BF6D
:104F4000F8CB000018CC00003846594625AA069335
:104F500005F0B6FE069B00287FF4CBAD103D102D6A
:104F600032A9279C269AD3DC37460E46501C0A9B52
:104F70006419072886E828002794269000F36C829D
:104F80000836099BDB0500F11E8126980E9A3760D2
:104F9000411C0E9FA418072977602794269100F3DF
:104FA000A8800836099F7B0740F1B1800D9D0B9BBF
:104FB000ED1A002D40F3AB80102D40F3CC872698DE
:104FC0001027431CB2494CF62840A5F1110CE419F6
:104FD000C0F20000072B86E88100099127942693F0
:104FE000CCF3001800F3BB830836103D102D40F3BE
:104FF000AD80B8F1000F11D001334CF628401034C9
:10500000C0F20000072B86E881002794269300F366
:10501000D1830836103D102D40F39880DDF83080A4
:1050200012E0083601334CF628401034C0F200007C
:10503000103D072B86E881002693279477DC103DEE
:105040000836102D40F3828001334CF6284210348C
:10505000C0F20002072B86E8840027942693E0DD47
:105060004046594625AA05F02BFE00287FF441ADA5
:10507000279C269B32AED5E71199269D0134013538
:10508000012940F379840123072D37607360279449
:10509000269500F38784083618990135149A641808
:1050A000072D326071602794269500F388840836B6
:1050B000DDE916010022002307F006FA002840F07F
:1050C000D982119801370138241801353760072D2E
:1050D00070602794269500F3898108361A9F013560
:1050E000E41921AB072D86E88800279426957FF7E1
:1050F00058AF0C98594625AA05F0E2FD00287FF428
:10510000F8AC099F32AE7B07279C3FF54FAF0F9E4F
:105110000B980D9FB842ACBF3618F6190F96002CAD
:1051200040F070810026269632AEFFF749BB40461C
:10513000594625AA05F0C4FD00287FF4DAAC103DDD
:10514000102D32AE279C269B3FF77EAF5A1C099F3D
:105150002C19072A3760756027942692D7DD0C98A2
:10516000594625AA05F0ACFD00287FF4C2AC279C67
:10517000CDE7012B00F0AB81022B0DF1C70E00F043
:105180008C810723E70804EA0300E90847EA45742D
:1051900030300D46C2B254EA050177468EF8002041
:1051A0000EF1FF3EEED109983B46C10706D5302AE5
:1051B00000F096813024774603F8014C0899CA1B09
:1051C0000E92FFF7F9BBB8F1650F7FF755AFDDE938
:1051D00016010022002307F077F9002800F0B281C1
:1051E00026982C49431C01340122072B3160726040
:1051F0002794269300F34A8408361E98119FB842DC
:1052000003DB099BDF077FF5CDAE269A149F189923
:105210003760501C189F64180728776027942690E1
:1052200000F375850836119D013D002D7FF7BAAE5C
:10523000102D40F38682269A119B1027A3F1120E9F
:105240001548531CE419072BC6F8009077600A90A4
:1052500027942693CEF3001800F317860836103DE6
:10526000102D40F37182B8F1000F0ED001331034CD
:10527000072BC6F8009077602794269300F32B86BF
:105280000836103D102D40F35F82DDF8308016E0C7
:1052900028CC000014CC000018CC000008364B1CB1
:1052A0001034103D072BC6F80090776026932794A2
:1052B00000F31E810836103D102D40F34582591C25
:1052C00010340729C6F80090776027942691E5DD11
:1052D0004046594625AA05F0F3FC00287FF409ACA6
:1052E000279C269932AEDAE70D980B99451A002DC6
:1052F0007FF7CCAD102D40F38886269A102301321B
:105300008F48A5F11101E418072AC6F800907360D0
:105310000A9027942692C1F3001C00F31B830836E1
:10532000103D102D4ADDBCF1000F0DD001321034BC
:10533000072AC6F8009073602794269200F324830E
:105340000836103D102D39DD21460C9C0EE0083644
:1053500001321031103D072AC6F800907360269282
:1053600027911ADC103D0836102D26DD0132103150
:10537000072AC6F80090736027912692E7DD204641
:10538000594625AA069305F09BFC069B00287FF44E
:10539000B0AB2799269A32AEDAE72046594625AABD
:1053A000069305F08DFC069B00287FF4A2AB103D10
:1053B000102D32AE2799269AD8DC0C46501C0A9B39
:1053C0006419072886E828002794269000F30983AB
:1053D00008365BE55A480A9001350A9BE419072D07
:1053E00086E88800279426957FF777AE0C98594673
:1053F00025AA05F065FC00287FF47BAB32AE279C24
:10540000269D6BE60C98594625AA05F059FC002804
:105410003FF488AEFFF76DBB0C98594625AA06935A
:10542000CDF81CC005F04CFC069BDDF81CC0002824
:105430007FF45FAB32AE279C269A42E50C98594622
:1054400025AA069305F03CFC069B00287FF451AB8F
:1054500032AE279C269A45E50C98594625AA05F0B8
:105460002FFC00287FF445AB279C32AE89E50C98D1
:10547000594625AA05F024FC00287FF43AAB279C66
:1054800032AEF0E40C98594625AA05F019FC002824
:105490007FF42FAB279C32AEF4E419990B960F26BC
:1054A00004EA060327092809CA1847EA057416788A
:1054B000054654EA050077468EF800600EF1FF3E7F
:1054C000EDD108990B9ECB1B0E93FFF775BA002DFB
:1054D00008BF0A2C80F04F8142AF303407F8414DAD
:1054E000089CE21B0E92FFF767BA0223FFF72CBB62
:1054F0004046594625AA05F0E3FB00287FF4F9AAA7
:1055000032AE279C269BD6E60C98594625AA0693D0
:1055100005F0D6FB069B00287FF4EBAA32AE279954
:10552000269AFFF786BA0C98594625AA05F0C8FBBB
:1055300000287FF4DEAA32AE2799269AFFF78CBAAC
:1055400018CC00001E9A002A40F3B282119D1599D2
:10555000119B8D42A8BF0D46FA18002D0A920ADD54
:1055600026986419411C0729376075602794269195
:1055700000F37F840836159B25EAE5755D1B002D39
:1055800040F35681102D40F36D8226984FF010089D
:10559000431CA14AA5F111014444072BC6F8009011
:1055A000C6F804800E9227942693C1F3001C00F3E2
:1055B0004F840836103D102D40F35782BCF1000F88
:1055C0000FD001331034072BC6F80090C6F80480C2
:1055D0002794269300F38C840836103D102D40F359
:1055E000448221460C9C12E006F108000133103180
:1055F000103D072BC0F80090C0F804802693279137
:105600001BDC00F10806103D102D40F30D84013322
:105610001031072BC6F80090C6F804802791269316
:10562000E2DD2046594625AA05F04AFB00287FF412
:1056300060AA2799269B32A8D8E72046594625AA72
:1056400005F03EFB00287FF454AA32AE2799269B32
:10565000D9E70A9C32AF0E94FFF7AEB90C985946C1
:1056600025AA05F02DFB00287FF443AA279C32AE23
:10567000FFF7E8BB119F013F002F7FF72FAD102FE1
:105680007FF7A8AE119B4FF0100801356249123B1D
:105690004444072DC6F80090C6F804800A91279468
:1056A0002695C3F3001300F3B1830836103F102F83
:1056B0007FF792AE7BB101351034072DC6F800900C
:1056C000C6F804802794269500F3B6830836103F69
:1056D000102F7FF781AE22460C9C10E00836013572
:1056E0001032103F072DC6F80090C6F804802792AC
:1056F00026951ADC0836103F102F40F35F830135E2
:105700001032072DC6F80090C6F80480279226951F
:10571000E4DD2046594625AA05F0D2FA00287FF498
:10572000E8A9279A269D32AED9E72046594625AAF0
:1057300005F0C6FA00287FF4DCA932AE279A269D30
:10574000D9E73549269B0A9101330A9F6419072B33
:1057500037607560279426937FF723ACC9E40C98D3
:10576000594625AA05F0ACFA00287FF4C2A932AE4A
:10577000279C269B39E40DF1C70C0B966646204604
:1057800029460A220023FEF783FB3032327020467E
:1057900029460A220023FEF77BFB04460D463746C6
:1057A000013E54EA0500EAD108990B9ECB1B0E93EB
:1057B000FFF702B90C98594625AA05F081FA00288E
:1057C0007FF497A932AE279C269B23E4109D2B687B
:1057D000291DDD171A461C462B46002A73F10000CE
:1057E0001091BFF6CBA82D22644265EB45058DF8DC
:1057F00073200123FFF7C3B810990D1D0C68109595
:105800000025FFF7A1B9109C2568201D10902C469B
:105810000025FFF722BA00BF18CC00000C985946AB
:1058200025AA05F04DFA00287FF463A9279C32AE23
:105830001E9B1198159983420F4470DB099AD1077A
:105840006DD40A9D119AED1BD31AAB42B8BF1D4609
:10585000002D0ADD26996419481C072837607560F9
:105860002794269000F35D83083625EAE5755D1BD5
:10587000002D7FF797AB102D7FF763AF269A102787
:10588000531C8849A5F11108E419072BC6F80090AC
:1058900077600A9127942693C8F3001800F33583A4
:1058A0000836103D102D7FF74FAFB8F1000F0ED026
:1058B00001331034072BC6F80090776027942693A5
:1058C00000F34E830836103D102D7FF73DAFDDF815
:1058D00030800FE00836431C1034103D072BC6F80B
:1058E000009077602693279428DC0836103D102D11
:1058F0007FF72AAF581C10340728C6F8009077604D
:1059000027942690E6DD4046594625AA05F0D8F9A9
:1059100000287FF4EEA8279C269832AEDBE7269875
:105920001899421C641818981499072A31607060FD
:105930002794269200F3B682083682E740465946FD
:1059400025AA05F0BDF900287FF4D3A832AE279C24
:10595000269BCBE70C98594625AA0693CDF81CC088
:1059600005F0AEF9069BDDF81CC000287FF4C1A845
:1059700032AE279C269AD3E4099AD2073FF583AB2F
:1059800037600120FFF7A3BB0C98594625AA069360
:1059900005F096F9069B00287FF4ABA832AE279C51
:1059A000269ACEE40C98594625AA05F089F90028D4
:1059B0007FF49FA8279C269D32AEFFF76DBB0C9805
:1059C000594625AA05F07CF900287FF492A8279C67
:1059D000269D32AEFFF76CBB0A9F0E9732AFFEF7E3
:1059E000EBBF0C98594625AA05F06AF900287FF408
:1059F00080A8279C32AEFFF749BA05F0A1F800282D
:105A000040F0E4800327099A274B0B97274F22F099
:105A100080010324B8F1470FD8BF1F4612900991A7
:105A20009DF873300E941590FEF7D1BF09994B067F
:105A300040F1B281109A0123111D148800251091A4
:105A4000FFF782B8099FF80640F1AB81109C0F9ACE
:105A50002168271D10970A60FEF7B2BE9AF80080F1
:105A6000FEF7E5BE0F4A269B0E925A1C0E9964194A
:105A7000072A86E82200279426923FF7CFAE083601
:105A8000D6E60849269A0A91FFF770BA0C9859464B
:105A900025AA05F015F900287FF42BA8279C32AE23
:105AA000FFF7ABBB18CC0000DCCB0000E0CB000064
:105AB0002699B74B481C01340121072833607160D7
:105AC0002794269000F3498108362AB9119818B90D
:105AD000099BD8077FF566AA26981899431C641875
