:100000000000011075390000C5390000C739000033
:10001000C9390000CB390000CD39000000000000D4
:100020000000000000000000000000004D0A000079
:10003000D139000000000000850A0000C10A00005C
:10004000D9390000DB390000DD390000DF3900005C
:10005000E1390000E3390000E5390000E73900002C
:10006000E9390000EB390000ED390000EF390000FC
:10007000F1390000F3390000F5390000F7390000CC
:10008000F9390000FB390000FD390000FF3900009C
:10009000013A0000033A0000053A0000073A000068
:1000A000A52700000B3A00000D3A00000F3A0000AF
:1000B000113A0000133A0000153A0000173A000008
:1000C000193A00001B3A00001D3A00001F3A0000D8
:1000D000213A0000233A0000253A0000273A0000A8
:1000E000293A0000002902DA4A4210127047084BF0
:1000F000B0FBF3F048434FF47A71B0FBF1F3FF33F8
:10010000180A90428CBFC2EB00000020704700BF6D
:1001100040420F00F8B5164604460D460F460B4602
:100120000022D86B93F838E0000100F4706004EB13
:10013000421140EA0E00C1F80401186C013210337C
:10014000042AC1F80001ECD16B68A968A3620122FE
:100150003046FFF7C7FFE968206301223046FFF70A
:10016000C1FF2969606301223046FFF7BBFF69695F
:10017000A06301223046FFF7B5FFA969E0630022C2
:100180003046FFF7AFFFE969206401223046FFF7F0
:10019000A9FF296A606401223046FFF7A3FF696A5C
:1001A000A06401223046FFF79DFFA96AE0640122A6
:1001B0003046FFF797FFE96A206501223046FFF7D6
:1001C00091FF296B606501223046FFF78BFF40F2FB
:1001D0008311A065022240F2031021622968206287
:1001E000626230460022FFF77DFF0F308321030952
:1001F000636221620021386CC0F3C112022A0AD066
:10020000012A03D1C0F38123083307E02AB9C0F3E0
:100210008123093302E0082300E00023DAB243041B
:1002200001D5023200E001327B6B23B1F86B00FA9A
:1002300002F213431B68013110370429DBD100207F
:100240002062D4F8002142F40023C4F80031D4F82D
:10025000201141F40020C4F82001D4F8402142F4D8
:100260000023C4F84031D4F8601141F40020C4F8F0
:100270006001F8BD70B50D784B6800EB45150C4674
:1002800016468968C5F8003210460122FFF72AFF9A
:10029000E168C5F8040200223046FFF723FF216918
:1002A000C5F8080201223046FFF71CFF6169C5F856
:1002B0000C0201223046FFF715FFA169C5F81002B4
:1002C00002223046FFF70EFFE169C5F81402012251
:1002D0003046FFF707FFC5F8180270BD002A14BFAB
:1002E0004FF480720022002B0CBF134642F0010332
:1002F000003118BF0121836001607047836843F0BB
:100300000201816082689207F8D5836803F01101C9
:10031000816082689307F8D47047836810B503F052
:10032000120181608268044642F010038360FFF787
:10033000E5FF0320206021680029FCD1FF22E16055
:100340002261216410BD012907D1826842F00103B6
:1003500083608168C907F8D57047836803F012018C
:100360008160704710B5FF22036A9A420DD0026A7D
:1003700001230A6003F1080450F8244041F82340A7
:100380000133DBB2082BF5D1EEE710BD10B5002329
:1003900051F8232003F118040133DBB2082B40F895
:1003A0002420F5D110BD82B0019B072383604269F0
:1003B000D20702D503680193F9E7042906D1012386
:1003C000C36542699306FCD50023C3650022012959
:1003D0004260C260026201D0042908D10129C264CE
:1003E0004265026503D1002101618369019342697D
:1003F00010210192816202B070472DE9F04F8BB05D
:100400000D46099211091207039102920446DDE993
:100410000201CDE906014FF0FF33002608950127C0
:1004200005934FF0000A4FF0000BB1464FF0000C5F
:10043000E046089A00236244DDE90601CDF804C0D5
:1004400004F02CF8B0F1004FDDF804C001D94042AF
:1004500001314B1EB3F5803F09D2059A904206D276
:100460008A464FF0000BE0B105903E46C14608F1C8
:100470000108B845AC44DCD3059971B1089801373F
:1004800043190893DDE90201DDE90623121843EB65
:100490000103102FCDE90623C8D15AEA0B0135D04C
:1004A00001E03E46C146099A06EB09011009A1FB8D
:1004B0000A23704301FB0B33002103F0EFFF854259
:1004C0008CBFC0EB0500C5EB000064235843B0FBB4
:1004D000F5F5022D1AD8E0684FEA1A2140F08002A3
:1004E00041EA0B63FF20E260034000EA0A02636016
:1004F0002260E1683601F0B209F00F0940EA09060E
:1005000001F07F03E3600120A66200E000200BB051
:10051000BDE8F08F10B5C4680A4304F0C00413436B
:100520001C43C46010BD436913F0200202D0016077
:100530000120704710467047012A03D1042906D1D3
:10054000C2657047042902D1C36D0023C36570479B
:10055000074B021D520110B59C5803EB401021437C
:100560009950AA215523C0F88C10C0F88C3010BDCA
:1005700000C00F40084B021D520110B59C5803EB00
:10058000401024EA01019950AA235522C0F88C306A
:10059000C0F88C2010BD00BF00C00F40084B10B544
:1005A000041D41EA421203EB4414626003EB401065
:1005B000AA215522C0F88C10C0F88C2010BD00BFB5
:1005C00000C00F40012101FA00F0034BD3F8C42012
:1005D0000243C3F8C420704700C00F40054B0128F8
:1005E000D3F804210CBF42F4807222F48072C3F865
:1005F0000421704700C00F40024BD3F80401C0F340
:100600000020704700C00F40044BD3F8042102F4CF
:1006100080710843C3F80401704700BF00C00F4059
:10062000044BD3F8082122F4407141EA0020C3F8BA
:100630000801704700C00F40044BD3F8082122F096
:100640001F010843C3F80801704700BF00C00F40F6
:10065000054B064AD3F80C0100F00301012994BFB1
:1006600010460020704700BF00C00F40001BB700BD
:10067000074B10B5D3F8880010F4807007D0D3F87A
:100680008440FFF7E5FF04F01F014C1C604310BDE0
:1006900000C00F4008B5FFF7AFFF28B1012807D110
:1006A000BDE80840FFF7E4BFBDE80840FFF7D0BF52
:1006B000002008BD08B5FFF7EDFF044BD3F8041187
:1006C00001F01F02B0FBF2F008BD00BF00C00F40F8
:1006D000064B10B5D3F8A84114F01F0404D0FFF75F
:1006E000D9FFB0FBF4F010BD204610BD00C00F4094
:1006F00010B50446FFF7DEFF054BD3F80021511C6F
:10070000B0FBF1F203482146BDE81040FFF702BDFF
:1007100000C00F4000C0092010B50446FFF7CAFF13
:10072000054BD3F80021511CB0FBF1F203482146E0
:10073000BDE81040FFF79EBD00C00F4000C009207B
:1007400010B504460920FFF73DFF2046BDE81040E4
:10075000FFF7E3BD4209012300F01F0003FA00F197
:1007600004489200131859605A6822EA010159603E
:10077000704700BFC8C10F40094B98420AD003F52B
:100780000821884208D001F58042904214BF012020
:10079000172002E0022000E01620FFF713BF00BF81
:1007A000008000400B4B98420ED003F580418842F8
:1007B0000CD001F5082290420AD002F580439842FD
:1007C00014BF0420032070470020704701207047A9
:1007D0000220704700C0004038B50446FFF7E2FF32
:1007E0000F4B05469C420DD003F5082084420BD0E8
:1007F00000F580418C4209D00A4A944214BF03207C
:10080000082004E0042002E0182000E01920FFF78F
:10081000D9FE20462946BDE83840FFF7C4BD00BFD9
:100820000000014000400A4038B504460D46FFF77D
:100830004FFF294602462046BDE83840FFF7DDBDA0
:1008400038B50C460546FFF7ADFF2246014628465F
:10085000BDE83840FFF770BE08B5FFF72BFF014B2E
:10086000186008BDECB6001038B50C4B0C4C0125D7
:100870009D602046DD60FFF7AFFF20464FF4E13179
:10088000FFF7D2FF0022204603211346FFF742FE66
:1008900020462946BDE83840FFF7D2BF00C00240DD
:1008A00000C0004010B5044603482146FFF73BFE58
:1008B0000028F9D010BD00BF00C0004070B50E4642
:1008C00015460024AC4204D2305DFFF7EBFF013443
:1008D000F8E7284670BD000008B5FFF7C5FFFFF731
:1008E000BBFF094B1A6842F080601860996941F0BB
:1008F00080629A61186840F0006119609A6942F05C
:100900000060986108BD00BF40800920704700006A
:1009100038B5474C0020C4F80C01FFF75FFE0323F5
:100920002020C4F8B031C4F8A001D4F8A0114A06C0
:10093000FBD53F4A01250020C2F80C51092102468F
:10094000FFF72CFE00202946FFF702FE0022284672
:100950001321FFF723FE29462846FFF7F9FD022061
:10096000FFF75EFE0520FFF767FE28462946FFF7E2
:1009700001FE2F4CD4F888305B05FAD50120FFF733
:1009800043FE0120FFF72AFE0220C4F8A8010B2035
:10099000FFF718FE2020FFF7DDFE0322002505EB00
:1009A00042132449013540F20124202D41F823400F
:1009B000F5D10132052AF1D1102303F140050133AD
:1009C00040F20120202B41F82500F6D11A4B03F10B
:1009D000E8050833AB420BD013F8084C13F8070CAA
:1009E00053F8041C00EB4412124C44F82210F0E7B8
:1009F0000F4C4FF007310125C4F8DC110B20C4F86F
:100A00000051FFF7A7FE0022134629460B48FFF7C7
:100A100065FC0B48FFF76CFE0A48FFF77DFE0A48AD
:100A2000FFF77AFED4F8A0212A43C4F8A02138BDEC
:100A300000C00F4000C00240A0AC000000C0092070
:100A4000ECAB000080AC000060AC0000064B196805
:100A50000868B0E8F00F80F309884FF0000080F3D9
:100A600011884EF00D0E70476C090010EFF31180E5
:100A70004FF0280181F311887047002080F311881E
:100A800070470000EFF309800C4B1A6820E9F00F63
:100A900010602DE908404FF0280080F3118800F025
:100AA000AFF84FF0000080F31188BDE808401968E6
:100AB0000868B0E8F00F80F3098870476C090010EF
:100AC00008B5084B08484FF080521A600168074A81
:100AD0001160FFF7CBFF00F029F80020BDE80840C7
:100AE000FFF7CCBF04ED00E0BC08001014E000E00C
:100AF00043685A688B604A605A68916059604160E7
:100B0000086101684B1C03607047436882689A6003
:100B10008268536003695968814208BF5A600022A5
:100B200002611868411E19601868704738B52B4B70
:100B3000186800284CD12A4801684A1C02600368E2
:100B4000ABB9284B284A1968106818601160274A09
:100B50001168481C10601A682548116811B94FF0D7
:100B6000FF3303E01B68DA68D1684B6803601C48F8
:100B70001F4902680B689A422ED31A48026811680E
:100B800019B94FF0FF331A4925E00468144AE368A5
:100B9000DC6811686068814202D2154B186038BD6C
:100BA000251D2846FFF7B1FFA36A1BB104F1180009
:100BB000FFF7ABFF0F48E36A0268934288BF036008
:100BC0000D48142101FB03002946FFF791FFD4E7EC
:100BD0000A490A68531C0B6038BD00BF7009001039
:100BE00074090010C408001078090010680900108A
:100BF000000000107C090010C8080010C008001098
:100C0000104B186810B101210F4819E00F4A104924
:100C1000106814235843085818B91368591E1160F6
:100C2000F4E7126803FB021303F1080259684868ED
:100C30009042586004BF406858605B680548D968B6
:100C40000160704770090010800900107C090010D5
:100C5000C80800106C09001070B5D0B90E4C267889
:100C6000012E14D100F08CF802F0ECFD0B4D267033
:100C7000286002F0EBFD286802F0F8FD18B908487A
:100C800004F03CF803E0237803F0FE0020702078A5
:100C900070BD012070BD00BF040000108409001069
:100CA00080AD000010B51446002826D1144B1878EA
:100CB000C30720D4032920D8DFE801F0020C121862
:100CC00010483221006802F049FED0F1010038BF1F
:100CD000002010BD0B4B186802F002FE206008E0F7
:100CE000084A106802F002FE208002E04FF48051B2
:100CF0001160002010BD032010BD042010BD00BFF6
:100D0000040000108409001010B51C4668B963B1D6
:100D100008480078C0070AD40748006802F0ECFDD4
:100D2000D0F1010038BF002010BD042010BD032009
:100D300010BD00BF040000108409001010B9024B60
:100D400018787047012070470400001010B51C4649
:100D500068B963B108480078C0070AD4074800683A
:100D600002F0E6FDD0F1010038BF002010BD0420E4
:100D700010BD032010BD00BF040000108409001046
:100D800030B50F4D2C6889B0B4B90E48FFF7D8FCC8
:100D90001F2040F2DD71142300940194039001247C
:100DA00007910848029369460694FFF7EFFA054851
:100DB0002146FFF7C8FA2C60012009B030BD00BF02
:100DC000880900100040024010B588B0044669460A
:100DD0000948FFF7C7FA009B01980299E371A071D7
:100DE00061710698049A039B0799A0702271E370C1
:100DF0002180012008B010BD0040024007B56846C0
:100E0000FFF7E2FF9DF802309DF80320580540EA05
:100E100002419DF805209DF8060041EAC22343EAFD
:100E200040119DF80720BDF8000041EA5203A0F2EE
:100E3000BC7143EA41600EBD10B50023934203D05C
:100E4000CC5CC4540133F9E710BD08B5036873B135
:100E50001A7862B1D9888088814208D15878FFF722
:100E60006DFF10F0010F0CBF0020032008BD09200A
:100E700008BD2DE9F041C56A8D4204460E4602D1F7
:100E80000020BDE8F081037913B9002EF8D01FE0EF
:100E900000F13008414640782A460123FFF756FF0B
:100EA00010B10120BDE8F0812071E269206A1118BB
:100EB0008D42EAD2E778012FE7D9E3696078ED182F
:100EC00041462A460123013FFFF740FFFFB2F2E708
:100ED000607804F1300132460123FFF715FF002846
:100EE000DFD1E662BDE8F08138B500210446FFF7A6
:100EF000C0FF0346002B50D12278032A45D16079E8
:100F0000002842D0E36204F130010025CD540133C2
:100F1000B3F5007FF9D1522384F8303084F83130B2
:100F20006123AA2084F8323084F81732236984F8C8
:100F30002F027220552284F8140284F81502180C2E
:100F400084F82E2284F81A024122E06884F83320C3
:100F500084F8162284F81832C3F307221B0E84F893
:100F6000192284F81B32C0F30722030C84F81C02F8
:100F7000000E84F81D2284F81E3284F81F02626974
:100F800060780123FFF7E2FE6571002160780A4670
:100F9000FFF788FE003018BF012038BDCA7E8B7E67
:100FA000032843EA022305D1487D097D41EA002256
:100FB00043EA02431846704710B504460A46407893
:100FC00004F130010123FFF79FFE80BB94F82F222C
:100FD00094F82E3243EA0221174B0AB29A4228D1E2
:100FE00094F8682094F86910130494F8662043EA92
:100FF000016194F86730114341EA03210F4B21F05E
:101000007F429A4216D094F8840094F88510020426
:1010100094F8820042EA016194F88320014341EA96
:10102000022121F07F40C01A18BF012010BD03200B
:1010300010BD022010BD00BF55AAFFFF464154005D
:101040002DE9F041154602681378303B092B05D88D
:1010500054783A2C02D10232026000E000230020D2
:101060000860002B40F05981B54C2468002C00F03A
:1010700057810C60217881B16078FFF75FFEC1076E
:101080000BD4002D00F04F8100F00401C8B20028FD
:1010900014BF0A200020BDE8F0810020207060709D
:1010A000FFF7DAFDC20700F141812DB100F0040322
:1010B000DAB2002A40F03D8100212046FFF77CFF94
:1010C000012818D194F8F20110B90D20BDE8F08183
:1010D00094F8F86194F8F91194F8F601330443EAAE
:1010E000016294F8F711024342EA01262046314694
:1010F000FFF762FF00E00026032800F01D810028B2
:10110000E3D194F83C2094F83B3043EA0220B0F558
:10111000007FDAD194F8475094F8461051EA05213F
:101120000DD194F8563094F8572094F854101804C0
:1011300040EA026594F855200D4345EA022194F8EF
:101140004050E1616B1E012BE570BED894F83D2044
:10115000A270002AB9D0501E1042B6D194F84200B5
:1011600094F8413043EA002398B21B072081ACD1A8
:1011700094F8447094F8433053EA07230DD194F85F
:10118000523094F853701B0443EA076394F850708C
:101190003B4394F8517043EA072394F83F8094F856
:1011A0003E7057EA082890D005FB01FC08EB1017A9
:1011B0006744BB4289D3DB1BB3FBF2F3002B84D023
:1011C00040F6F575AB4206D94FF6F57293428CBFE7
:1011D0000325022500E001250233BF1906EB0802B2
:1011E000032DA361A762226213D100287FF46DAFA3
:1011F00094F85E2094F85F00120442EA006294F8CA
:101200005C00024394F85D0042EA002262629800AA
:101210000FE000283FF459AF0CEB0200022D606292
:1012200001D1580005E003225A4303F0010303EB08
:10123000520000F2FF13B1EB532FFFF446AF002032
:101240004FF0FF31032D2161E0605AD194F8612005
:1012500094F86030607143EA02217218626160782C
:1012600004F130010123FFF74FFD002849D194F824
:101270002F0294F82E2242EA0023324819B281420A
:101280003FD194F8322094F83330110441EA0360DE
:1012900094F8303094F83120184340EA02212A486B
:1012A00081422ED194F8162294F81732110441EAA3
:1012B000036094F8143294F81522184340EA02218E
:1012C000224881421DD194F81E3294F81F2219043D
:1012D00041EA026094F81C2294F81D32104394F8FD
:1012E0001A2240EA032194F81B02E160130443EA46
:1012F000006194F8180294F81922014341EA02238C
:101300002361134925700888421C93B200200B808A
:10131000E380E0622071BDE8F0810B20BDE8F08140
:101320000C20BDE8F0812846BDE8F0810320BDE82F
:10133000F0810A20BDE8F0810120BDE8F08100BF06
:101340009009001055AAFFFF52526141727241612B
:101350008C090010836902399A1E914204D2827866
:10136000806A02FB01007047002070470129F8B530
:1013700004460D465CD98369994259D20178022905
:1013800028D0032937D001294FD1026A05EB550631
:1013900002EB5621FFF76DFD002846D1F005236AC8
:1013A00004EBD0570136204603EB562197F83070F6
:1013B000FFF75FFD002838D1F60504EBD654EB07A4
:1013C00094F8301047EA012201D51009F8BD100544
:1013D000000DF8BD026A02EB1521FFF74AFD20BBA4
:1013E0002D06ED0D6319641993F8301094F831004F
:1013F00041EA0020F8BD036A03EBD511FFF739FD80
:1014000098B96D06ED0D05F1300163186419D878AF
:101410009A785B78010641EA024294F8301042EA79
:101420000320084320F07040F8BD4FF0FF30F8BDB6
:101430000120F8BD70B504460D46E18081680129A0
:1014400001D1022070BD03689A699142F9D271B945
:101450001878032801D1596A49B919890020A9428D
:10146000E060EED95B6A03EB1512226119E09E7809
:101470003601B5420ED32068FFF778FF421C0146C3
:1014800018D00128DDD923689A699042D9D2AD1BC2
:10149000ADB2EEE7E1602068FFF75CFF00EB1511ED
:1014A000216105F00F0520686D013035411961613A
:1014B000002070BD012070BD0129F8B504460D461D
:1014C000164670D9836999426DD2017802293AD0C3
:1014D000032949D0012962D1026A05EB550702EBC5
:1014E0005721FFF7C6FC00285AD1F805C20D15F0A8
:1014F0000105F3B207D0A11891F8300000F00F01F8
:1015000041EA0313DBB2A218216A82F830300120CD
:101510000137207101EB57212046FFF7AAFC002874
:101520003ED1FF05FA0D15B1C6F3071607E0A31863
:10153000C6F3032693F8301021F00F073E43A71897
:1015400087F830602CE0036A03EB1521FFF791FC6C
:1015500030BB2D06EA0DA1180D4681F83060C6F3A8
:10156000072681F831601BE0026A02EBD511FFF714
:1015700080FCA8B96D06E90D01F13003E318651888
:10158000DA78120602F070410E4385F83060C6F337
:101590000722310C360E5A709970DE7000E002207E
:1015A00001232371F8BD0220F8BDF8B505460F46AA
:1015B00031B9C6686EB18069864228BF012609E04C
:1015C000FFF7D4FE01283BD9AB69984239D33E4698
:1015D00000E001263446A96901348C4204D3012E6F
:1015E00001D80020F8BD022428462146FFF7BEFEA0
:1015F00048B1431C02D14FF0FF30F8BD01281FD085
:10160000B442E8D1EDE7284621466FF07042FFF77B
:1016100053FF98B947B92A69EC60511C0CD0531E8E
:1016200001202B61687107E0284639462246FFF702
:1016300043FF0028EFD001E02046F8BD0128DAD0B2
:101640000120F8BD2DE9F843C6880446701C86B217
:101650000F4616B90420BDE8F8832369002BF9D0A2
:1016600016F00F085CD1591C2161E168206819B996
:101670000289B242EED953E08278531E13EA161261
:101680004ED1FFF773FE0128054602D80220BDE8BF
:10169000F883411C02D10120BDE8F88320688169EC
:1016A0008D4237D3002FD5D0E168FFF77EFF054686
:1016B000002841D00128E9D0421CECD0206800214C
:1016C000FFF7D7FB0028E6D12268303200271754F5
:1016D0000130B0F5007FF9D1D4F800902946484692
:1016E000FFF738FEC9F82C0020688378BB420ED97A
:1016F0000122027120680021FFF7BBFB0028CAD13C
:101700002068C36A0137591CC162FFB2ECE7C16AA5
:10171000CF1BC762E56020682946FFF71BFE2061EA
:101720002068E6804FEA481808F1300800EB08030B
:1017300063610020BDE8F8830720BDE8F88300005E
:101740002DE9F0410B782F2B04460E4601D05C2B7F
:1017500000D101360025A56030781F2853D82046D7
:101760002946FFF767FE6561BDE8F0815C294AD034
:10177000A56900262022AA5501360B2EFAD1002297
:1017800094460821104617F80C30202B0CF1010666
:101790003FD8BE19202B94BF04230023002A00F059
:1017A000A3802A78E52A01D105222A70082901D1CF
:1017B0008100C8B200F0030200F00C01012A08BF4A
:1017C00043F01003042908BF43F00803EB722046DE
:1017D0000021FFF72FFE002859D0A169CB7A0028FD
:1017E00074D103F00402D1B2002940F09B806169FA
:1017F000C87A00F01003DAB2002A72D0256828787F
:10180000FFF7CCFBA0603178374601362F29ADD1E8
:10181000F9E72F2BBDD05C2BBBD02E2B7BD08A427F
:1018200062D203F17F0813F0800F5FFA88F818BFC7
:1018300040F00300B8F11E0F06D903F120085FFA4B
:1018400088F8B8F11C0F18D817F806800CF10206BA
:10185000A8F1400CBCF13E0F04D988F0800CBCF11B
:101860007C0F41D801F1FF3C62453DD2AB54AB182F
:10187000023283F80180B44685E7DFF8AC8018F8BF
:1018800001CFBCF1000F32D09C45F8D12CE020688C
:101890002169FFF7EEFA00289FD1626913789BB1A6
:1018A000D17A01F00803D9B249B9A7690346D55CDA
:1018B000F95C01338D4202D10B2BF8D18DE7204624
:1018C0000021FFF7BFFE86E7042086E7042829D120
:1018D00003F00401C8B2002814BF04200520BDE8AD
:1018E000F0810520BDE8F0810620BDE8F081A3F17C
:1018F000410CBCF1190F02D840F0020008E0A3F13E
:10190000610CBCF1190F03D8203B40F00100DBB2A1
:10191000AB540132AFE70829E6D180000A46C0B2D5
:101920000B21A8E7BDE8F0819CAD000038B500218F
:101930000446FFF77FFD054618BB20682169FFF7C5
:1019400098FA0546E8B963691878E52805D020B10A
:1019500020460121FFF776FEEDE720682169FFF7B9
:1019600088FA054668B96069294600224254013167
:101970002029FAD1A1690B22FFF75EFA2368012022
:101980001871284638BD012970B504460D4622D984
:10199000836999421FD2A069854205D22046294613
:1019A000FFF7E4FC064608B9002070BD012812D0FC
:1019B000411C0ED0204629460022FFF77DFD58B974
:1019C00021694A1C03D04A1C0125226165713546F4
:1019D000E1E7012070BD022070BD000048B9064A51
:1019E000136803B1187009B100200870116000205D
:1019F00070470B20704700BF900900102DE9F04799
:101A00008CB0164601910546002800F09680002310
:101A1000036005A901A802F01E02FFF711FB804632
:101A2000002840F0938002A80B90019905A8FFF7C9
:101A300087FE0A9C18B9002C0CBF0620002016F067
:101A40001C0F06F01F0748D048B1042802D105A892
:101A5000FFF76CFF47F008070A9C48B175E0E07A91
:101A600010F0110F70D106F00401CEB2002E67D134
:101A700007F00802D3B2002B3DD0FFF7BFF9C0F347
:101A80000726A073E673010C0026000EDDF8149003
:101A90002174E67226776677A677E677607499F800
:101AA00000002146FFF77AFA0122A676E67626752F
:101AB000667589F804200646E8B148463146D9F8EB
:101AC0002CA0FFF760FF00283FD10598013EC660BB
:101AD0005146FFF7CEF970B137E0002835D1E17AF1
:101AE00001F01002D3B2002B2CD106F00206F6B2A0
:101AF0000EB1C80728D407F00803D9B209B147F0DE
:101B00002007059EF06A2C62E861AF7130782146AB
:101B1000FFF744FA2861A37FE27F190441EA0260DB
:101B2000227F637F2E601043F28840EA0321002069
:101B3000E960A860A861AA8008E04FF0090805E004
:101B4000082002E0042000E00720804640460CB058
:101B5000BDE8F0872DE9F74F9A460023CAF8003018
:101B6000044688461746FFF770F90546002840F0FE
:101B7000A080A179080600F19980C90740F19880FA
:101B8000E068A268861AB74238BF3E46002E00F0D1
:101B90009080A168CB0570D1206883785A1E02EA34
:101BA000512313F0FF030CD109B9206904E06169E6
:101BB0000193FFF7DBFB019B01280BD9421C55D099
:101BC0006061D4F800B0616901935846FFF7C2FB29
:101BD000019B20B9A07960F07F03A37166E05FEA02
:101BE000562900EB030724D09BF8022009EB0300E1
:101BF000904288BFC3EB020941469BF801003A4678
:101C00005FFA89F3FFF780F8A17980BB01F040010A
:101C1000CBB25BB1A269D71B4F4507D208EB472077
:101C200004F124014FF40072FFF706F94FEA492747
:101C300031E0A269BA421FD0A07900F04001CBB2D6
:101C40005BB104F124019BF801000123FFF77EF84A
:101C5000A17960B921F04002A27121463A4651F8BB
:101C6000240B01234078FFF74FF828B1A17961F0E8
:101C70007F05A57101251CE0A761A768F905CB0DBB
:101C8000C3F50077BE4238BF3746E11840462431DD
:101C90003A46FFF7D1F8A068DAF80030C119DA192E
:101CA000A160B844CAF80020F61B6FE7022500E0E7
:101CB00007252846BDE8FE8F70B50446FFF7C5F836
:101CC00000284ED1A37903F02002D1B2002948D0D8
:101CD00003F04000C3B26BB12146012351F8242B1D
:101CE0005078A269FFF732F8002839D1A67926F09A
:101CF0004001A1712068E169FFF7BBF80646002E9C
:101D00002FD1256AE87A40F02003EB72E2682A7747
:101D1000A189080A6877E389AB77E27BEA772169D2
:101D20000B0C1A0AC1F30720A9762B756A75E876A1
:101D3000FFF764F8A875030CC0F30721000EE975DE
:101D400068762B76AE74EE74A2792368012022F0B7
:101D50002001A17118712068BDE87040FFF7C4B878
:101D6000012070BD10B50446FFF7A6FF00B9206042
:101D700010BD0000030A0B70C3B21370087808B1DD
:101D80001F207047072BFBD8034A02EB431191F841
:101D90009033DB07F4D570470000002070B50022B7
:101DA0000646154D05EB821404F5907494F8201046
:101DB00011F0010104D00132042AF2D1182070BDC3
:101DC0004022204602F004FF94F820302168A684C7
:101DD00043F001000E2206F11C0384F8200062F398
:101DE0001F7105EB43102160416809B18C6000E070
:101DF00084604460002070BD0000002070B506467D
:101E00000020164D00F1110405EB4414217C11F063
:101E1000010104D001300B28F3D1172070BD20221E
:101E2000204602F0D5FEA278237CA68242F004016F
:101E3000A17043F001002368207406F11C020E20FB
:101E400060F31F7305EB421123604B680BB19C607C
:101E500000E08C604C60002070BD00BF00000020DE
:101E6000F0B5124C9DF814709DF81860C5B204EBE3
:101E70004515D5F88443A578616063F3C405A57062
:101E8000236867F31963236012B1531EC91800E079
:101E90001146E160E2821EB9A27842F0E001A17031
:101EA000C0B2BDE8F040FFF7A9BF00BF00000020AE
:101EB000054B5A6DD20705D5586DC0F340230B7002
:101EC000002070471D20704700C00820044B4FF4CD
:101ED000A06202FB0030B0F8801088B2704700BFEB
:101EE0000000002010B54FF4C87000F0DEFB084B76
:101EF00010225A65586D10F01004FBD1044B4FF4BA
:101F0000801159654FF4C87000F0CFFB204610BD1A
:101F100000C00820354B192270B519460546C3F894
:101F2000F42FD1F8F84F314804F01906192EF8D1E2
:101F30000123C0F8103183602C4A916811F001062A
:101F4000FAD12B484FF4A06202FB0504314620462B
:101F500002F03EFE94F8813494F8911443F040026C
:101F600094F8A13484F8812441F0400043F0400209
:101F700084F8910484F8A12431464FF4A0641C4AEB
:101F80006C434FF4A07303FB051304F5906001311B
:101F90001018202942F82300EFD1144B002058607C
:101FA000596821F0C00141F080015960114959631D
:101FB00042F62721196404F592615118196204F55B
:101FC00094615118121999629A61596841F03F025F
:101FD0004FF480315A601965DA68D9680A43DA60CB
:101FE0000549064A59611A6170BD00BF00C008204A
:101FF00000000020DF2E78277F0000C04200008014
:10200000024B0020C3F81001704700BF00C0082039
:102010002DE9F04F8BB000249DF850709DF854A02E
:10202000BDF858809DF85C90CDF808808DE880045C
:10203000CDF80C900494069007910892099300F053
:1020400043FB8346002871D1032F12D8394AD65D4D
:10205000FF2E0ED00546384805F11C0400EB441451
:10206000217C11F0010107D00135082DF3D1162094
:102070005BE04FF0200B59E02022204602F0A8FD43
:10208000237C207843F001022274079961F3060053
:1020900020702288099B63F3CA122280002F42D04D
:1020A000BAF1020F14BF4FF0020A4FF0010A08996B
:1020B000607884F811900A1C18BF01226AF3C400EA
:1020C000618862F34510012F4FEA885814BF00233E
:1020D000012300F0BF004FEA985863F3C71068F37C
:1020E0000A0160706180E8B202D0FFF787FE01E06C
:1020F000FFF754FEC8B9104905F11C0201EB42126A
:102100005020137C66F347031374069B00FB0366A1
:10211000483601EB061605EB0325F168D160F26045
:102120001B9A156002E0BA46C1E7834658460BB0D9
:10213000BDE8F08FACAD00000000002073B50DF1DC
:1021400006010DF10702FFF715FE002834D19DF8B6
:1021500007301A4A1C3302EB4313597841F040020E
:102160005A70174A0421D1601549CA68596812F09B
:10217000040F19D121F00F059A6822F00F02AA422C
:10218000F2D05E78F60908D09168996092F8201034
:102190006FF3000182F82010EEE794689C60117CD8
:1021A00066F300011174E7E721F00F0259789A6095
:1021B0006FF386111A7259707CBD00BF00000020B9
:1021C00000C0082037B50DF106010DF107020546E4
:1021D000FFF7D0FD0446002835D12846FFF7AEFFB3
:1021E00080BB9DF8073019491C3301EB4313502580
:1021F0005A7842F0400058709DF80620187C6A43D7
:1022000002EB5000483001EB0012D1688B4201D044
:102210000A46FAE7D868D0605A78D0095A6806D0DA
:1022200092F820006FF3000082F8200003E0117C98
:1022300060F300011174197C0E226FF300015A61E2
:10224000197400E0044620463EBD00BF0000002097
:1022500007B50DF106010DF10702FFF78BFD60B91F
:102260009DF80730054A1C3302EB43110B7A486195
:1022700060F3000360F341030B720EBD0000002009
:102280007FB515460C4600294ED0002A4CD00DF1E2
:102290000E010DF10F02FFF76DFD0346002844D13A
:1022A00002228DE80C009DF80F0021460822FFF75E
:1022B000D7FD002839D1E288F2B994F900309DF8B1
:1022C0000F00032101228DE8060000210A468B42FF
:1022D000B4BF01230223FFF7C3FD30BB144882685B
:1022E00042F0020181609DF80F3012481C3300EB70
:1022F000431112224A6111E094F900309DF80F1049
:1023000001900326084600962946002BACBF012306
:102310000223FFF7A5FD0028CFD006E04B69122B62
:10232000FCD04869C0B200E0202004B070BD00BFFE
:1023300000C00820000000202DE9F04F89B01446AD
:1023400005930E46A9B1A2B10DF11E010DF11F02B8
:10235000FFF710FD002840F0BA809DF81F805D4B0C
:1023600008F11C0503EB4515287AC00703D50420A6
:10237000ADE02020ABE06FF011118C4203D16C88EE
:10238000C4F30A0294B26B78DB0900F083806B8897
:10239000C3F30A004F4BB3F8809001B2CA001FFA92
:1023A00089F0049200F10109002C00F08580686832
:1023B000049A37053B0DC3F5005720F00F039442F4
:1023C00038BF2246A3F80090B5F802C0CCF30A014A
:1023D000BA4238BF17461FFA81FCB7FBFCF20CFB70
:1023E0001270002814BF1146511EDA7861F3020200
:1023F00026F47F60DA707A1E20F00F01B018D860E2
:10240000E41B5960BE4630460022BEF1000F20D0CA
:10241000082A1ED0E64534BFF246E24620F47F6B20
:10242000CDF80CA02BF00F0A8A450CBF4FF4604B7F
:102430004FF4704B4FEA005A4BEA1A5B03EB420A27
:102440000132AAF810B0DDF80CA0CAEB0E0E504411
:10245000DBE74046FFF7A2FC002838D109F1010E66
:102460001FFA8EF9F6199FE73505280DC0F50051C2
:10247000A14228BF21468DB20023641B14BF002255
:10248000012201920093404631462A46FFF7E8FCBC
:10249000E8B97619002CE7D19DF81F000D4901EB32
:1024A000401292F8903303F0FE00042804D10A4948
:1024B0008A6842F004038B609DF81F10054A1C31A6
:1024C00002EB41130599122058619961002009B06F
:1024D000BDE8F08F0000002000C0082007B50DF116
:1024E00006010DF10702FFF745FC38B99DF80730EA
:1024F000034A1C3302EB43104169C8B20EBD00BF52
:1025000000000020F8B55F4BDA68DA601D691540FD
:10251000044600F0B5804FF000406A06586121D4AF
:10252000AB075AD55EE04A6DD00321D4554B586DA8
:10253000820344BF4FF400325A65596D480303D5F6
:10254000504A4FF4802050655B6D190303D54D4808
:102550004FF4002141654B4B5A6DD10244BF4FF4FB
:102560008011596547494B6D13F4F81FDBD1D7E74C
:102570004FF480330A6D4B65496DC907204602D57B
:1025800000F052FAD2E700F059FACFE73E489D68D2
:10259000834239D89A8C997801F0E000E02807D07E
:1025A0003A48D1B21C3100EB41111868000F486164
:1025B000196811F0704F4CD13449D2B201EB42107E
:1025C00090F88123D10956D093F820206FF30002B0
:1025D00083F820202B46002DD8D12A484FF0004107
:1025E0000161F8BD29484FF4A06202FB0404D4F84D
:1025F000841031F00F03F0D000229D689A601A46D3
:10260000002DC3D02B46F8E79C8A59682246A9B111
:10261000DE68DF8A86EA010020F47F600905090D83
:1026200020F00F003605C1EB1656002814BF4FF4FA
:10263000805000208019C1437818D8821349E4B231
:1026400001EB4414D4F898130029A4D0D88A088048
:10265000A1E70E48D1B21C3100EB4111087AC00746
:1026600002D41868000F00E004204861087A6FF374
:1026700000000872A0E7187C61F300001874A9E755
:10268000F8BD00BF00C00820E001002000000020CD
:1026900082B00023019380000199814203D2019A04
:1026A000531C0193F8E702B0704713B504460021AC
:1026B0000191019BA34206D24FF47A70FFF7E8FF25
:1026C0000198411CF4E71CBD70B59DF81050BDF891
:1026D00018409DF81C6000283ED109063CD4022A0F
:1026E0003AD813F0700F37D1032D35D89DF8143038
:1026F000022B31D8012A02D1681E01282CD9022DC3
:1027000004D0032D0DD0012D01D118E00AB9402CC1
:1027100005E0022A01D0002070BDB4F5007F1BD86F
:10272000F9E7CEB1002AF2D0022AF4D1B4F5806FD5
:1027300012D8102E10D89DF8201069B1EBE7013E99
:102740000F2E09D81AB9B4F5806F05D2E3E7022A33
:10275000E1D1B4F5806FEDE7202070BD012008B510
:102760000146FDF7F5FE094BD3F8A8205205FAD52E
:1027700007480121022241678167C0F8CC20D3F8C5
:10278000C40040F00041C3F8C41008BD00C00F40B1
:1027900000C00240024B4FF080721A60704700BFC9
:1027A00000E100E010B5054B1A78022A1C4602D160
:1027B0000020FFF7A7FE237810BD00BF7AB70010F6
:1027C0002DE9FF41174C01399046062241F400756E
:1027D0001E4662708023144A6580237000250923F9
:1027E00001A925716571A371E5710746155400F0C3
:1027F0004FF9A0B9BDF80650BDF82810A8F8005050
:102800008D420BD838463146E58000F041F930B9A9
:102810007378022B14BF0620002000E0052004B0CE
:10282000BDE8F0810015002079B700102DE9F041D6
:1028300005460E4690462C888CB137683B789C4202
:1028400038BF2346F818E11A30602980C0470228B3
:10285000F1D0012804D137602C80BDE8F08102203E
:10286000BDE8F08130B5684B1A5C8DB00446092A8A
:1028700000F2C880DFE812F00A00C60018001F004E
:1028800035003C004F005D007B00A1005F480388DD
:10289000002B00F0B780591E8AB20280002A40F057
:1028A000B1805B48027842E0584A4FF47A71118057
:1028B00003221A55A6E055490A88501E088072B1B5
:1028C00002214B1E99B2002900F09C800023069340
:1028D000069AB2F57A6FF4D20698431CF7E7042201
:1028E000E7E700201855494B64211980052061E075
:1028F000FFF7F8FA0DF117012046FFF7D9FA9DF816
:102900001710444A404B1155404A0020C821185521
:10291000118006204EE0002108238DE80A00029174
:102920000A460B4600F050F9002858D00722364BD3
:10293000BFE7394B394D59681A68696007A92A60A1
:1029400000F0A6F8054600284CD19DF82300344B32
:1029500029461855204600F089F92046FFF7C2FAAB
:102960002A48294AC82101801555082022E000255F
:102970002B4B0095185C02950190294620462A466B
:102980002B4600F021F950B3264A244B11685068B9
:10299000196058602946204600F07AF8054608BBC1
:1029A0002046294600F062F9174B18491D5564224C
:1029B0000A800920164A107024E00021184B00916B
:1029C000185C029101900A460B46204600F0FCF884
:1029D0000D4A0A212046115500F0B4FE12E00025F0
:1029E000042100E00321084B185D01280AD020468D
:1029F0002A4600F015FF204600F09EFE20460221E8
:102A000000F060FA0DB030BD7CB7001094090010E2
:102A100096090010F4B60010B0AD000000150020BB
:102A2000F0B60010B8AD000010B5044600F07EFE10
:102A3000014B02221A5510BD7CB7001070B50D4E27
:102A40000446002100F012F906EBC416002206EB42
:102A50000213551C1869E9B210B1204600F006F9BE
:102A6000072D2A46F3D1204600F066FE024B0121D5
:102A7000195570BDF8B600107CB7001008B5034BAF
:102A80001878FFF723FA80B208BD00BF78B70010AE
:102A90002DE9F0472B4B93F90020DD88002A0446EE
:102AA0008A4603DB2A46002300F06AF9DFF89C908F
:102AB000254F19F80400234E4FEAC40808EB000123
:102AC0000B01FA18F85852683146FFF7D9FB002875
:102AD00035D196F9000000280CDB1C491A4A0B5D21
:102AE00003EBC40402EB04140020A08160810834CD
:102AF000BDE8F08719F80410B379F279884407EB40
:102B0000081743EA0220B8815146002DE5D00F4E48
:102B10000D4B305D00EBC40203EB021000F1080323
:102B200042898689964204D94068805C01325A8085
:102B300000E00020013D01F8010BADB2E5E7022005
:102B4000BDE8F08700150020F8B6001079B7001036
:102B50000D4A38B500230C46092151705480137179
:102B600053719371D3711370084A19460546135473
:102B7000FFF78EFF38B9064B06491C70002C0CBFBE
:102B80000A240B244C5538BD0015002079B70010DD
:102B9000F1B600107CB7001010B5094B02229980E5
:102BA0001A70084901225A7000229A70DA709A71DC
:102BB000DA7104460A541146BDE81040FFF768BFB9
:102BC0000015002079B700102DE9F04788B00446C1
:102BD00088469DF84070BDF84490154632B9204AA9
:102BE000115C082994BF0021012100E001211D484A
:102BF000025D1D48019308EBC40A0123002600EB87
:102C00000A1A039304930095CDF80890059606964A
:102C1000CDF81CA020463B46FFF7FAF9E0B9022D9B
:102C2000AAF80A00AAF80C0002D14FF4007002E0E2
:102C3000002DFAD048460C4908EBC40401EB0414FB
:102C40000021208100F09EF96060003004F1080549
:102C5000A77318BF012000E0304608B0BDE8F08738
:102C60007CB70010F4B60010F8B600100729F8B5CC
:102C70000ED801EBC006074F3601BC190025B85924
:102C8000FFF7A0FABD51606800F0BAF965602581D0
:102C9000F8BD00BFF8B6001000207047F8B5044634
:102CA0001E4E1F4D335DE700F81801016A1892F9B6
:102CB0000E30002B0DDB6858FFF710FC38B9305D83
:102CC0003F1805EB0715A9892A8991420FD30022E5
:102CD0000EE06858FFF702FC0028F8D1335DFF18BA
:102CE00005EB0715A889698908358842EFD00122CC
:102CF00082B90A4B0A4A185D00EBC4010B01D05897
:102D0000FFF7ECFB042807D00648015D0129C7D175
:102D10000220F8BD0020F8BD0120F8BD79B70010F1
:102D2000F8B600107CB700102DE9F041DFF84C80B8
:102D3000114C18F80030C7000546F818010160581A
:102D4000FFF7CCFB064680B918F80520BB181A011E
:102D5000A11888894B8998420AD10B46A058496826
:102D60006FF011120C33FFF7E7FA0020BDE8F08195
:102D70000120BDE8F08100BFF8B6001079B700105F
:102D80002DE9F0431BB11B88D21A92B2C918002357
:102D90009CB2A2421AD00F4F0F4D3C5C11F8038039
:102DA000C600341905EB0414B4F80CC0B4F808904C
:102DB000E14509D9646804F80C803C5C341905EBE2
:102DC0000414A5890135A5810133E1E70020BDE8A0
:102DD000F08300BF79B70010F8B600102DE9F04776
:102DE0000446884615461E46FFF758FF074600284A
:102DF00061D1002E35D03388ED1AADB2984430E061
:102E0000DFF8BC902D4E19F804004FEAC40A0AEB13
:102E100000010B01F21892F90E00002824DAF05894
:102E2000FFF75CFB40B919F80400824406EB0A1175
:102E30008E894A89964225D1002321481F4E025D82
:102E4000E1001BB38B1806EB03167289B089904220
:102E50001AD97368995C01327281013D08F8011B2F
:102E6000ADB2002DCCD126E0F058FFF737FB00289B
:102E7000E2D119F804108A4406EB0A16B2893389A4
:102E80009A42D9D20123D8E70021E6E78818000149
:102E9000311830580A898B814B810B46954238BFD7
:102EA0002A4649680C33FFF747FA2046FFF7F6FE3B
:102EB0000028D6D007463846BDE8F087F8B600109F
:102EC00079B70010012970B504461AD0022918D12B
:102ED0000C4B0D4900251D540C4B082201260E54A5
:102EE0001A54FFF717F80A4928B920460E70BDE8B2
:102EF0007040FFF74FBC20460D70BDE87040FFF7F3
:102F00007FB870BD79B700107CB70010F0B6001024
:102F10007BB70010022970B504460D4608D10B4E50
:102F200033782BB94FF4805000F016F80120307040
:102F3000074920460D55FFF711FC20462946FFF7AB
:102F4000C1FF044B01221A7070BD00BF9709001029
:102F50007AB700107BB70010094B5A884FF6FC7106
:102F60006FF30F0201405A801A88081F60F30E02A7
:102F7000C2F3072141F080001A805870704700BFEB
:102F800000050020F0B5830718BF20F003001B4B9D
:102F900018BF04305A7802F08001CAB22AB11C6806
:102FA000C4F30E0189B2814206D25B8813B1134A81
:102FB000D318EFD11846F0BD021D914203D86FF32C
:102FC000CF341C6018E09D5A5F886FF00304241A08
:102FD000091945EA074561F30E0545F400459D5082
:102FE000196860F30E0105489E18321A89B241EA49
:102FF00002406FF3CF301860181DF0BD00050020AF
:1030000070B5002845D030F8021C021FC1B1214D17
:103010006C18637803F08003DBB28BB150F8043C8A
:103020006958C3F30E06C1F30E017118043161F340
:103030000E0340F8043C618861F31F4340F8043CF0
:10304000144B5988F1B1134C6118914217D159783A
:1030500001F08001C9B2B9B11A6850F8041CC2F37A
:103060000E04C1F30E016118043161F30E021A60FF
:1030700030F8020C60F31F421A601A4604E019B1DE
:103080000B46DEE7002AE2D0136843F400411160EA
:1030900070BD70BD0005002070B5044D04462E5C67
:1030A00000232B54FFF7DEFB2E5570BD79B70010BF
:1030B0004378042B0BD14179082908D18279062A5B
:1030C00005D1C079502814BF02200020704702208B
:1030D000704700002DE9F0478046FFF7CFFC98F8D5
:1030E000044098F80020274B1A55824642F2107986
:1030F0002046FFF719FE00283AD1FFF7BFFC5045E4
:1031000007D009F1FF3293B2B9F1000F37D08246F0
:10311000994698F802001B4F1B4D3855E6003118B0
:103120000A01A858FFF7DAF9042809D098F8003006
:10313000F01801013B556858FFF7D0F9042810D169
:10314000385D31180A01A858FFF782F83B5DF61880
:1031500005EB06152046A97BFFF71EFD0120BDE803
:10316000F0870A4A135D012BC2D10220BDE8F08727
:1031700098F80200034908550020BDE8F0870320B5
:10318000BDE8F08779B70010F8B600107CB70010E2
:103190002DE9F04F036905790446581C0F46924605
:1031A000421C08BF0120552153224226432320619F
:1031B0007A70BE70FB70397020695C4E7860A178BF
:1031C0000023715585B0284639461F22FFF7D8FDE8
:1031D00081460346002840F0A580725DDFF85081EB
:1031E0004FEAC50B0BEB0203180108EB00024B463C
:1031F000516858F800009289FFF79EF8715D0BEB5B
:10320000010308EB0310A0F80C90A0F80A902846E0
:10321000FFF744FDBAF1000F65D097F90C20D7F8FD
:1032200008B02579002A1FFA8BFB17DA2046FFF732
:1032300051FF0346002854D1227828467255514642
:103240005A46FFF7CBFD034600284AD1735D03EBD6
:10325000C50508EB05118881488144E0A7784B46F5
:10326000284651465A467755FFF78AFD07460346DA
:10327000002836D1715D4FEAC50909EB0103180139
:1032800008EB00023B4658F8000051689289FFF7AE
:1032900053F8765DB14408EB0918A8F80C70A8F84B
:1032A0000A70DFF88880224E18F80510EF007B18AE
:1032B00018013058FFF712F958B918F80520BF184F
:1032C00006EB07163189B3898B422CBF00210121FF
:1032D00000E0002139B91748415D0129E1D10223FD
:1032E00020E0012B1ED820462579FFF7F3FE034688
:1032F000C0B920780D4E694670550D222846FFF75B
:103300006DFD034670B9725D09499DF80C3002EB02
:10331000C50501EB0515002B14BF80230023A881F0
:1033200068810835184605B0BDE8F08F79B7001000
:10333000F8B600107CB7001008B54378052B0CD107
:10334000C17801F00302022A0CD18078FFF7A4FCB7
:10335000002814BF0220002008BD042B14BF022047
:10336000012008BD022008BD2DE9F04387B090F888
:1033700004900492ADF816100C220021044600F1CE
:10338000080001F025FC049B5878022852D1002740
:103390003D46B8465FB90DF1160004A9284AFFF76B
:1033A00045FA002848D1049F05468046F2E70DF112
:1033B000160004A9234AFFF739FA0028EBD1049933
:1033C00091F90220002A04DB0D46B8F1000F01D16B
:1033D000E0E78846002DDDD001262378B34207D1EF
:1033E000B8F8042098F8021060786281012311E097
:1033F000A078B04209D00136F6B2082EEDD1B978E6
:10340000012261722272002017E0AA88E078A97870
:10341000A2810223002814BF022000208DE80600AC
:103420000290314648460222FFF7CEFB0028E2D147
:10343000032002E0012000E0022007B0BDE8F08395
:10344000B1300000393300002DE9F041174B047909
:10345000427A174E9A80212105461970FF200021DB
:1034600058709970D9709971D97120463155FFF70C
:103470000FFBC0B92A780F4F32554FEAC40808EB4A
:10348000020307EB03112046897BFFF785FB50B948
:10349000A878804407EB08173055B97B2046BDE873
:1034A000F041FFF779BBBDE8F08100BF00150020B7
:1034B00079B70010F8B6001038B50C4B0279407A95
:1034C000A1241C70FE2498805C70012000249C7054
:1034D000DC709871DC71064B10460D469C54FFF76A
:1034E000D7FA032804BF2C70204638BD00150020F1
:1034F00079B7001070B515460379134A0446D05CBD
:103500000B2888B00E461BD1217AC9B100211F2299
:10351000684601F05DFB80220620122124238DF8ED
:103520000C208DF80E008DF80F10204669462A46B3
:1035300002938DF80D608DF81330FFF729FE00E03F
:10354000012008B070BD00BF7CB7001030B5104A34
:1035500003790446D05C0B2889B00D4614D1217A3A
:1035600091B100211F22684601F032FB0622802320
:103570008DF80E202046694600228DF80C308DF81B
:103580000D50FFF705FE00E0012009B030BD00BF7F
:103590007CB7001070B514460379154A0546D05C17
:1035A0000B2888B00E4620D1297AF1B100211F22C4
:1035B000684601F00DFB80220A20252108238DF8A2
:1035C0000C208DF80E008DF80F1028466946224613
:1035D00002938DF80D60FFF7DBFD38B92368616851
:1035E0001ABA0BBA2260636000E0012008B070BD17
:1035F0007CB7001070B515460379134A0446D05CB9
:103600000B2888B00E461BD1217AC9B100211F2298
:10361000684601F0DDFA80220620032112238DF88E
:103620000C208DF80E008DF80F10204669462A46B2
:1036300002938DF80D608DF81330FFF7A9FD00E0BF
:10364000012008B070BD00BF7CB70010F0B5144673
:103650001E461A4A03790546D05C0B2889B00F46EE
:1036600028D1297A31B300211F22684601F0B0FA2F
:10367000BDF838308DF80D7080220A207343282160
:103680008DF80C208DF80E00220C200A02938DF884
:103690000F10230E8DF812208DF81300694628466E
:1036A0000F9A8DF811308DF814408DF81760FFF7E0
:1036B0006FFD00E0012009B0F0BD00BF7CB7001035
:1036C000F0B514461E46184A03790546D05C0B280F
:1036D00089B00F4625D1297A19B300211F226846E7
:1036E00001F076FABDF838308DF80D700A22734378
:1036F0002A20210E8DF80E20220A02938DF80F0049
:103700008DF81110230C8DF81320284669460F9A66
:103710008DF812308DF814408DF81760FFF738FDE2
:1037200000E0012009B0F0BD7CB70010014601485F
:1037300001F0E4BAC0AD00000146014801F0DEBA74
:10374000DDAD000070B54FF40073ADF5127D009350
:1037500001210DF10E0212AB0546FFF731F808B159
:10376000254844E0254CBDF80E10204612AA2571CC
:10377000FFF7FAFD08B1224839E020790121FFF76F
:10378000E7F9064608B11F4831E020460DF10D016A
:10379000FFF792FE054608B11B4814E09DF80D1096
:1037A0001A48013101F0AAFA2046FFF74DFE0646FD
:1037B00008B1174813E02046314604AAFFF71AFF64
:1037C000054628B1134801F099FA207931460AE0FC
:1037D0002046294609AAFFF78DFE38B10E4801F0B0
:1037E0008DFA20792946FFF7B3F902E00B4801F082
:1037F00085FA0DF5127D70BDFEAD000008000010C9
:103800002BAE00005EAE000084AE0000A6AE00004D
:10381000D4AE0000FEAE00001FAF000047AF0000B6
:1038200037B51346054A0446105C0D460090214604
:103830002A46034801F062FA3EBD00BF7CB7001083
:10384000A1AF0000004870470800001010B5044602
:103850002079054A115C0B2903D00221FFF71CFCDB
:10386000F6E7012010BD00BF7CB7001070B505461B
:10387000154801F043FA28460021FFF767FE044689
:1038800050B18028F7D0114801F038FA287900218A
:10389000FFF75EF9002070BD0D4E0E4801F02EFAC4
:1038A000284621463246FFF775FE28B10A4801F046
:1038B00025FA28792146EBE796E80600074801F04B
:1038C0001DFA012070BD00BF00B0000015B000005F
:1038D000980900101EB0000026B000004AB0000099
:1038E000014B1868704700BF98090010014B5868D9
:1038F000704700BF9809001013B50A4CDBB2A488CA
:10390000019100940021FFF7A1FE48B1064801F0A3
:10391000F5F9064B00211879FFF71AF9002000E0AD
:1039200001201CBD9809001065B0000008000010BF
:1039300013B5084CDBB2A488019100940021FFF775
:10394000BFFE20B1044801F0D9F9002000E00120B9
:103950001CBD00BF9809001083B0000064235943C8
:1039600082B001910198421E01920028FAD10120F3
:1039700002B070470C490D4A0D4B9B1A40F305806D
:10398000043BC858D0503FF7FBAF0A4A0A4B9B1A7A
:1039900040F305800020043BD0503FF7FCAF0748C0
:1039A000804707480047000098B30000000000105F
:1039B000BC080010BC08001084B7001011090000FA
:1039C000293C0000FEE7FEE7FEE7FEE7FEE7FEE734
:1039D000FEE7FEE7FEE7FEE7FEE7FEE7FEE7FEE7BF
:1039E000FEE7FEE7FEE7FEE7FEE7FEE7FEE7FEE7AF
:1039F000FEE7FEE7FEE7FEE7FEE7FEE7FEE7FEE79F
:103A0000FEE7FEE7FEE7FEE7FEE7FEE7FEE7FEE78E
:103A1000FEE7FEE7FEE7FEE7FEE7FEE7FEE7FEE77E
:103A2000FEE7FEE7FEE7FEE7FEE700BF000000005E
:103A3000F0B56749ADF5037D0020FDF7CFFF654880
:103A400065490122FDF7DAFF044638B1634801F009
:103A500055F96348214601F051F9FEE74FF0402344
:103A60005A6842F00100586000214FF040254AF6A4
:103A7000C006A96057485B49324601ABFEF76AF8B9
:103A8000074638B1584801F039F95548394601F030
:103A900035F9FEE7019BB34209D1AA6802A840F8B4
:103AA00024202E200134FCF7FDFE802CDCD1494877
:103AB000FEF758F900210D464FF0FF360022002393
:103AC000A1420DDA02A850F82170D21943F1000387
:103AD000BE4228BF3E46BD4238BF3D460131EFE7FA
:103AE0001946104600F044FB0746204600F032FB22
:103AF0000146384600F036FC07463C4801F0FEF827
:103B00003B4801F0FBF83B4801F0F8F821463A4801
:103B100001F0F4F82CA3D3E90023384801F0EEF8C3
:103B2000304600F013FB364900F068FB00F004FA61
:103B300002460B46334801F0E1F8284600F006FB48
:103B40002F4900F05BFB00F0F7F902460B462E48C8
:103B500001F0D4F82A49384600F050FB00F0ECF9A7
:103B600002460B46294801F0C9F8204801F0C6F882
:103B7000274801F0C3F81F4801F0C0F80025A5420E
:103B800011DA02AB53F8250000F0E0FA1C4900F00E
:103B900035FB00F0D1F902460B461E48294601F0DC
:103BA000ADF80135EBE71C4801F0A8F81B4801F01F
:103BB000A5F81B4908790021FEF7CAFF0DF5037D22
:103BC000F0BD00BFAFF300809A999999999945404B
:103BD000A009001090B40010A1B00000AAB000002D
:103BE000D6B00000D00B0010EDB0000007B100000F
:103BF00026B1000008B1000034B1000046B1000059
:103C00008988883C5BB100006EB1000081B1000082
:103C100094B100009FB10000AEB10000CDB1000032
:103C200008000010AFF3008008B5FCF755FE0D4BFF
:103C300002211879FFF76EF9FCF716FE0020FCF759
:103C400065FE4FF04020FCF797FD00224FF040202A
:103C5000C260054801F052F8FFF7EAFE034801F0A0
:103C60004DF8FEE708000010E1B10000CFB1000000
:103C700081F0004102E000BF83F0004330B54FEA1D
:103C800041044FEA430594EA050F08BF90EA020F8A
:103C90001FBF54EA000C55EA020C7FEA645C7FEA1D
:103CA000655C00F0E2804FEA5454D4EB5555B8BF40
:103CB0006D420CDD2C4480EA020281EA030382EAB1
:103CC000000083EA010180EA020281EA0303362D43
:103CD00088BF30BD11F0004F4FEA01314FF4801C16
:103CE0004CEA113102D0404261EB410113F0004F28
:103CF0004FEA03334CEA133302D0524263EB4303DF
:103D000094EA050F00F0A780A4F10104D5F1200E7C
:103D10000DDB02FA0EFC22FA05F2801841F10001D7
:103D200003FA0EF2801843FA05F359410EE0A5F1AB
:103D300020050EF1200E012A03FA0EFC28BF4CF0DC
:103D4000020C43FA05F3C01851EBE37101F0004592
:103D500007D54FF0000EDCF1000C7EEB00006EEB9F
:103D60000101B1F5801F1BD3B1F5001F0CD3490829
:103D70005FEA30004FEA3C0C04F101044FEA445280
:103D800012F5800F80F09A80BCF1004F08BF5FEA07
:103D9000500C50F1000041EB045141EA050130BDE7
:103DA0005FEA4C0C404141EB010111F4801FA4F18A
:103DB0000104E9D191F0000F04BF01460020B1FADF
:103DC00081F308BF2033A3F10B03B3F120020CDA17
:103DD0000C3208DD02F1140CC2F10C0201FA0CF0F5
:103DE00021FA02F10CE002F11402D8BFC2F1200C5A
:103DF00001FA02F120FA0CFCDCBF41EA0C01904010
:103E0000E41AA2BF01EB0451294330BD6FEA040458
:103E10001F3C1CDA0C340EDC04F11404C4F1200243
:103E200020FA04F001FA02F340EA030021FA04F355
:103E300045EA030130BDC4F10C04C4F1200220FAAC
:103E400002F001FA04F340EA0300294630BD21FAEA
:103E500004F0294630BD94F0000F83F4801306BFB0
:103E600081F480110134013D4EE77FEA645C18BFA4
:103E70007FEA655C29D094EA050F08BF90EA020F3B
:103E800005D054EA000C04BF1946104630BD91EA33
:103E9000030F1EBF0021002030BD5FEA545C05D136
:103EA0004000494128BF41F0004130BD14F5800475
:103EB0003CBF01F5801130BD01F0004545F0FE41E9
:103EC00041F470014FF0000030BD7FEA645C1ABF1E
:103ED000194610467FEA655C1CBF0B46024650EA55
:103EE000013406BF52EA033591EA030F41F4002181
:103EF00030BD00BF90F0000F04BF0021704730B507
:103F00004FF4806404F132044FF000054FF00001DB
:103F100050E700BF90F0000F04BF0021704730B59C
:103F20004FF4806404F1320410F0004548BF404271
:103F30004FF000013EE700BF42004FEAE2014FEAC6
:103F400031014FEA02701FBF12F07F4393F07F4FA1
:103F500081F06051704792F0000F14BF93F07F4FD3
:103F6000704730B54FF4607401F0004521F0004116
:103F700020E700BF50EA010208BF704730B54FF09C
:103F800000050AE050EA010208BF704730B511F0A1
:103F9000004502D5404261EB41014FF4806404F1D9
:103FA00032045FEA915C3FF4DCAE4FF003025FEA5B
:103FB000DC0C18BF03325FEADC0C18BF033202EBE3
:103FC000DC02C2F1200300FA03FC20FA02F001FA3D
:103FD00003FE40EA0E0021FA02F11444C1E600BFDC
:103FE00080F0004002E000BF81F0004142001FBFAE
:103FF0005FEA410392EA030F7FEA226C7FEA236CB7
:104000006AD04FEA1262D2EB1363C1BFD2184140AB
:1040100048404140B8BF5B42192B88BF704710F041
:10402000004F40F4000020F07F4018BF404211F0E4
:10403000004F41F4000121F07F4118BF494292EA4C
:10404000030F3FD0A2F1010241FA03FC10EB0C0078
:10405000C3F1200301FA03F100F0004302D5494205
:1040600060EB4000B0F5000F13D3B0F1807F06D3B2
:1040700040084FEA310102F10102FE2A51D2B1F1AA
:10408000004F40EBC25008BF20F0010040EA03009F
:104090007047490040EB000010F4000FA2F101024C
:1040A000EDD1B0FA80FCACF1080CB2EB0C0200FAD6
:1040B0000CF0AABF00EBC25052421843BCBFD04024
:1040C0001843704792F0000F81F4000106BF80F49E
:1040D00000000132013BB5E74FEA41037FEA226C61
:1040E00018BF7FEA236C21D092EA030F04D092F02C
:1040F000000F08BF0846704790EA010F1CBF002060
:10410000704712F07F4F04D1400028BF40F00040BC
:10411000704712F100723CBF00F50000704700F0DC
:10412000004343F0FE4040F4000070477FEA226203
:1041300016BF08467FEA23630146420206BF5FEAD4
:10414000412390EA010F40F4800070474FF00003D4
:1041500004E000BF10F0004348BF40425FEA000C9B
:1041600008BF704743F0964301464FF000001CE043
:1041700050EA010208BF70474FF000030AE000BF99
:1041800050EA010208BF704711F0004302D54042D7
:1041900061EB41015FEA010C02BF84460146002049
:1041A00043F0B64308BFA3F18053A3F50003BCFA64
:1041B0008CF2083AA3EBC25310DB01FA02FC634411
:1041C00000FA02FCC2F12002BCF1004F20FA02F218
:1041D00043EB020008BF20F00100704702F120020B
:1041E00001FA02FCC2F1200250EA4C0021FA02F26C
:1041F00043EB020008BF20EADC7070474FF0FF0C71
:104200001CEAD0521EBF1CEAD15392EA0C0F93EA6B
:104210000C0F6FD01A4480EA010C400218BF5FEA0D
:1042200041211ED04FF0006343EA501043EA511180
:10423000A0FB01310CF00040B1F5000F3EBF49007A
:1042400041EAD3715B0040EA010062F17F02FD2A7E
:104250001DD8B3F1004F40EBC25008BF20F0010061
:10426000704790F0000F0CF0004C08BF49024CEA78
:10427000502040EA51207F3AC2BFD2F1FF0340EA0A
:10428000C250704740F400004FF00003013A5DDC7B
:1042900012F1190FDCBF00F000407047C2F10002BC
:1042A000410021FA02F1C2F1200200FA02FC5FEAA9
:1042B000310040F1000053EA4C0308BF20EADC70F3
:1042C000704792F0000F00F0004C02BF400010F465
:1042D000000F013AF9D040EA0C0093F0000F01F012
:1042E000004C02BF490011F4000F013BF9D041EA34
:1042F0000C018FE70CEAD15392EA0C0F18BF93EA36
:104300000C0F0AD030F0004C18BF31F0004CD8D15F
:1043100080EA010000F00040704790F0000F17BFE6
:1043200090F0004F084691F0000F91F0004F14D02C
:1043300092EA0C0F01D142020FD193EA0C0F03D184
:104340004B0218BF084608D180EA010000F0004087
:1043500040F0FE4040F40000704740F0FE4040F462
:10436000400070474FF0FF0C1CEAD0521EBF1CEA01
:10437000D15392EA0C0F93EA0C0F69D0A2EB03021F
:1043800080EA010C49024FEA402037D04FF08053B9
:1043900043EA111143EA10130CF000408B4238BF7E
:1043A0005B0042F17D024FF4000C8B4224BF5B1A8C
:1043B00040EA0C00B3EB510F24BFA3EB510340EADA
:1043C0005C00B3EB910F24BFA3EB910340EA9C0088
:1043D000B3EBD10F24BFA3EBD10340EADC001B01F8
:1043E00018BF5FEA1C1CE0D1FD2A3FF650AF8B429C
:1043F00040EBC25008BF20F0010070470CF0004CA9
:104400004CEA50207F32C2BFD2F1FF0340EAC250D3
:10441000704740F400004FF00003013A37E792F094
:10442000000F00F0004C02BF400010F4000F013AF2
:10443000F9D040EA0C0093F0000F01F0004C02BFED
:10444000490011F4000F013BF9D041EA0C0195E756
:104450000CEAD15392EA0C0F08D142027FF47DAFEF
:1044600093EA0C0F7FF470AF084676E793EA0C0FDF
:1044700004D14B023FF44CAF08466EE730F0004CDD
:1044800018BF31F0004CCAD130F000427FF45CAF6D
:1044900031F000437FF43CAF5FE700BF4BB942B956
:1044A000002908BF002802D04FF0FF31084600F075
:1044B0003BB882B0EC462DE9005000F01DF8DDF865
:1044C00004E002B00CBC70472DE9F0411646984656
:1044D00004460D4600F02AF806FB01FCA6FB00236B
:1044E00000FB08C7FB18A21A65EB0303069CC4E98E
:1044F0000023BDE8F08100BF2DE9F041904606465B
:104500000F461D4600F070F900FB05F3A0FB0845BF
:1045100008FB0138069B4544341B67EB0505C3E9DE
:104520000045BDE8F08100BF704700BF00292DE9BC
:10453000F00F1D46C0F29D800024002DC0F2948033
:1045400080460F4694461E46E3BB8A4255D9B2FACE
:1045500082F747B1C7F1200520FA05F601FA07F105
:10456000BA40B8403143170CB1FBF7F61FFA82FC92
:1045700007FB16110CFB06F5030C43EA01439D42B1
:1045800008D9711E9B1880F013819D4240F2108162
:10459000023E9B18591BB1FBF7F507FB15130CFBEB
:1045A00005FC80B240EA03418C4507D96B1E8A188E
:1045B00080F00081944540F2FD80023D45EA0641CD
:1045C000002503E08B420CD9002529460A462B46DC
:1045D00014B1524263EB430310461946BDE8F00F95
:1045E0007047B3FA83F5002D40F087808B4201D3EA
:1045F0008242EAD800250121E8E712B90126B6FB7C
:10460000F2F2B2FA82F6002E39D18E1A130C1FFA8A
:1046100082FC0125B6FBF3F703FB17610CFB07F8DF
:104620004FEA104949EA0146B04506D9791EB61845
:1046300002D2B04500F2D3800F46C8EB0606B6FBA7
:10464000F3F103FB11630CFB01FC80B240EA03436E
:104650009C4506D94E1E9A1802D2944500F2C2809B
:10466000314641EA0741B1E7E443524263EB430379
:1046700066E7404261EB41014FF0FF345DE7B24035
:10468000C6F1200921FA09F720FA09F901FA06F121
:10469000130CB7FBF3F81FFA82FC03FB18770CFB33
:1046A00008F549EA01094FEA194141EA0747B040D4
:1046B000BD420AD9BF1808F1FF3680F08E80BD4296
:1046C00040F28B80A8F10208BF18791BB1FBF3F50B
:1046D00003FB15170CFB05F61FFA89F949EA074198
:1046E0008E4206D96F1E891871D28E426FD9023D53
:1046F00089188E1B45EA08458CE7C5F1200122FA8E
:1047000001F306FA05F627FA01F207FA05F720FA8F
:1047100001F11E434FEA1649B2FBF9F81FFA86FA77
:1047200009FB18220AFB08FB0F433B0C43EA024239
:1047300093450CFA05FC08D9921908F1FF314AD2C9
:10474000934548D9A8F102089219CBEB0203B3FBB9
:10475000F9F109FB11320AFB01FABFB247EA024341
:104760009A4506D94A1E9B1933D29A4531D9023946
:104770009B1941EA08410F0C1FFA8CF808FB07F659
:104780008AB24FEA1C4C08FB02F80CFB02620CFBDD
:1047900007FC02EB1842964288BF0CF5803CCAEB3E
:1047A00003030CEB124C63450ED305D000250DE737
:1047B0000E46EFE61D4601E700FA05F01FFA88F8FD
:1047C00008EB0245A842F1D201390025FEE63D463C
:1047D0008FE71146CDE78846B7E7B04675E7023F59
:1047E000B6182AE702393CE72DE9F00714460546DA
:1047F0000E46002B3DD18A4249D9B2FA82F747B121
:10480000C7F1200120FA01F206FA07F6BC40BD40CC
:104810001643220CB6FBF2F0A1B202FB106601FBBC
:1048200000F32F0C47EA0646B34208D9471E361953
:1048300080F0FA80B34240F2F78002383619F61A57
:10484000B6FBF2F302FB136201FB03F1ADB245EAE2
:104850000242914207D95E1E121980F0E780914210
:1048600040F2E480023B43EA00400021BDE8F0074B
:1048700070478B4243D8B3FA83F4002C42D18B4269
:1048800002D3824200F2E18000210120EEE712B95A
:104890000127B7FBF2F4B4FA84F2002A40F08980D1
:1048A0000A1B230CA7B20121B2FBF3F603FB16226D
:1048B00007FB06F04FEA154C4CEA0242904207D93A
:1048C000121906F1FF3C02D2904200F2D0806646F7
:1048D000121AB2FBF3F003FB102307FB00F7ADB293
:1048E00045EA03439F4207D9421E1B1980F0A0806E
:1048F0009F4240F29D80023840EA0640B6E7002120
:104900000846B3E7C4F1200622FA06F703FA04F3D7
:1049100021FA06F501FA04F120FA06F63B434FEAC4
:10492000134CB5FBFCF71FFA83F80CFB175508FB7B
:1049300007F946EA010A4FEA1A4141EA0545A94545
:1049400002FA04F204D97E1EED18C0F081803746C9
:10495000C9EB0501B1FBFCF60CFB161508FB06F8CC
:104960001FFA8AFA4AEA0541884503D9751EC91813
:1049700074D32E4646EA0746370C1FFA82FC0CFB1E
:1049800007F5120CB3B20CFB03FC02FB035302FB52
:1049900007F203EB1C439D4288BF02F58032C8EB4F
:1049A000010102EB134291424CD343D03046002127
:1049B0005CE79440C2F1200521FA05F620FA05F5DE
:1049C00001FA02F1230CB6FBF3FCA7B203FB1C6651
:1049D00007FB0CF829430D0C45EA0646B04500FAE2
:1049E00002F508D936190CF1FF303ED2B0453CD95A
:1049F000ACF1020C3619C8EB0602B2FBF3F003FB74
:104A0000102607FB00F889B241EA0642904506D914
:104A1000461E121927D2904525D902381219C8EB23
:104A2000020240EA0C413FE7384608E733461AE7FE
:104A3000104661E700FA04F01FFA8CFC0CEB03430C
:104A40009842B3D2701E002110E7214620460DE7A0
:104A5000A9457FF67CAF023FED1879E7884588D9F4
:104A6000023EC91886E73046D9E78446C3E7023ECE
:104A700012192DE70F2A2DE9F00340F2A18041EA37
:104A800000039B0740F09E800C68A2F110050460B3
:104A90004B68AC4643608C68BCF10F0F8460CC68F7
:104AA000C5F30015C46000F1100301F110042BD907
:104AB00075B12568ACF1100C1D6065685D60A56876
:104AC0009D60E5681034DD601033BCF10F0F1BD919
:104AD000276804F110061F60676803F110055F6026
:104AE000A768ACF1200C9F60E768DF6024691C6157
:104AF000776806F110046F60B7682033AF60F6681E
:104B0000BCF10F0FEE60E3D8A2F1100828F00F03FC
:104B100002F00F0403F1100C032C00EB0C0301EB6B
:104B20000C0851D9211F4FEA9109444608EB890C22
:104B300054F8046BC8EB0C010CF1040C1D466445E1
:104B400045F8046BC1F3800112D029B154F8041B5D
:104B5000644545F8041B0BD0274657F8041B2E4626
:104B600046F8041B64686C603C1D351D6445F3D138
:104B700009F1010C4FEA8C0902F0030208EB09016C
:104B80004B44D2B10D789A18DC4303F8015B141939
:104B9000934204F0010410D02CB111F8014F03F836
:104BA000014B934209D04D781C4604F8015B8D7887
:104BB00002315D70631C9342F5D1BDE8F00370478C
:104BC0000346DEE70346DDE741462246D9E700BF5C
:104BD000F0B48407034600F08D80541E002A00F0D4
:104BE0008780E507CEB211D41A4602F8016B13464E
:104BF0001546920710D0621E002C79D003F8016B85
:104C000014469A071D4607D0013CEDE7034603F81A
:104C1000016B9A071D46F7D1032C52D9CEB246EA52
:104C200006270F2C47EA07432DD9A4F11002174697
:104C30000F2FC2F300162B606B60AB60EB6005F1C9
:104C4000100216D93EB1103F136053609360D360D9
:104C500010320F2F0DD9203F02F110061360536060
:104C60009360D360136153619361D36120320F2F3E
:104C7000F1D8A4F1100222F00F0204F00F04103258
:104C8000032C15441DD9271F3E462A46032E42F801
:104C9000043BC7F380070DD927B1043E032E42F829
:104CA000043B07D9174647F8043B083E53603A1DBA
:104CB000032EF7D8231F23F00302131D04F003046F
:104CC000ED18ACB1C9B2EA432C1905F8011BA318C1
:104CD000A54203F001020BD01AB105F8011BA54251
:104CE00006D02B4603F8011B69705D1CA542F8D164
:104CF000F0BC7047054614468EE700BF0FB410B5F0
:104D000040F2484382B004ACC1F2000354F8042BD3
:104D1000186823468168019400F006F802B0BDE8E7
:104D2000104004B0704700BF2DE9F04FC5B01D46DC
:104D30000B9114460C9003F0B7FB0068119514908A
:104D400004F0FEFC002116900020CDE918010C991A
:104D500019B18B6B002B00F00B810B9A938903F434
:104D6000005001B239B90B9843F40053426E83816D
:104D700022F40051416603F0080002B2002A00F05C
:104D8000C0800B990869002800F0BB8003F01A026C
:104D90000A2A00F0C280002134ABDFF86C95129132
:104DA00008932793299128910A941A911B910F91A6
:104DB0009A460A9A1078002800F0DE80252800F034
:104DC000DB80531C02E0252900F08D8019781C46F9
:104DD00001330029F7D10A9AA51A85B12999289B90
:104DE0004A190A98591C07298AE821002992289112
:104DF0000AF1080A00F3B2800F9842190F92237843
:104E0000002B00F09780611C0A9100264FF0FF3CB8
:104E100094F801800A9B0E968DF87B6009962021FC
:104E20002B2266460133A8F12000582800F2DF82C9
:104E3000DFE810F0ED02DD02DD02F702DD02DD0247
:104E4000DD02DD02DD02DD022903A400DD026000D7
:104E5000A900DD02C40035033503350335033503EE
:104E60003503350335033503DD02DD02DD02DD02E6
:104E7000DD02DD02DD02DD02DD02DD028901CB00A3
:104E8000DD02CB00DD02DD02DD02DD028201DD029A
:104E9000DD02CE01DD02DD02DD02DD02DD02E70121
:104EA000DD02DD02FC01DD02DD02DD02DD02DD02EC
:104EB000DD02DD02DD02DD02DD02C802AA02CB0056
:104EC000CB00CB00C102AA02DD02DD025502DD02E9
:104ED0006C027A0292021F02DD022602DD02FE024D
:104EE000DD02DD0213030A98251A76E70E9C119065
:104EF00064420E94099840F00404099493F80080E9
:104F000090E70C980B9901F073FD00BB0B9B9B89FC
:104F100003F01A020A2A7FF43EAF0B99B1F90E0092
:104F20000028FFF638AF0C9822462B4601F020FDF2
:104F30000F900FE0299A22B10C980B9927AA04F040
:104F40002FFC0B9CA38903F0400108B210B14FF075
:104F5000FF340F940F9845B0BDE8F08F0C980B9973
:104F600027AA04F01DFC0028EBD10DF1D00A43E77D
:104F7000084603F0F1F8F0E60A9C40E78DF87B2044
:104F800093F800804EE71C4614F8018BB8F12A0F05
:104F900001F0B384A8F130000026092801F2498409
:104FA00014F8018B06EB860600EB4606A8F13000EC
:104FB00009282346F4D946EAE67634E7099C44F00A
:104FC0008000099093F800802CE7119D0A93EB1D57
:104FD00023F007014C68B3460E6808311191304642
:104FE0002146CDE9180121463046CDF81CB004F029
:104FF00017FB0128DDF81CC03046214641F0C48073
:105000000022002305F0A2FD002841F046839DF810
:105010007B30099903200026B74DB84A0D901396AE
:1050200021F0800403200026B8F1470FCCBF93463F
:10503000AB4609941090159613B10D9E701C0D90FF
:10504000099C14F0020502D00D98811C0D91099A5B
:1050500012F0840640F0D8820E9F0D9BFF1A002F9D
:1050600040F3D282102F41F38C8229981024289982
:1050700002194BF21020C0F200008AE811004B1C0C
:105080009F48A7F1110E072B179029922893CEF372
:10509000001C0AF1080A00F3C885103F102F40F3E6
:1050A0002182BCF1000F12D001334BF210211032DB
:1050B000C0F20001072B8AE81200299228930AF116
:1050C000080A00F3C485103F102F40F30B821C9593
:1050D0001D960C9D0B9E12E001334BF210211032F5
:1050E000C0F20001072B8AE812000AF1080A29928F
:1050F000289300F3E581103F102F40F3F181013335
:105100004BF210201032C0F20000072B8AE8110089
:10511000A7F110070AF1080A29922893DCDD284636
:10512000314627AA04F03CFB00287FF40AAF299AF5
:10513000289B0DF1D00ACFE7099C44F008000990A4
:1051400093F800806EE60A93099BB44643F010057D
:105150000995099A960640F11D811199CC1D24F0FC
:105160000700D0E900230830119014461D46002A9C
:1051700073F10000C0F2FC870123BCF1000F03DBD8
:10518000099A22F08001099154EA050040F03A831F
:10519000BCF1000F40F03683002B40F03085099DB4
:1051A000E90740F12C850DF5887B30240BF8414D43
:1051B000089DCBEB05061096109900256145B8BFF8
:1051C00061460D919DF87B30CDF84CC0159533E7C5
:1051D000099C0A9344F010050995099BB44613F005
:1051E000200300F0A880119BDE1D26F0070101F1CD
:1051F000080011900023D1E9004500228DF87B20A2
:10520000BBE7099C0A9344F010050995099BB44635
:105210009D0640F1138111980123C21D22F007065B
:1052200006F108011191D6E90045E6E7099DB4466B
:10523000344EA9060A931A9640F11781119AD11D8E
:1052400021F0070303F108001190D3E90045099A02
:10525000D60740F1DA8454EA050100F0D6843026FE
:1052600042F002018DF87C608DF87D800991022367
:10527000C3E7099840F02004099493F80080D1E531
:10528000119DB64600268DF87B60D5F800B00A93D4
:105290000435BBF1000F01F0F281BEF1000F58465A
:1052A000C1F24F8131467246CDF81CE003F00EFC8E
:1052B000DDF81CC0002801F09C82CBEB00006045AB
:1052C0001090139641F3CB801195139D2CEAEC7648
:1052D0000D969DF87B30CDF840C01595ACE693F85F
:1052E00000801846B8F16C0F01F0E980099C44F089
:1052F0001000099096E500BF20B2000024B2000023
:1053000010B2000030B2000064B20000099C0A93A1
:10531000A10640F1E18711980F9A0368D117041D87
:105320001A605960119444E50A93099BB44613F03E
:1053300020037FF458AF099810F0100240F0A285C6
:10534000099E16F0400300F09D8511991346081D33
:105350000C880025119050E7119A0A931368099957
:10536000B446119E1C46A64B351D4FF0780841F0FF
:105370000200302211951A93002509908DF87C20A7
:105380008DF87D80022338E7099AB44696060A9381
:105390003FF5E3AE0999CD0600F1EF84099C640660
:1053A00040F1EB841198B0F90040061DE517119605
:1053B00022462B46DBE6099840F04004099493F816
:1053C00000802FE5119E119935680A9301220B1D6B
:1053D000002001240D9211938DF8A8508DF87B00C8
:1053E00010940DF1A80B00261396159628E60A9343
:1053F000B8F1000F3FF49EAD012500230D958DF807
:10540000A8808DF87B3010950DF1A80BEBE79DF887
:105410007B00002840F076878DF87B1093F80080A1
:1054200000E5099840F00104099493F80080F9E43C
:105430000A93099BB4469D063FF5EDAE0998C40654
:1054400000F11785099A500640F11385119E01233A
:10545000311D348800251191CFE6099D684CA906BD
:105460000A93B4461A943FF5E9AE099AD20600F1C0
:10547000118509994B0640F10D85119B0025181DDA
:105480001C881190E3E6119C119824680430002CCC
:105490000E94FFF62BAD93F800801190C2E41C46E9
:1054A0000020A8F1300314F8018B00EB8000A8F174
:1054B0003005092D03EB40002346F2D90E90B2E4EB
:1054C0002846314627AA04F06BF900287FF439AD4D
:1054D000103F102F299A289B0DF1D00A3FF70FAEED
:1054E0001C9D1D9ED419591C179A07298AE884000F
:1054F000299428910AF1080A40F387800C980B99A7
:1055000027AA04F04DF900287FF41BAD9DF87B001D
:10551000299C0DF1D00A00287BD17DB1289A023454
:10552000531C02201FA9072BCAF80010CAF8040058
:10553000299428930AF1080A00F32D83802E00F0A5
:105540002282139D10982D1A002D40F3A980102D52
:1055500040F3DC86289E1027701CA5F11103E41986
:105560000728CAF80090CAF80470264E299428909B
:10557000C3F300130AF1080A00F3F182103D102D65
:1055800077DD7BB1013010340728CAF80090CAF8E3
:105590000470299428900AF1080A00F3EF82103D64
:1055A000102D66DD53462146DA463446C3460C9E2E
:1055B000DDF82C800CE0501CC3F800905F601031C7
:1055C000083307282890299140DC103D102D4BDD31
:1055D000421CC3F800905F6010310833072A2991FC
:1055E0002892A5F11005E6DD3046414627AA04F0D1
:1055F000D7F800287FF4A5AC2999289A34ABDAE7CC
:1056000044B2000064B20000299C9DF87B00002891
:1056100083D0289A0134531C01200DF17B01072B04
:10562000CAF80010CAF80400299428930AF1080A5D
:105630007FF773AF0C980B9927AA04F0B1F80028F4
:105640007FF47FAC299C0DF1D00A66E730464146D5
:1056500027AA04F0A5F800287FF473AC103D102DA4
:105660002999289834ABB3DCD8462646D3460C4655
:105670009A46421C6419072ACAF80060CAF8045006
:10568000299428920AF1080A0ADD0C980B9927AA96
:1056900004F086F800287FF454AC299C0DF1D00A60
:1056A0000999CA0500F1D58028981099109B6418B3
:1056B000421CCAF800B0CAF80430072A299428927C
:1056C0000AF1080A00F33582099A53077CD50E9D2A
:1056D0000D996D1A002D77DD102D60DD289E1027A5
:1056E000731C4BF21020A5F1110EE419C0F200005A
:1056F000072B8AE88100BF4E29942893CEF3001827
:105700000AF1080A00F3D883103D102D49DDB8F1E5
:10571000000F11D001334BF210201034C0F2000002
:10572000072B8AE88100299428930AF1080A00F3DC
:10573000F083103D102D34DDDDF83080DDF82CB025
:1057400010E0431C4BF210221034C0F20002072B71
:105750008AE884000AF1080A2893299445DC103D60
:10576000102D1EDD581C4BF210211034C0F2000128
:1057700007288AE88200A5F110050AF1080A299491
:105780002890DEDD4046594627AA04F009F8002893
:105790007FF4D7AB299C28980DF1D00AD1E7289B3C
:1057A000944E5A1C2C19072ACAF80060CAF80450F3
:1057B0002994289208DD0C980B9927AA03F0F0FF92
:1057C00000287FF4BEAB299C0F9B0D990E98814257
:1057D000ACBF5B181B180F93002C40F0B68100245F
:1057E00028940DF1D00AFFF7E4BA4046594627AA9B
:1057F00003F0D6FF00287FF4A4AB299C289B0DF171
:10580000D00AACE7012B00F0EA81022B00F0CF8137
:105810000DF1CF060723E70804EA030047EA4577BE
:10582000EA0830303C461546C0B254EA0501B3469A
:10583000307006F1FF36EED1099D5946EC077FF531
:10584000B7AC302800F0D5813024B34601F8014CC4
:10585000AEE4B8F1650F40F32581DDE918010022BF
:10586000002305F069F9002800F0FF812898624ABA
:10587000431C01340121072BCAF80020CAF8041088
:10588000299428930AF1080A00F344852098129B72
:10589000984203DB099AD3077FF516AF289816992B
:1058A000431C6418149A1699072BCAF80020CAF8EA
:1058B0000410299428930AF1080A00F30986129D1E
:1058C000013D002D7FF700AF102D40F3EB822898AB
:1058D000129F10260130123FA4190728CAF8009021
:1058E000CAF80460DFF8148129942890C7F30017E0
:1058F0000AF1080A00F35886103D102D40F3D582B6
:1059000087B1013010340728CAF80090CAF8046043
:10591000299428900AF1080A00F38786103D102D7B
:1059200040F3C3820C9FDDF82CB0234610E0601CCE
:1059300010330728CAF80090CAF804600AF1080A70
:105940002890299300F36481103D102D40F31786B1
:10595000441C1033072CCAF80090CAF80460A5F163
:1059600010050AF1080A29932894E0DD38465946C3
:1059700027AA03F015FF00287FF4E3AA299B289C9F
:105980000DF1D00AD3E70E9D0D9AAD1A002D7FF7C9
:10599000D8AD102D40F30B87289B102601331748F4
:1059A000A5F11107A419072BCAF80090CAF80460E2
:1059B000179029942893C7F300170AF1080A00F3F7
:1059C0007D83103D102D55DD7FB101331034072B41
:1059D000CAF80090CAF80460299428930AF1080ACA
:1059E00000F37983103D102D44DD22460C9F0B9C63
:1059F00015E000BF10B2000060B2000064B2000009
:105A00004B1C1032072BCAF80090CAF804600AF148
:105A1000080A289329921DDC103D102D29DD591C00
:105A200010320729CAF80090CAF80460A5F11005E1
:105A30000AF1080A29922891E2DD3846214627AA70
:105A400003F0AEFE00287FF47CAA299A28990DF174
:105A5000D00AD5E73846214627AA03F0A1FE002840
:105A60007FF46FAA103D102D299A289B0DF1D00AC2
:105A7000D5DC1446591C1798641907298AE82100B7
:105A8000299428910AF1080A7FF75BAD0C980B99CD
:105A900027AA03F085FE00287FF453AA299C0DF164
:105AA000D00A4EE51298289D01340135012840F3B3
:105AB0001F830121072DCAF800B0CAF804100AF1AB
:105AC000080A2994289500F33083169B0135149811
:105AD000E418072D8AE809000AF1080A2994289594
