:1000000000000110590C0000A90C0000AB0C00000E
:10001000AD0C0000AF0C0000B10C000000000000AF
:10002000000000000000000000000000B30C000011
:10003000B50C000000000000B70C0000B90C000077
:10004000BD0C0000590E0000C10C0000C30C0000E4
:10005000C50C0000C70C0000C90C0000CB0C000050
:10006000CD0C0000CF0C0000D10C0000D30C000020
:10007000D50C0000D70C0000D90C0000DB0C0000F0
:10008000DD0C0000DF0C0000E10C0000E30C0000C0
:10009000E50C0000E70C0000E90C0000EB0C000090
:1000A000ED0C0000EF0C0000F10C0000F30C000060
:1000B000F50C0000F70C0000F90C0000FB0C000030
:1000C000FD0C0000FF0C0000010D0000030D0000FE
:1000D000050D0000070D0000090D00000B0D0000CC
:1000E0000D0D0000002902DA4A4210127047084B39
:1000F000B0FBF3F048434FF47A71B0FBF1F3FF33F8
:10010000180A90428CBFC2EB00000020704700BF6D
:1001100040420F00F8B5164604460D460F460B4602
:100120000022D86B93F838E0000100F4706004EB13
:10013000421140EA0E00C1F80401186C013210337C
:10014000042AC1F80001ECD16B68A968A3620122FE
:100150003046FFF7C7FFE968206301223046FFF70A
:10016000C1FF2969606301223046FFF7BBFF69695F
:10017000A06301223046FFF7B5FFA969E0630022C2
:100180003046FFF7AFFFE969206401223046FFF7F0
:10019000A9FF296A606401223046FFF7A3FF696A5C
:1001A000A06401223046FFF79DFFA96AE0640122A6
:1001B0003046FFF797FFE96A206501223046FFF7D6
:1001C00091FF296B606501223046FFF78BFF40F2FB
:1001D0008311A065022240F2031021622968206287
:1001E000626230460022FFF77DFF0F308321030952
:1001F000636221620021386CC0F3C112022A0AD066
:10020000012A03D1C0F38123083307E02AB9C0F3E0
:100210008123093302E0082300E00023DAB243041B
:1002200001D5023200E001327B6B23B1F86B00FA9A
:1002300002F213431B68013110370429DBD100207F
:100240002062D4F8002142F40023C4F80031D4F82D
:10025000201141F40020C4F82001D4F8402142F4D8
:100260000023C4F84031D4F8601141F40020C4F8F0
:100270006001F8BD70B50D784B6800EB45150C4674
:1002800016468968C5F8003210460122FFF72AFF9A
:10029000E168C5F8040200223046FFF723FF216918
:1002A000C5F8080201223046FFF71CFF6169C5F856
:1002B0000C0201223046FFF715FFA169C5F81002B4
:1002C00002223046FFF70EFFE169C5F81402012251
:1002D0003046FFF707FFC5F8180270BD002A14BFAB
:1002E0004FF480720022002B0CBF134642F0010332
:1002F000003118BF012183600160704782B0019B0B
:10030000072383604269D20702D503680193F9E7A6
:10031000042906D10123C36542699306FCD5002355
:10032000C365002201294260C260026201D0042933
:1003300008D10129C2644265026503D1002101612F
:1003400083690193426910210192816202B0704772
:100350002DE9F04F8BB00D46099211091207039158
:1003600002920446DDE90201CDE906014FF0FF33B8
:1003700000260895012705934FF0000A4FF0000B67
:10038000B1464FF0000CE046089A00236244DDE9D4
:100390000601CDF804C000F067FDB0F1004FDDF8B4
:1003A00004C001D9404201314B1EB3F5803F09D250
:1003B000059A904206D28A464FF0000BE0B10590B4
:1003C0003E46C14608F10108B845AC44DCD3059966
:1003D00071B10898013743190893DDE90201DDE99D
:1003E0000623121843EB0103102FCDE90623C8D1D1
:1003F0005AEA0B0135D001E03E46C146099A06EBA8
:1004000009011009A1FB0A23704301FB0B330021F2
:1004100000F02AFD85428CBFC0EB0500C5EB000053
:1004200064235843B0FBF5F5022D1AD8E0684FEA73
:100430001A2140F0800241EA0B63FF20E260034092
:1004400000EA0A0263602260E1683601F0B209F056
:100450000F0940EA090601F07F03E3600120A6626C
:1004600000E000200BB0BDE8F08F10B5C4680A436F
:1004700004F0C00413431C43C46010BD436913F06F
:10048000200202D001600120704710467047012A07
:1004900003D1042906D1C2657047042902D1C36D76
:1004A0000023C36570470000074B021D520110B5C1
:1004B0009C5803EB401021439950AA215523C0F8C2
:1004C0008C10C0F88C3010BD00C00F40084B021DCE
:1004D000520110B59C5803EB401024EA01019950D9
:1004E000AA235522C0F88C30C0F88C2010BD00BF64
:1004F00000C00F40084B10B5041D41EA421203EB47
:100500004414626003EB4010AA215522C0F88C10FD
:10051000C0F88C2010BD00BF00C00F40012101FABF
:1005200000F0034BD3F8C4200243C3F8C420704743
:1005300000C00F40054B0128D3F804210CBF42F442
:10054000807222F48072C3F80421704700C00F400B
:10055000024BD3F80401C0F30020704700C00F40E5
:10056000044BD3F8042102F480710843C3F804015A
:10057000704700BF00C00F40044BD3F8082122F49D
:10058000407141EA0020C3F80801704700C00F40E5
:10059000044BD3F8082122F01F010843C3F80801D7
:1005A000704700BF00C00F40054B064AD3F80C014E
:1005B00000F00301012994BF10460020704700BFDE
:1005C00000C00F40001BB700074B10B5D3F88800E0
:1005D00010F4807007D0D3F88440FFF7E5FF04F0F3
:1005E0001F014C1C604310BD00C00F4008B5FFF751
:1005F000AFFF28B1012807D1BDE80840FFF7E4BFED
:10060000BDE80840FFF7D0BF002008BD08B5FFF7E0
:10061000EDFF044BD3F8041101F01F02B0FBF2F020
:1006200008BD00BF00C00F40064B10B5D3F8A8416D
:1006300014F01F0404D0FFF7D9FFB0FBF4F010BD95
:10064000204610BD00C00F4010B50446FFF7DEFF86
:10065000054BD3F80021511CB0FBF1F203482146B1
:10066000BDE81040FFF756BD00C00F4000C0092094
:1006700010B50446FFF7CAFF054BD3F80021511C03
:10068000B0FBF1F203482146BDE81040FFF7F2BD90
:1006900000C00F4000C009204209012300F01F00E4
:1006A00003FA00F104489200131859605A6822EACC
:1006B00001015960704700BFC8C10F40094B984203
:1006C0000AD003F50821884208D001F58042904203
:1006D00014BF0120172002E0022000E01620FFF7DF
:1006E0001DBF00BF008000400B4B98420ED003F5A9
:1006F000804188420CD001F5082290420AD002F5D0
:100700008043984214BF04200320704700207047A4
:10071000012070470220704700C0004038B50446F1
:10072000FFF7E2FF0F4B05469C420DD003F5082072
:1007300084420BD000F580418C4209D00A4A944291
:1007400014BF0320082004E0042002E0182000E089
:100750001920FFF7E3FE20462946BDE83840FFF7A1
:10076000CDBD00BF0000014000400A4038B504463E
:100770000D46FFF759FF294602462046BDE838409E
:10078000FFF7E6BD38B50C460546FFF7ADFF22463C
:1007900001462846BDE83840FFF779BE08B5FFF7A7
:1007A00035FF014B186008BDD00B001038B50C4B5D
:1007B0000C4C01259D602046DD60FFF7AFFF204611
:1007C0004FF4E131FFF7D2FF002220460321134608
:1007D000FFF74BFE20462946BDE83840FFF7D2BF61
:1007E00000C0024000C0004010B504460348214646
:1007F000FFF744FE0028F9D010BD00BF00C0004044
:1008000070B50E4615460024AC4204D2305DFFF7A9
:10081000EBFF0134F8E7284670BD000008B5FFF78C
:10082000C5FFFFF7BBFF094B1A6842F080601860F4
:10083000996941F080629A61186840F0006119601E
:100840009A6942F00060986108BD00BF40800920AD
:100850007047000038B5474C0020C4F80C01FFF782
:1008600069FE03232020C4F8B031C4F8A001D4F8F5
:10087000A0114A06FBD53F4A01250020C2F80C51C1
:1008800009210246FFF736FE00202946FFF70CFE3D
:10089000002228461321FFF72DFE29462846FFF7A0
:1008A00003FE0220FFF768FE0520FFF771FE2846D1
:1008B0002946FFF70BFE2F4CD4F888305B05FAD59C
:1008C0000120FFF74DFE0120FFF734FE0220C4F89F
:1008D000A8010B20FFF722FE2020FFF7DDFE0322F8
:1008E000002505EB42132449013540F20124202D57
:1008F00041F82340F5D10132052AF1D1102303F14B
:100900004005013340F20120202B41F82500F6D1AB
:100910001A4B03F1E8050833AB420BD013F8084C2F
:1009200013F8070C53F8041C00EB4412124C44F863
:100930002210F0E70F4C4FF007310125C4F8DC110D
:100940000B20C4F80051FFF7A7FE002213462946EA
:100950000B48FFF7C3FC0B48FFF776FE0A48FFF78A
:1009600087FE0A48FFF784FED4F8A0212A43C4F882
:10097000A02138BD00C00F4000C00240E079000057
:1009800000C009202C790000C0790000A079000087
:1009900070B44FF000034FF0FF040139C0F216802D
:1009A00014704FF00905013D3FF7FDAF50F8016BA2
:1009B00016704FF01C05013D3FF7FDAF13704FF06F
:1009C0000805013D3FF7FDAFFFF7E7BF13704FF09C
:1009D000FF0505F25B15013D3FF7FDAF70BC7047A9
:1009E00000BF0000F8B54FF434721748002100F042
:1009F000D5FD164B1A680023C2F3072CD7B2C2F3F9
:100A000007463C2493FBF4F504FB1530C0F3460184
:100A100000F00104062000FB0140B42169430A4CA8
:100A20000D18013361180818F12B04F805C0877000
:100A30000671E6D102F5FA72B2F1807F034988BFF0
:100A400000220A60F8BD00BFD40B0010A4080010FB
:100A50002DE9F84300214FF43472244800F09EFD44
:100A6000234B24481C680168A4F10902A1F56173B5
:100A700001F24C4CF02592FBF5F705FB17273C26BD
:100A800097FBF6F506FB15774FF00608C7F3460609
:100A90004FF0B40907F00107EDB208FB067609FB39
:100AA00005F5124F23F07F4005EB06087D194FEA4C
:100AB0001029AD19643307F808900132A870000CB2
:100AC00063452871D6D101F51C511031B1F1807FF9
:100AD000084B01D8196001E000201860621CEF2A61
:100AE0000349C8BF00220A60BDE8F883D40B001098
:100AF000C0080010B408001070B51B4C002120463F
:100B00004FF4347200F04AFD184B02211A68062592
:100B100092FBF1F602F0010005FB0601FF208E1C9E
:100B20000D1D6054A619651964187F2186F8B4005C
:100B300085F8680184F81C1286F81C1285F81C12CE
:100B40000B49087840B101323B2A1A600BDD3A208C
:100B5000186000230B7070BD013A002A1A6002DA97
:100B600001201860087070BDD40B0010BC08001084
:100B700000000010F0B5184B18481D780021002225
:100B8000914204D003290CBF7F24002400E0FF24FD
:100B90005300C6181DB10027C454777001E0C55436
:100BA00074700633B32BF4DD0132032AE8D101312E
:100BB000B4300429E3D10A480278531CD9B20C2975
:100BC000017008D1044A1378D3F1010138BF002124
:100BD000117000220270F0BDB8080010D40B001094
:100BE000B0080010174A70B51168174B481E00284E
:100BF00001DD106004E0192111601A68501E1860B0
:100C00001B68002B15DC114C114825686E1C032E47
:100C100088BF0026266021680E4D0C2606FB015277
:100C2000916800F051FD2068074B06FB005569688C
:100C30001960064A0C211068064B48431A58904721
:100C400070BD00BFC4080010A8080010AC08001058
:100C5000F07A0000C07A00000C490D4A0D4B9B1A37
:100C600040F30580043BC858D0503FF7FBAF0A4A19
:100C70000A4B9B1A40F305800020043BD0503FF7FD
:100C8000FCAF07488047074800470000C87C0000C9
:100C900000000010A4080010A4080010A80E001006
:100CA00055080000110D0000FEE7FEE7FEE7FEE735
:100CB000FEE7FEE7FEE7FEE7FEE7FEE7FEE7FEE70C
:100CC000FEE7FEE7FEE7FEE7FEE7FEE7FEE7FEE7FC
:100CD000FEE7FEE7FEE7FEE7FEE7FEE7FEE7FEE7EC
:100CE000FEE7FEE7FEE7FEE7FEE7FEE7FEE7FEE7DC
:100CF000FEE7FEE7FEE7FEE7FEE7FEE7FEE7FEE7CC
:100D0000FEE7FEE7FEE7FEE7FEE7FEE7FEE700BFE1
:100D10002DE98848FFF782FDFFF748FD0020FFF727
:100D200097FD454800F0D0FC4FF04020FFF7C6FC8F
:100D3000424B4FF040240026E660A3616069404FBB
:100D400040F0020161616269082342F001056561BA
:100D50003C4D022087F8013338602846FFF7AEFC8F
:100D6000EE606E68384F46F00101FF2269603A601C
:100D7000636843F001006060314D0224334BC5F8D5
:100D800080400021324A93F8008093F801C093F824
:100D9000B4E093F8B57093F8686193F8695193F8EB
:100DA0001C4293F81D0202EB010900222CF07F0A7D
:100DB0004FEA9A1B4BEAD81A20F07F0B4AEA0B0A3B
:100DC0002EF07F0B4AEA5B1A27F07F0B4AEA1B1AC8
:100DD00026F07F0B4AEADB0A25F07F0B4AEA9B0AE2
:100DE00024F07F0B4AEA5B0A09F802A001327F0077
:100DF00076006D00640040004FEA48084FEA4C0C52
:100E00004FEA4E0E082A5FFA88F85FFA8CFC5FFA08
:100E10008EFEFFB2F6B2EDB2E4B2C0B2C6D1083176
:100E20000233B1F5347FADD109480A4A044FFFF7C8
:100E3000AFFD022139609FE7247B0000009F240062
:100E400000E100E00080004040800920D40B001049
:100E5000C80800105480092008B5FFF7C3FE01221E
:100E60004FF040231A6008BD4BB942B9002908BFB2
:100E7000002802D04FF0FF31084600F03BB882B0A6
:100E8000EC462DE9005000F01DF8DDF804E002B05A
:100E90000CBC70472DE9F0411646984604460D46B5
:100EA00000F02AF806FB01FCA6FB002300FB08C7A4
:100EB000FB18A21A65EB0303069CC4E90023BDE8F6
:100EC000F08100BF2DE9F041904606460F461D46D1
:100ED00000F070F900FB05F3A0FB084508FB0138A2
:100EE000069B4544341B67EB0505C3E90045BDE897
:100EF000F08100BF704700BF00292DE9F00F1D46AB
:100F0000C0F29D800024002DC0F2948080460F46E0
:100F100094461E46E3BB8A4255D9B2FA82F747B1DE
:100F2000C7F1200520FA05F601FA07F1BA40B840EA
:100F30003143170CB1FBF7F61FFA82FC07FB1611C1
:100F40000CFB06F5030C43EA01439D4208D9711ED0
:100F50009B1880F013819D4240F21081023E9B1845
:100F6000591BB1FBF7F507FB15130CFB05FC80B211
:100F700040EA03418C4507D96B1E8A1880F0008136
:100F8000944540F2FD80023D45EA0641002503E01C
:100F90008B420CD9002529460A462B4614B15242F1
:100FA00063EB430310461946BDE8F00F7047B3FAF0
:100FB00083F5002D40F087808B4201D38242EAD82E
:100FC00000250121E8E712B90126B6FBF2F2B2FAD8
:100FD00082F6002E39D18E1A130C1FFA82FC0125DD
:100FE000B6FBF3F703FB17610CFB07F84FEA104958
:100FF00049EA0146B04506D9791EB61802D2B04575
:1010000000F2D3800F46C8EB0606B6FBF3F103FBF4
:1010100011630CFB01FC80B240EA03439C4506D9F6
:101020004E1E9A1802D2944500F2C280314641EA1F
:101030000741B1E7E443524263EB430366E74042B2
:1010400061EB41014FF0FF345DE7B240C6F120098A
:1010500021FA09F720FA09F901FA06F1130CB7FB96
:10106000F3F81FFA82FC03FB18770CFB08F549EA3A
:1010700001094FEA194141EA0747B040BD420AD988
:10108000BF1808F1FF3680F08E80BD4240F28B80A1
:10109000A8F10208BF18791BB1FBF3F503FB151784
:1010A0000CFB05F61FFA89F949EA07418E4206D979
:1010B0006F1E891871D28E426FD9023D89188E1B1E
:1010C00045EA08458CE7C5F1200122FA01F306FA4A
:1010D00005F627FA01F207FA05F720FA01F11E4397
:1010E0004FEA1649B2FBF9F81FFA86FA09FB1822F3
:1010F0000AFB08FB0F433B0C43EA024293450CFA00
:1011000005FC08D9921908F1FF314AD2934548D914
:10111000A8F102089219CBEB0203B3FBF9F109FB2A
:1011200011320AFB01FABFB247EA02439A4506D9D7
:101130004A1E9B1933D29A4531D902399B1941EA8B
:1011400008410F0C1FFA8CF808FB07F68AB24FEA29
:101150001C4C08FB02F80CFB02620CFB07FC02EBC8
:101160001842964288BF0CF5803CCAEB03030CEB97
:10117000124C63450ED305D000250DE70E46EFE671
:101180001D4601E700FA05F01FFA88F808EB024552
:10119000A842F1D201390025FEE63D468FE711460F
:1011A000CDE78846B7E7B04675E7023FB6182AE7AD
:1011B00002393CE72DE9F007144605460E46002BA0
:1011C0003DD18A4249D9B2FA82F747B1C7F120012D
:1011D00020FA01F206FA07F6BC40BD401643220C85
:1011E000B6FBF2F0A1B202FB106601FB00F32F0C7C
:1011F00047EA0646B34208D9471E361980F0FA80FE
:10120000B34240F2F78002383619F61AB6FBF2F311
:1012100002FB136201FB03F1ADB245EA02429142C7
:1012200007D95E1E121980F0E780914240F2E480F7
:10123000023B43EA00400021BDE8F00770478B42C3
:1012400043D8B3FA83F4002C42D18B4202D38242BA
:1012500000F2E18000210120EEE712B90127B7FB7F
:10126000F2F4B4FA84F2002A40F089800A1B230CBD
:10127000A7B20121B2FBF3F603FB162207FB06F02F
:101280004FEA154C4CEA0242904207D9121906F176
:10129000FF3C02D2904200F2D0806646121AB2FBA6
:1012A000F3F003FB102307FB00F7ADB245EA03435D
:1012B0009F4207D9421E1B1980F0A0809F4240F236
:1012C0009D80023840EA0640B6E700210846B3E7B1
:1012D000C4F1200622FA06F703FA04F321FA06F510
:1012E00001FA04F120FA06F63B434FEA134CB5FB32
:1012F000FCF71FFA83F80CFB175508FB07F946EAC1
:10130000010A4FEA1A4141EA0545A94502FA04F2E9
:1013100004D97E1EED18C0F081803746C9EB050167
:10132000B1FBFCF60CFB161508FB06F81FFA8AFA4F
:101330004AEA0541884503D9751EC91874D32E465B
:1013400046EA0746370C1FFA82FC0CFB07F5120C25
:10135000B3B20CFB03FC02FB035302FB07F203EBEB
:101360001C439D4288BF02F58032C8EB010102EBAD
:10137000134291424CD343D0304600215CE7944065
:10138000C2F1200521FA05F620FA05F501FA02F16D
:10139000230CB6FBF3FCA7B203FB1C6607FB0CF89F
:1013A00029430D0C45EA0646B04500FA02F508D976
:1013B00036190CF1FF303ED2B0453CD9ACF1020CED
:1013C0003619C8EB0602B2FBF3F003FB102607FB4D
:1013D00000F889B241EA0642904506D9461E121924
:1013E00027D2904525D902381219C8EB020240EAEB
:1013F0000C413FE7384608E733461AE7104661E7F5
:1014000000FA04F01FFA8CFC0CEB03439842B3D2B1
:10141000701E002110E7214620460DE7A9457FF602
:101420007CAF023FED1879E7884588D9023EC9189C
:1014300086E73046D9E78446C3E7023E12192DE716
:101440000F2A2DE9F00340F2A18041EA00039B0737
:1014500040F09E800C68A2F1100504604B68AC4619
:1014600043608C68BCF10F0F8460CC68C5F3001535
:10147000C46000F1100301F110042BD975B1256887
:10148000ACF1100C1D6065685D60A5689D60E56845
:101490001034DD601033BCF10F0F1BD9276804F145
:1014A00010061F60676803F110055F60A768ACF164
:1014B000200C9F60E768DF6024691C61776806F193
:1014C00010046F60B7682033AF60F668BCF10F0F8F
:1014D000EE60E3D8A2F1100828F00F0302F00F0429
:1014E00003F1100C032C00EB0C0301EB0C0851D999
:1014F000211F4FEA9109444608EB890C54F8046B0C
:10150000C8EB0C010CF1040C1D46644545F8046B56
:10151000C1F3800112D029B154F8041B644545F889
:10152000041B0BD0274657F8041B2E4646F8041B15
:1015300064686C603C1D351D6445F3D109F1010CF4
:101540004FEA8C0902F0030208EB09014B44D2B1C7
:101550000D789A18DC4303F8015B1419934204F0E8
:10156000010410D02CB111F8014F03F8014B934244
:1015700009D04D781C4604F8015B8D7802315D700E
:10158000631C9342F5D1BDE8F00370470346DEE7E4
:101590000346DDE741462246D9E700BFF0B48407A1
:1015A000034600F08D80541E002A00F08780E50776
:1015B000CEB211D41A4602F8016B134615469207B3
:1015C00010D0621E002C79D003F8016B14469A07E4
:1015D0001D4607D0013CEDE7034603F8016B9A076F
:1015E0001D46F7D1032C52D9CEB246EA06270F2C5E
:1015F00047EA07432DD9A4F1100217460F2FC2F373
:1016000000162B606B60AB60EB6005F1100216D921
:101610003EB1103F136053609360D36010320F2FC0
:101620000DD9203F02F11006136053609360D36020
:10163000136153619361D36120320F2FF1D8A4F16C
:10164000100222F00F0204F00F041032032C154494
:101650001DD9271F3E462A46032E42F8043BC7F3F6
:1016600080070DD927B1043E032E42F8043B07D969
:10167000174647F8043B083E53603A1D032EF7D83F
:10168000231F23F00302131D04F00304ED18ACB173
:10169000C9B2EA432C1905F8011BA318A54203F0AF
:1016A00001020BD01AB105F8011BA54206D02B464A
:1016B00003F8011B69705D1CA542F8D1F0BC7047AE
:1016C000054614468EE700BF0FB410B540F2304314
:1016D00082B004ACC1F2000354F8042B186823460E
:1016E0008168019400F006F802B0BDE8104004B033
:1016F000704700BF2DE9F04FC5B01D460B91144651
:101700000C9003F0B9FB00681195149004F000FDF3
:10171000002116900020CDE918010C9919B18B6BAE
:10172000002B00F00B810B9A938903F4005001B257
:1017300039B90B9843F40053426E838122F400516F
:10174000416603F0080002B2002A00F0C0800B9945
:101750000869002800F0BB8003F01A020A2A00F092
:10176000C280002134ABDFF86C9512910893279367
:10177000299128910A941A911B910F919A460A9ADD
:101780001078002800F0DE80252800F0DB80531C54
:1017900002E0252900F08D8019781C4601330029CC
:1017A000F7D10A9AA51A85B12999289B4A190A984E
:1017B000591C07298AE82100299228910AF1080A70
:1017C00000F3B2800F9842190F922378002B00F09B
:1017D0009780611C0A9100264FF0FF3C94F801802D
:1017E0000A9B0E968DF87B60099620212B22664677
:1017F0000133A8F12000582800F2DF82DFE810F062
:10180000ED02DD02DD02F702DD02DD02DD02DD02B6
:10181000DD02DD022903A400DD026000A900DD0273
:10182000C40035033503350335033503350335036C
:1018300035033503DD02DD02DD02DD02DD02DD02FE
:10184000DD02DD02DD02DD028901CB00DD02CB001D
:10185000DD02DD02DD02DD028201DD02DD02CE01FC
:10186000DD02DD02DD02DD02DD02E701DD02DD0277
:10187000FC01DD02DD02DD02DD02DD02DD02DD0252
:10188000DD02DD02DD02C802AA02CB00CB00CB00E4
:10189000C102AA02DD02DD025502DD026C027A02FB
:1018A00092021F02DD022602DD02FE02DD02DD02DF
:1018B00013030A98251A76E70E9C119064420E9441
:1018C000099840F00404099493F8008090E70C987C
:1018D0000B9901F073FD00BB0B9B9B8903F01A026F
:1018E0000A2A7FF43EAF0B99B1F90E000028FFF6EB
:1018F00038AF0C9822462B4601F020FD0F900FE0E8
:10190000299A22B10C980B9927AA04F031FC0B9C60
:10191000A38903F0400108B210B14FF0FF340F94D7
:101920000F9845B0BDE8F08F0C980B9927AA04F0EA
:101930001FFC0028EBD10DF1D00A43E7084603F065
:10194000F3F8F0E60A9C40E78DF87B2093F80080DE
:101950004EE71C4614F8018BB8F12A0F01F0B3844E
:10196000A8F130000026092801F2498414F8018BFF
:1019700006EB860600EB4606A8F130000928234650
:10198000F4D946EAE67634E7099C44F080000990F1
:1019900093F800802CE7119D0A93EB1D23F00701BB
:1019A0004C68B3460E680831119130462146CDE9A6
:1019B000180121463046CDF81CB004F019FB01286F
:1019C000DDF81CC03046214641F0C48000220023CF
:1019D00005F05CFF002841F046839DF87B300999B3
:1019E00003200026B74DB84A0D90139621F08004CD
:1019F00003200026B8F1470FCCBF9346AB460994AD
:101A00001090159613B10D9E701C0D90099C14F04A
:101A1000020502D00D98811C0D91099A12F08406DE
:101A200040F0D8820E9F0D9BFF1A002F40F3D28208
:101A3000102F41F38C82299810242899021947F617
:101A40004030C0F200008AE811004B1C9F48A7F10B
:101A5000110E072B179029922893CEF3001C0AF140
:101A6000080A00F3C885103F102F40F32182BCF113
:101A7000000F12D0013347F640311032C0F200019E
:101A8000072B8AE81200299228930AF1080A00F32A
:101A9000C485103F102F40F30B821C951D960C9DA2
:101AA0000B9E12E0013347F640311032C0F20001C4
:101AB000072B8AE812000AF1080A2992289300F3FA
:101AC000E581103F102F40F3F181013347F640309C
:101AD0001032C0F20000072B8AE81100A7F11007AE
:101AE0000AF1080A29922893DCDD2846314627AA04
:101AF00004F03EFB00287FF40AAF299A289B0DF1E1
:101B0000D00ACFE7099C44F00800099093F80080C0
:101B10006EE60A93099BB44643F010050995099AAD
:101B2000960640F11D811199CC1D24F00700D0E9E3
:101B300000230830119014461D46002A73F100005E
:101B4000C0F2FC870123BCF1000F03DB099A22F0ED
:101B50008001099154EA050040F03A83BCF1000F7E
:101B600040F03683002B40F03085099DE90740F1B5
:101B70002C850DF5887B30240BF8414D089DCBEB6F
:101B800005061096109900256145B8BF61460D9174
:101B90009DF87B30CDF84CC0159533E7099C0A932E
:101BA00044F010050995099BB44613F0200300F09A
:101BB000A880119BDE1D26F0070101F1080011909D
:101BC0000023D1E9004500228DF87B20BBE7099C6A
:101BD0000A9344F010050995099BB4469D0640F10F
:101BE000138111980123C21D22F0070606F1080196
:101BF0001191D6E90045E6E7099DB446344EA906A1
:101C00000A931A9640F11781119AD11D21F007030A
:101C100003F108001190D3E90045099AD60740F175
:101C2000DA8454EA050100F0D684302642F002013D
:101C30008DF87C608DF87D8009910223C3E70998B7
:101C400040F02004099493F80080D1E5119DB64638
:101C500000268DF87B60D5F800B00A930435BBF1FF
:101C6000000F01F0F281BEF1000F5846C1F24F8122
:101C700031467246CDF81CE003F010FCDDF81CC0C4
:101C8000002801F09C82CBEB000060451090139679
:101C900041F3CB801195139D2CEAEC760D969DF8BF
:101CA0007B30CDF840C01595ACE693F8008018461F
:101CB000B8F16C0F01F0E980099C44F01000099024
:101CC00096E500BF507B0000547B0000407B000085
:101CD000607B0000947B0000099C0A93A10640F100
:101CE000E18711980F9A0368D117041D1A60596093
:101CF000119444E50A93099BB44613F020037FF442
:101D000058AF099810F0100240F0A285099E16F015
:101D1000400300F09D8511991346081D0C8800258D
:101D2000119050E7119A0A9313680999B446119ECD
:101D30001C46A64B351D4FF0780841F002003022BA
:101D400011951A93002509908DF87C208DF87D80DF
:101D5000022338E7099AB44696060A933FF5E3AEA4
:101D60000999CD0600F1EF84099C640640F1EB84EB
:101D70001198B0F90040061DE517119622462B4632
:101D8000DBE6099840F04004099493F800802FE5C1
:101D9000119E119935680A9301220B1D0020012420
:101DA0000D9211938DF8A8508DF87B0010940DF1D1
:101DB000A80B00261396159628E60A93B8F1000F93
:101DC0003FF49EAD012500230D958DF8A8808DF878
:101DD0007B3010950DF1A80BEBE79DF87B000028F8
:101DE00040F076878DF87B1093F8008000E5099825
:101DF00040F00104099493F80080F9E40A93099BE8
:101E0000B4469D063FF5EDAE0998C40600F117856E
:101E1000099A500640F11385119E0123311D348823
:101E200000251191CFE6099D684CA9060A93B44696
:101E30001A943FF5E9AE099AD20600F11185099985
:101E40004B0640F10D85119B0025181D1C88119033
:101E5000E3E6119C119824680430002C0E94FFF6E0
:101E60002BAD93F800801190C2E41C460020A8F12D
:101E7000300314F8018B00EB8000A8F13005092D28
:101E800003EB40002346F2D90E90B2E428463146D7
:101E900027AA04F06DF900287FF439AD103F102F08
:101EA000299A289B0DF1D00A3FF70FAE1C9D1D9E6D
:101EB000D419591C179A07298AE884002994289173
:101EC0000AF1080A40F387800C980B9927AA04F0BE
:101ED0004FF900287FF41BAD9DF87B00299C0DF184
:101EE000D00A00287BD17DB1289A0234531C0220ED
:101EF0001FA9072BCAF80010CAF8040029942893D8
:101F00000AF1080A00F32D83802E00F02282139D2F
:101F100010982D1A002D40F3A980102D40F3DC8677
:101F2000289E1027701CA5F11103E4190728CAF890
:101F30000090CAF80470264E29942890C3F3001329
:101F40000AF1080A00F3F182103D102D77DD7BB114
:101F5000013010340728CAF80090CAF80470299498
:101F600028900AF1080A00F3EF82103D102D66DD7B
:101F700053462146DA463446C3460C9EDDF82C8093
:101F80000CE0501CC3F800905F6010310833072844
:101F90002890299140DC103D102D4BDD421CC3F8E8
:101FA00000905F6010310833072A29912892A5F12B
:101FB0001005E6DD3046414627AA04F0D9F800288E
:101FC0007FF4A5AC2999289A34ABDAE7747B00003A
:101FD000947B0000299C9DF87B00002883D0289AE0
:101FE0000134531C01200DF17B01072BCAF80010AE
:101FF000CAF80400299428930AF1080A7FF773AFFE
:102000000C980B9927AA04F0B3F800287FF47FAC52
:10201000299C0DF1D00A66E73046414627AA04F014
:10202000A7F800287FF473AC103D102D299928984B
:1020300034ABB3DCD8462646D3460C469A46421CFF
:102040006419072ACAF80060CAF804502994289233
:102050000AF1080A0ADD0C980B9927AA04F088F8FF
:1020600000287FF454AC299C0DF1D00A0999CA05C7
:1020700000F1D58028981099109B6418421CCAF86A
:1020800000B0CAF80430072A299428920AF1080AF5
:1020900000F33582099A53077CD50E9D0D996D1A70
:1020A000002D77DD102D60DD289E1027731C47F66C
:1020B0004030A5F1110EE419C0F20000072B8AE8A8
:1020C0008100BF4E29942893CEF300180AF1080A24
:1020D00000F3D883103D102D49DDB8F1000F11D069
:1020E000013347F640301034C0F20000072B8AE875
:1020F0008100299428930AF1080A00F3F083103D27
:10210000102D34DDDDF83080DDF82CB010E0431CFC
:1021100047F640321034C0F20002072B8AE88400F0
:102120000AF1080A2893299445DC103D102D1EDD84
:10213000581C47F640311034C0F2000107288AE8E5
:102140008200A5F110050AF1080A29942890DEDD25
:102150004046594627AA04F00BF800287FF4D7AB75
:10216000299C28980DF1D00AD1E7289B944E5A1C3F
:102170002C19072ACAF80060CAF80450299428923A
:1021800008DD0C980B9927AA03F0F2FF00287FF4D2
:10219000BEAB299C0F9B0D990E988142ACBF5B187A
:1021A0001B180F93002C40F0B681002428940DF1E9
:1021B000D00AFFF7E4BA4046594627AA03F0D8FFF1
:1021C00000287FF4A4AB299C289B0DF1D00AACE732
:1021D000012B00F0EA81022B00F0CF810DF1CF0638
:1021E0000723E70804EA030047EA4577EA083030A6
:1021F0003C461546C0B254EA0501B346307006F1BC
:10220000FF36EED1099D5946EC077FF5B7AC302873
:1022100000F0D5813024B34601F8014CAEE4B8F1AA
:10222000650F40F32581DDE918010022002305F048
:1022300023FB002800F0FF812898624A431C0134E8
:102240000121072BCAF80020CAF80410299428930A
:102250000AF1080A00F344852098129B984203DB98
:10226000099AD3077FF516AF28981699431C64186E
:10227000149A1699072BCAF80020CAF8041029945A
:1022800028930AF1080A00F30986129D013D002DEA
:102290007FF700AF102D40F3EB822898129F102695
:1022A0000130123FA4190728CAF80090CAF8046048
:1022B000DFF8148129942890C7F300170AF1080A5F
:1022C00000F35886103D102D40F3D58287B10130C0
:1022D00010340728CAF80090CAF80460299428909E
:1022E0000AF1080A00F38786103D102D40F3C382DF
:1022F0000C9FDDF82CB0234610E0601C103307283B
:10230000CAF80090CAF804600AF1080A28902993D4
:1023100000F36481103D102D40F31786441C1033E8
:10232000072CCAF80090CAF80460A5F110050AF15C
:10233000080A29932894E0DD3846594627AA03F075
:1023400017FF00287FF4E3AA299B289C0DF1D00AEF
:10235000D3E70E9D0D9AAD1A002D7FF7D8AD102D45
:1023600040F30B87289B102601331748A5F111076E
:10237000A419072BCAF80090CAF804601790299492
:102380002893C7F300170AF1080A00F37D83103D74
:10239000102D55DD7FB101331034072BCAF80090A2
:1023A000CAF80460299428930AF1080A00F3798393
:1023B000103D102D44DD22460C9F0B9C15E000BF04
:1023C000407B0000907B0000947B00004B1C10328F
:1023D000072BCAF80090CAF804600AF1080A28938B
:1023E00029921DDC103D102D29DD591C10320729C2
:1023F000CAF80090CAF80460A5F110050AF1080AAD
:1024000029922891E2DD3846214627AA03F0B0FE42
:1024100000287FF47CAA299A28990DF1D00AD5E7E3
:102420003846214627AA03F0A3FE00287FF46FAAAE
:10243000103D102D299A289B0DF1D00AD5DC1446A9
:10244000591C1798641907298AE8210029942891B2
:102450000AF1080A7FF75BAD0C980B9927AA03F0E5
:1024600087FE00287FF453AA299C0DF1D00A4EE57F
:102470001298289D01340135012840F31F83012162
:10248000072DCAF800B0CAF804100AF1080A299406
:10249000289500F33083169B01351498E418072D16
:1024A0008AE809000AF1080A2994289500F339837B
:1024B000DDE918010022002305F0DEF9002840F0D4
:1024C0004C81129A0135531E0BF101028AE80C006F
:1024D000E418072D299428950AF1080A00F3FE82D2
:1024E0001B990135641823A8072DCAF80000CAF803
:1024F00004100AF1080A299428957FF7CBAD0C98AF
:102500000B9927AA03F034FE00287FF400AA0DF1EE
:10251000D00A299CBEE50C980B9927AA03F028FE47
:1025200000283FF442AEFFF7F2B90C980B9927AAA6
:10253000079303F01DFE079B00287FF4E8A9299C60
:1025400028980DF1D00AFFE40C980B9927AA03F004
:102550000FFE00287FF4DBA9299C28980DF1D00AF2
:1025600003E50C980B9927AA03F002FE00287FF4DC
:10257000CEA9299C0DF1D00AC6E41A980DF1CF011D
:102580000F26002704EA06034FEA141B2A09C31882
:102590004BEA05741B78154654EA05028B460B700E
:1025A00001F1FF31EED1FFF7E9BA002D08BF0A2C87
:1025B00080F075810DF5887B30340BF8414D089A19
:1025C000CBEB02031093FFF7DDBACDF840C00DF15D
:1025D000D00BFFF7D7BA0223FFF7F5BA38465946B2
:1025E00027AA03F0C5FD00287FF491A9299B28980C
:1025F0000DF1D00A8EE60C980B9927AACDF81CC0D5
:1026000003F0B6FDDDF81CC000287FF480A9299AEC
:10261000289B0DF1D00AFFF726BA0C980B9927AA30
:1026200003F0A6FD00287FF472A9299A289B0DF1DA
:10263000D00AFFF72EBA209E002E40F35E83129D33
:10264000159B129A9D42A8BF1D46002D0BEB020858
:102650000DDD28996419481C0728CAF800B0CAF88B
:102660000450299428900AF1080A00F3A984159BC4
:1026700025EAE5755D1B002D40F35981102D40F3CF
:102680003D81289910264B1C9B48A5F11107A419E0
:10269000072BCAF80090CAF8046010902994289378
:1026A000C7F300170AF1080A00F37284103D102DD9
:1026B00040F3278187B101331034072BCAF800900B
:1026C000CAF80460299428930AF1080A00F3858463
:1026D000103D102D40F31581214652460C9F0B9C56
:1026E0000DE00133C2F80090566010310832072B1C
:1026F000289329911BDC103D102D40F323840133D6
:10270000C2F80090566010310832072B29912893A7
:10271000A5F11005E5DD3846214627AA03F028FD7E
:1027200000287FF4F4A82999289B34AAD9E73846D1
:10273000214627AA03F01CFD00287FF4E8A8299968
:10274000289B34AAD7E7119D2B682A1DDD1711920B
:102750001C461A462B46FFF7F0B9129E013E002E8A
:102760007FF7BEAE102E40F3D381129810270135AB
:10277000A0F11208E419072DCAF80090CAF80470F5
:10278000DFF874B129942895C8F300180AF1080AF3
:1027900000F3CB83103E102E40F3BC81B8F1000F44
:1027A00010D001351034072DCAF80090CAF8047013
:1027B000299428950AF1080A00F3CF83103E102EC1
:1027C00040F3A8812346DDF830800B9C0FE00135F3
:1027D0001033072DCAF80090CAF804700AF1080AED
:1027E000299328951EDC103E102E40F3648301359A
:1027F0001033072DCAF80090CAF80470A6F110062D
:102800000AF1080A29932895E1DD4046214627AAC6
:1028100003F0AEFC00287FF47AA8299B289D0DF1D7
:10282000D00AD4E74046214627AA03F0A1FC00289D
:102830007FF46DA8299B289D0DF1D00AD3E7119C48
:102840002568231D11932C4601230025FFF7BBB9F2
:10285000119C2568221D11922C460025FFF7B3B963
:10286000119C2668251D119534460025FFF7D5B922
:102870002898DFF884806419421CCAF80080CAF8DE
:10288000045000E40C980B9927AA03F071FC00286F
:102890007FF43DA8299C289B0DF1D00A1AE40DF184
:1028A000CF066746204629460A220023FEF7DCFAB7
:1028B00030323270204629460A220023FEF7D4FA2D
:1028C00004460D4654EA0500B34606F1FF36E9D149
:1028D0000898BC46CBEB00041094FFF753B90C9852
:1028E0000B9927AA03F044FC00287FF410A8299C28
:1028F000289B0DF1D00A02E4947B0000944A289BA7
:102900001092581C109A641907288AE82400299408
:1029100028900AF1080A0ADD0C980B9927AA03F0FF
:1029200027FC00287EF4F3AF299C0DF1D00A209BF0
:102930001299159F8B425F447CDB099AD10779D4A9
:102940001298C7EB0806C01AB042B8BF0646002E60
:102950000DDD289AA419511C0729CAF80070CAF87D
:102960000460299428910AF1080A00F3528326EAA8
:10297000E672851A002D7FF78DAB102D7FF778AFAB
:1029800028991026481CA5F11107A4190728CAF890
:102990000090CAF80460DFF8B88129942890C7F342
:1029A00000170AF1080A00F34383103D102D7FF74A
:1029B00062AF87B1013010340728CAF80090CAF816
:1029C0000460299428900AF1080A00F3C983103D95
:1029D000102D7FF750AF0C9FDDF82CB00FE0581C86
:1029E00010340728CAF80090CAF804600AF1080AEF
:1029F000289029943BDC103D102D7FF73CAF431C01
:102A00001034072BCAF80090CAF80460A5F110052D
:102A10000AF1080A29942893E1DD3846594627AA85
:102A200003F0A6FB00287EF472AF299C289B0DF1D1
:102A3000D00AD4E7289916984A1C14992418072A12
:102A4000CAF80010CAF80400299428920AF1080A6A
:102A50007FF776AF0C980B9927AA03F089FB002823
:102A60007EF455AF209B299C0DF1D00A68E73846CB
:102A7000594627AA03F07CFB00287EF448AF299C26
:102A800028980DF1D00AB6E70C980B9927AA03F005
:102A90006FFB00287EF43BAF299C289B0DF1D00AE8
:102AA00075E40C980B9927AA03F062FB00287EF4CA
:102AB0002EAF299C289B0DF1D00A79E4099BDA07F7
:102AC0003FF5DDAC0122072DCAF800B0CAF804209A
:102AD0000AF1080A299428957FF702AD0C980B9902
:102AE00027AA03F045FB00287EF411AF0DF1D00AB0
:102AF000299C289DF4E40C980B9927AA03F038FB35
:102B000000287EF404AF299C289D0DF1D00AC2E470
:102B1000DFF83CB0A4190135CAF800B0CAF8046067
:102B2000D7E40C980B9927AA03F022FB00287EF427
:102B3000EEAE299C289D0DF1D00AB9E42D26644201
:102B400065EB45058DF87B600123FEF7FCBF00BFF8
:102B5000947B0000CDF81CC003F04AFADDF81CC0DD
:102B6000002800F04D81BCF1FF3F00F06483B8F114
:102B7000670F00F03083B8F1470F00F02C830998FD
:102B8000002C40F480731793C0F24B830021139103
:102B9000B8F1660F00F0F682B8F1460F00F0F2824D
:102BA000B8F1650F00F04483B8F1450F00F04083A1
:102BB000674602218DE8820021A822A920AD03905A
:102BC00032462346029504910C98CDF81CC000F0C3
:102BD000CFFDB8F1670F8346DDF81CC002D0B8F115
:102BE000470F03D1099BD80740F12883B8F1460F5E
:102BF0000BEB070500F0DC82304621460022002363
:102C0000CDF81CC004F038FEDDF81CC0E8B9229EE7
:102C1000B54240F2878333463024F14303F8014B39
:102C20006818AB42229300F001020DD022B10133AB
:102C3000AB427470229307D01E4606F8014B5C70BD
:102C4000731CAB422293F7D11D46CBEB0505B8F1BF
:102C5000670F129500F01282B8F1470F00F00E8254
:102C6000B8F1660F40F06383209A002A40F349834D
:102C7000BCF1000F40F00E83099EF50700F10A83B6
:102C800022EAE2750D9510921592139D002D00F029
:102C9000EF8117982D2400218DF87B400990139126
:102CA000FEF7B1BE0999CA060AD40998430607D5AA
:102CB000119A0F991368141D11941980FEF75FBDC6
:102CC00011980F9C0268031D11931460FEF757BD05
:102CD00093F80080FEF78CBD2898B44EFFF7AFB98B
:102CE0000C980B9927AA03F043FA00287EF40FAE44
:102CF000299C0DF1D00AFFF7AFBA289AAC4B511CB2
:102D0000013401200729CAF80030CAF804002994C8
:102D100028910AF1080A00F39B80002E00F08F80B2
:102D2000289B16980133149A2418072BCAF8002000
:102D3000CAF804000AF1080A2994289300F3518282
:102D40007642002E40F3D380102E40F3B680102739
:102D50000133A6F11105E419072BCAF80090CAF84F
:102D60000470DFF8488229942893C5F300150AF10E
:102D7000080A00F36582103E102E40F3A08085B152
:102D800001331034072BCAF80090CAF80470299454
:102D900028930AF1080A00F36082103E102E40F3D7
:102DA0008E8020460C9D0B9C0FE04B1C1030072B97
:102DB000CAF80090CAF804700AF1080A299028930A
:102DC00056DC103E102E40F33182591C103007297A
:102DD000CAF80090CAF80470A6F110060AF1080AB1
:102DE00029902891E1DD2846214627AA03F0C0F961
:102DF00000287EF48CAD299828990DF1D00AD4E7EB
:102E0000099A6C4B6C4D032622F080010324B8F123
:102E1000470FCCBF9B46AB460D96139009919DF88A
:102E20007B3010941590FEF7EDBD109A119522EAB3
:102E3000E2730D9315969DF87B30FEF7E3BD129A71
:102E4000002A7FF46DAF0999C8077FF523A967E7CA
:102E50000C980B9927AA03F08BF900287EF457AD44
:102E6000209E299C0DF1D00A002E7FF459AFE6E791
:102E70002846214627AA03F07BF900287EF447ADB7
:102E80002998289B0DF1D00A9BE7099C013344F057
:102E90002004099490F80180FEF7AABC0C980B99C5
:102EA00027AA03F065F900287EF431AD299C0DF1C5
:102EB000D00AFFF7EAB91C462CE6DFF8F0800133B0
:102EC000A419072BCAF80080CAF804602994289333
:102ED0000AF1080A0BDD0C980B9927AA03F048F9B0
:102EE00000287EF414AD299C289B0DF1D00A129A7B
:102EF000591CA4180729CAF800B0CAF804200AF11E
:102F0000080A299428917FF7C5A8FFF7F8BA03F0BB
:102F1000FFF81396139920EAE0730D9310909DF833
:102F20007B3011951591FEF76DBD0C980B9927AA72
:102F300003F01EF900287EF4EAAC299C289D0DF1CF
:102F4000D00A27E492460C46DBE41C4693E41B4C73
:102F5000299A289B1794FEF7ABBF0C980B9927AAC8
:102F600003F006F900287EF4D2AC299C289D0DF1CF
:102F7000D00A23E40C980B9927AA03F0F9F800284B
:102F80007EF4C5AC299C28980DF1D00AFFF79AB9B8
:102F90000C980B9927AA03F0EBF800287EF4B7AC45
:102FA000299C289B0DF1D00AFFF780BB947B000081
:102FB000907B00005C7B0000587B0000407B0000A1
:102FC0000C980B9927AA03F0D3F800287EF49FAC45
:102FD000299C0DF1D00AFFF74ABB0C980B9927AA40
:102FE00003F0C6F800287EF492AC299C289B0DF1D2
:102FF000D00AFFF76DBB0C980B9927AA03F0B8F81D
:1030000000287EF484AC299C28980DF1D00AFFF7A3
:103010006BB90C980B9927AA03F0AAF800287EF444
:1030200076AC209D129B299C581B0DF1D00A9EE482
:103030000C980B9927AA03F09BF800287EF467AC44
:10304000299C28980DF1D00AAFE4BEF1060F34BFD9
:103050007146062121EAE17410910D941195DFF873
:10306000D8B2FEF7A6BE2D238DF87B30FEF7B7BC95
:10307000179A9DF87B300992FEF7C4BC209AD11CA8
:10308000104601DB94455DDAA8F10208431E002BCF
:1030900020938DF88C80C0F224812B228DF88D2016
:1030A000092B40F3088146F267660DF19A00C6F2DB
:1030B000666686FB0321DA17C2EBA10505EB8504E2
:1030C000A3EB4403024603F130001070501E092D9B
:1030D0002B46EEDC30330DF19B05D9B2854202F868
:1030E000011C40F22181AC1AE6070DF18D00134658
:1030F0000DD58DF88E1013460DF18E0013F8011BBF
:1031000005E013F8014B701C747013F8011B461C8A
:10311000AB424170F5D144ADC2EB4506F63E23AA61
:10312000129B1299B41A181901291B94109040F39C
:10313000DD80109B0026581C20EAE07110900D9154
:103140001596A2E5129B9A425DDB0999C80700F12A
:10315000AA8022EAE2700D9010924FF0670893E582
:103160000C980B9927AA03F003F800287EF4CFAB44
:10317000299C28980DF1D00A29E46E49289B1791C3
:10318000FFF75EB9032120AF21AD22A88DE8021020
:10319000029703950490324623460C98CDF81CC044
:1031A00000F0E6FADDF81CC0834600EB0C0567462C
:1031B0009BF80020302A5DD0209FED191CE52CEAF9
:1031C000EC7413900D949DF87B301195CDF840C0B0
:1031D0001590FEF717BCBCF1000F08BF4FF0010CB3
:1031E000CDE40C980B9927AA02F0C2FF00287EF4C8
:1031F0008EAB209E299C289B0DF1D00AA0E523468A
:103200000026FEF7F6BA002A129ED4BFC2F10200D1
:103210000120851925EAE57410950D944FF0670893
:1032200032E52D2204F100441392B1E4044646E64F
:103230000CF10107BDE44FF0060CA0E4229D04E56B
:103240000C980B9927AA02F093FF00287EF45FAB3D
:10325000299C289B0DF1D00A8DE50C980B9927AA83
:1032600002F086FF00287EF452AB299C289B0DF1CA
:10327000D00A92E53046214600220023CDF81CC03A
:1032800004F0FAFADDF81CC0002895D1C7F1010757
:10329000209792E70CF1010E02EB0E0424EAE47190
:1032A00010940D91F0E4531C23EAE37610930D96ED
:1032B0004FF06708E8E4303330248DF88E408DF805
:1032C0008F3024AE2BE7119893F801800668043004
:1032D000002E11902346BEF68BAA4FF0FF36FEF764
:1032E00087BA2D255B428DF88D50D9E6099E16F0E0
:1032F00001057FF41EAF109A159522EAE2740D9431
:10330000C3E4BCF1000F06D1099CE40703D40121FA
:103310000D911091B8E40CF1020020EAE0731090D6
:103320000D93B1E4354690E40DF18E06F7E6209852
:10333000ACE600BF947B0000887B00002DE9F047DD
:10334000CE69ADF58D6DB1F80CA088464F6EB1F821
:103350000EC01AAC0796D8F824604FF4806500942C
:1033600004942AF0020A0024694606948146ADF8C6
:103370000CA01997ADF80EC0099602950595FEF7B9
:10338000B9F9041E07DB4846694601F0EDFA00284A
:1033900018BF4FF0FF34BDF80C3003F0400001B20D
:1033A00029B1B8F80C2042F04003A8F80C302046B0
:1033B0001AB00DF5806DBDE8F08700BF38B52F4B12
:1033C000054618680C4610B1826B002A3DD0A389CF
:1033D00003F0080002B219466AB12269CAB113F0BB
:1033E000010122D103F0020003B203B96169A160B7
:1033F00012B3002038BD03F0100002B212B301F086
:10340000040108B220BB226943F00803A381002A0B
:10341000E5D103F42070B0F5007FE0D028462146C6
:1034200001F030FDA3892269D9E760690021434298
:10343000A160A361002ADCD1A28902F0800003B25E
:10344000002BD6D04FF0FF3038BD01F06DFBBEE74A
:10345000216B49B104F14002914203D0284601F0AA
:10346000D9FBA3890021216323F0240322691804D6
:103470000021030C61602260C6E700BF3004001029
:103480002DE9F04F03690C6983B09C42064600F3B6
:103490006B81E01C82008F18B5187B6868685A1C25
:1034A000B0FBF2F501F114030193013C043706F17E
:1034B0001408002D00F0BF804B69D8F8002098B2A6
:1034C0004FEA134C05FB00F005FB0CF303EB104C2B
:1034D0001FFA8CFE93B280B21B1ACEEB12420198F7
:1034E00002EB234E1FFA83F901F1180249EA0E4953
:1034F000381A06F11803974243F8049CC0F3800081
:103500004FEA1C4C4FEA2E4E72D328B310681B684A
:1035100082B2000C05FB02C205FB00F01FFA83FC1F
:1035200000EB1240F44492B21FFA80FEC2EB0C0C86
:10353000CEEB134303EB2C4E1FFA8CF242EA0E4CF7
:1035400001F11C0206F11C03974243F804CC4FEA38
:103550002E4E4FEA104C4BD3104650F804BBD3F814
:1035600000901FFA8BFA4FEA1B4B05FB0ACC05FBB8
:103570000BFB1FFA89FA0BEB1C4BD6441FFA8CFC91
:103580001FFA8BFACCEB0E0ECAEB194909EB2E4A47
:103590001FFA8EFC99464CEA0A4E49F804EBD2F821
:1035A00004C05A681FFA8CF305FB03FE4FEA1C4C5B
:1035B00005FB0CF30EEB1B4B03EB1B4C93B21FFAFA
:1035C0008CFE03EB2A431FFA8BFBCBEB0303CEEB02
:1035D000124202EB234E9AB24B4642EA0E49021DBA
:1035E000974243F8049B4FEA1C4C4FEA2E4EB3D24D
:1035F000201D06EB80035A68EAB9181D984519D2B8
:1036000050F8042CB2B9043BC8EB0300C21C5007AD
:103610000DD5013C98450DD21A68043B3AB109E03A
:103620001868043B30B91A68013C043B12B9013CEC
:103630009845F5D33461304602F040FB0028C0F2D3
:103640008280019AD8F8001052F8040B1FFA81FC0E
:1036500083B2000CC3EB0C03C0EB114101EB234020
:103660001FFA83FE019B4EEA004CF91A01354346CE
:103670000014974243F804CBC1F380014BD3B9B196
:1036800052F804EB19681FFA8EF91FFA81FAC9EB98
:103690000A094FEA1E4C4844CCEB114101EB204192
:1036A00080B240EA014043F8040B0814974232D339
:1036B0008246114651F8040BD3F800E01FFA80F956
:1036C0001FFA8EFB4FEA104CC9EB0B0B0BEB0A00F9
:1036D000CCEB1E4A0AEB204980B29E4640EA0940E4
:1036E0004EF8040B50685A6883B21FFA82FC000C33
:1036F000C3EB0C0303EB2943C0EB124202EB234064
:103700009AB242EA004A0A1D7346974243F804AB54
:103710004FEA204ACDD2211D06EB8103586890B9AB
:103720001A1D98450ED252F8041C59B9043BC8EB37
:103730000300C21C520713D5013C984502D21868F9
:10374000043B68B13461284603B0BDE8F08F1A68C5
:10375000043B002AF6D11968013C043B0029F1D151
:10376000013C9845F3D3EDE70020EDE700000000B1
:103770002DE9F04F016C9FB081462B9C92469B46F1
:1037800051B1436C012202FA03F24B608A6001F0EE
:103790004FFF0020C9F84000BBF1000839DB0021D1
:1037A000216000242246C7F6F074C7F6F07208EADA
:1037B0000403934216D0504659460022002304F0D9
:1037C0005BF800282BD02A9D2C9C01212960002C1D
:1037D00000F0CF80A24A226002F1FF3840461FB0BD
:1037E000BDE8F08F2A9C42F20F752560BAF1000FF8
:1037F00000F0A680DFF870822C9D002DEED098F8A6
:103800000340002C00F0088208F108012C9C216084
:10381000E4E728F0004801252560C346C1E71DAE56
:103820001CAF52460096019748465B4602F080FB6B
:10383000C8F30A520B90002A40F08C801C9F1D9800
:103840006FF482613E188E42C0F218834FF60E4527
:10385000CFF6FF75A81B06F2124208FA00F12AFA09
:1038600002F341EA030003F029FD0124A1F1F871FC
:10387000013E0C9400230022C3F6F87303F0E0FB32
:1038800071A3D3E9002303F08FFD71A3D3E90023D3
:1038900003F0D8FB044630460D4603F01FFD6EA32F
:1038A000D3E9002303F080FD02460B46204629465B
:1038B00003F0C8FB04460D4604F010F829460790B3
:1038C00000222046002303F0E1FF002840F0AC82F4
:1038D000079C162C00F2A582624D524605EBC400EF
:1038E0005B4603C803F0F0FF002800F0CF82079A80
:1038F0000024511E07911094BE1B013E00F1AB82C3
:10390000002508960A9507980028C0F29B82089A1D
:103910000F901118002008910E90289C092C2BD88C
:10392000052C41F31E80231F28930025289A911E01
:10393000032923D8DFE811F0250513052B03220501
:10394000494B4A48C8F31308B8F1000F0CBF804632
:10395000984651E72BF07F4727F4700444F07F55D9
:10396000A2F2FF360022504645F440111C9F0C92F3
:1039700080E7DFF8FC8031E7002528950024214608
:10398000C9F84440484601F02DFE4FF0FF330121B5
:1039900080460993C9F84000119329940D911D9810
:1039A0000028C0F23C81079A0E2A00F338812D4D81
:1039B000299B05EBC200002BD0E90045CDE9044569
:1039C000C0F2E284DDE904235046594603F016FEB6
:1039D00003F084FF064603F081FCDDE9042303F0D5
:1039E000E3FC02460B465046594603F029FB099B6F
:1039F00006F13002C246012B04460D460AF8012B9F
:103A000000F0958000230022C4F2240303F0CCFCD4
:103A10000022002304460D4603F02EFF002840F04C
:103A2000BE80099E08F1020708EB060BC7EB0B00EE
:103A3000C20700F1C680CDF81880CDF82090DDE9EE
:103A400004894CE0AFF3008061436F63A787D23FE6
:103A5000B3C8608B288AC63FFB799F501344D33F7D
:103A6000917B0000D07B0000B07B0000A47B0000B5
:103A7000907B000003F098FC0022002304460D46D2
:103A800003F0FAFE42464B46002840F0758520467A
:103A9000294603F0B3FD03F021FF064603F01EFCA8
:103AA00042464B4603F080FC02460B462046294620
:103AB00003F0C6FA303600230022C4F2240307F8CC
:103AC000016C03F071FC00220023BA4604460D4647
:103AD00007F1010703F0D0FE002840F04D85424673
:103AE0004B462046294603F089FD03F0F7FE0646C3
:103AF00003F0F4FB42464B4603F056FC02460B46ED
:103B00002046294603F09CFA0023002206F1300CDF
:103B10005F4507F801CCBA4604460D46C4F22403BB
:103B200007F10107A6D1DDF81880DDF820902246C4
:103B30002B462046294603F085FA04460D462246C8
:103B4000DDE904012B4603F0A1FE40B9DDE90401E3
:103B500022462B4603F090FE08B3F0071FD51AF853
:103B6000017C6FEA08010AEB0102D10706D5392F63
:103B70000AF1FF3310D113F8017C9A46392F0AF16C
:103B8000FF3309D1984500F0058513F8017C9A466A
:103B9000392F03F1FF33EED0781CC4B21C704846B5
:103BA0000B9901F045FD0024079B8AF800402A9DEF
:103BB0002C9C581C2860002C3FF410AEC4F800A0C8
:103BC0000CE6DDE904232046294603F017FD03F047
:103BD00085FE064603F082FBDDE9042303F0E4FBE7
:103BE00002460B462046294603F02AFA30360023C7
:103BF0000022C4F2240307F8016C03F0D5FB002275
:103C00000023BA4604460D4608F1030703F034FECC
:103C100000283FF410AFC2E708F10301F6E50D9F5D
:103C2000002F00F01D81289C012C40F3DC830999B2
:103C30000E9A481E8242C0F2B884151A09990029CA
:103C4000C0F207860A9C099F0A9A4846D319089A27
:103C50000121D7190A93089701F0BEFD0C9064B1B9
:103C60000898002809DD0A990346A342A8BF234605
:103C7000CA1AC71A0A92E41A08970E9800281ADD81
:103C80000D9B002B00F07E84002D10DD0C992A4640
:103C9000484601F013FF0C900C990B9A484601F02E
:103CA000A5FD0B990646484601F0C2FC0B960E99FD
:103CB0004A1B40F092830121484601F08DFD0F9D83
:103CC0000746002D05DD394648462A4601F0F6FE36
:103CD0000746289A012A40F3418100250F990029BF
:103CE00040F0F58301220899521812F01F0000F0ED
:103CF000BC80C0F12002042A40F32D860A9AC0F14C
:103D00001C00131809180A93241808910A9A002A0B
:103D100004DD48460B9901F01BFF0B90089A002A1E
:103D200004DD3946484601F013FF07461098002885
:103D300040F0B5830999002940F3D2830D980028FB
:103D400040F0A680099C0D9DE30740F18983A246BF
:103D50000B9E10E001F076FC39460646FFF790FB1B
:103D6000303008F80400314648460A22002301F0AA
:103D700069FC651C064639463046FFF781FB6C1C22
:103D800000F1300B0A220023A2453146484608F8CC
:103D900005B0DFDC0B96099900250129ACBF08EBC3
:103DA000010A08F1010A01220B99484601F0D0FEF0
:103DB00039460B9001F082FF002840F32B841AF85B
:103DC000012C6FEA08030AEB0301CC0706D5392A58
:103DD0000AF1FF3410D114F8012CA246392A0AF155
:103DE000FF3409D1A04500F0538314F8012CA246FA
:103DF000392A04F1FF34EED0501C20704846394671
:103E000001F016FC0C9A002A3FF4C9AE002D00F018
:103E1000DE82954200F0DB824846294601F008FC2C
:103E2000D5E20123109367E5079803F057FA22467D
:103E30002B4603F021FD00287FF44AAD0798411E70
:103E4000079145E50A9A07990025541A4B420A94AE
:103E50000E930F9561E5764200230A96089352E58A
:103E60000D9B0E9D0A9C0C93F9E61C230A99089A57
:103E7000C818E418D3180A90089347E74FF6EE33B2
:103E8000CFF6FF739C1B0AFA04F0ECE4109033E5C4
:103E9000002C05DD48460C99224601F059FE0C9095
:103EA000002D40F0F0830C9E099808F1010408EB06
:103EB00000010C9D0AF00102CDF83080DDF82C8065
:103EC00009910A9239464046FFF7DAFA29468246B6
:103ED000404601F0F3FE324606903946484601F06E
:103EE0001BFFC3680246601E08900AF1300B002BCE
:103EF00000F082824846114601F09AFB01230699A0
:103F00000029C0F2668305D1289A1AB90A980028B8
:103F100000F05F83002B00F3CE83099B04F801BC03
:103F20009C42A24600F0D78341460A22002348461D
:103F300001F088FBB542804600F0888229460A22BB
:103F40000023484601F07EFB314605460A224846DA
:103F5000002301F077FB01340646B3E7BAF1000F06
:103F60007FF4BBAECBF313035846002B40F07684AE
:103F70000025C7F6F0750540002D3FF4AFAE0A9955
:103F800008984A1C431C0A9208930125A6E60120C2
:103F90000D90299A002A40F3178314461192099232
:103FA0000021172CC9F844100AD9012204235B0010
:103FB00003F1140011460132A042F8D9C9F84410A7
:103FC000484601F00FFB0E2C8046C9F840003FF632
:103FD000E6AC002D3FF4E3AC079FCDE914AB002F16
:103FE00040F32E83994807F00F0600EBC6013E11FF
:103FF000D1E90045F10640F1E182954F5046D7E9FD
:104000000823594603F0FAFACDE9120106F00F062B
:10401000032786B1DFF838A220462946F20704D5E7
:10402000DAE9002303F0C0F9013776100AF1080A33
:10403000F4D104460D46DDE9120122462B4603F079
:10404000DDFA82468B46109B53B1002350465946F9
:104050000022C3F6F07303F019FC002840F00D8431
:10406000384603F03BF952465B4603F09DF90023C6
:104070000022C4F21C0302F0E5FF04460998A1F1F6
:104080005075002800F05B82079E1A96099E0D99D4
:10409000002900F02A836D4F002107EBC602A2F130
:1040A0000803D3E900230020C3F6E07103F0A6FA69
:1040B00022462B4602F0C4FFCDE916015046594670
:1040C00003F00CFC044603F009F902460B46504687
:1040D000594602F0B5FF3034CDE91201DDE9122373
:1040E000DDE91601E7B2C2460AF8017B03F0ECFBFA
:1040F000002840F003840021DDE912230020C3F6EC
:10410000F07102F09DFF02460B46DDE9160103F057
:10411000DBFB002840F01B84012E40F38D826FEA08
:104120000A054644AF19002307F001040022C4F237
:104130002403DDE916011896169403F035F90023DF
:104140000022C4F2240304460D46DDE9120103F007
:104150002BF90F46064603F0C1FB834603F0BEF879
:1041600002460B463046394602F06AFF0BF1300337
:10417000DFB2D3460BF8017B22462B46CDE9120174
:10418000DA4603F083FB002840F0E6800021DDE9F9
:1041900012230020C3F6F07102F052FF22462B4694
:1041A00003F074FB002840F0B28318998B4500F0AF
:1041B00043821698002840D000230022C4F2240332
:1041C0002046294603F0F0F800230022C4F224031D
:1041D00004460D46DDE9120103F0E6F80F460646F7
:1041E00003F07CFB824603F079F802460B4630462A
:1041F000394602F025FF0AF13002D7B20BF8017BF5
:1042000022462B46CDE91201DA4603F03FFB002897
:1042100040F0A2800021DDE912230020C3F6F071F6
:1042200002F00EFF22462B4603F030FB002840F040
:104230006E83189B9B4500F0FF81CDF86C90CDF804
:104240005880DDF86090DDE9126750E0D07B000017
:10425000987C000000210020C3F6F07102F0F0FE0F
:1042600022462B4603F012FB00230022C4F2240353
:10427000002840F047832046294603F095F80023A4
:104280000022C4F2240304460D463046394603F0AA
:104290008BF80F46064603F021FB824603F01EF81A
:1042A00002460B463046394602F0CAFE0AF1300398
:1042B0005FFA83F80BF8018B22462B4606460F4621
:1042C00003F0E4FADA4632463B46002840D10021AA
:1042D0000020C3F6F07102F0B3FE22462B4603F035
:1042E000D5FA002840F00E83CB4500F0A1810023D1
:1042F000204629460022C4F2240303F055F8002387
:104300000022C4F2240304460D463046394603F029
:104310004BF80F46064603F0E1FA804602F0DEFF56
:1043200002460B463046394602F08AFE08F130025A
:10433000DA465FFA82F80AF8018B22462B460646D7
:104340000F4603F0A3FAD34632463B46002881D0FD
:10435000DDF85880DDF86C901A9807901FE400246F
:104360000D942998079BC218541C002C1192099493
:104370003FF716AE0021C9F8441021E601210D9146
:10438000EFE700230D9304E6099900293FF71AABE4
:1043900040F0CD8200230022C4F21403DDE90401C1
:1043A00003F002F852465B4603F084FA099F0C972B
:1043B000002800F0AA80299DC246E943079148469B
:1043C000394601F035F90C9A002A3FF4E8AB48462B
:1043D0000C9901F02DF9FFF7E2BB48460B9901F06B
:1043E0006DFB0B9067E40C9A002A00F03A8200F211
:1043F00033470E9D0A9C27E411464046039201F084
:104400005DFC039903464846039301F011F9039BB1
:10441000002B7FF474AD289A002A7FF470AD0A98BF
:1044200000287FF46CADBBF1390FCDF82C80DDF89E
:10443000308000F0E7800698002801DD0AF1310B9A
:10444000DDF820A00AF801BB0C96D7E429464846BF
:104450000A22002301F0F6F801340546064631E54C
:104460000B983946FFF70CF8099B012500F1300B3A
:10447000AB4288F800B07FF78EAC48460B990A2211
:104480000D9B01F0DFF8DDF824A00B90064672E4E6
:10449000079B3124591C079188F80040AEE40B9823
:1044A000394601F00BFC0028BFF644AC0B990A22F8
:1044B0000023484601F0C6F8079B0D9A591E0B9041
:1044C0000791002A40F035821198099032E438694A
:1044D00007EB8003186901F033F9C0F1200202E410
:1044E000289A022A7FF72AAC00297FF464AF394664
:1044F0000522099B484601F0A5F8074639460B9866
:1045000001F0DCFB00287FF756AF0798C246312345
:10451000441C0AF8013B079451E7384602F0DEFEDE
:1045200002460B465046594602F03EFF0023002249
:10453000C4F21C0302F086FD0446A1F1507500236D
:104540000022C4F214035046594602F079FD224677
:104550002B4682468B4603F0B7F90746002840F009
:10456000C180224605F100435046594603F08EF9BA
:10457000002861D00C971EE7DDF81880DDF8209048
:10458000FFF70DBB48460B990E9A01F097FA0B9076
:10459000FFF791BB079D3022691C4346312488F800
:1045A000002007911C70FFF7FABA0E9F0F9BC51BE6
:1045B0005C190F940E900025FFF740BBDDE9142332
:1045C0000227CDE9122324E50124119409942994AA
:1045D000D0E6002BCDF82C805C46DDF830807FF7EC
:1045E0002FAF01220B99484601F0B2FA39460B90E1
:1045F00001F064FB002840F39381392C0AF1310B60
:104600007FF41EAFDDF820A039220AF8012B0C96AA
:10461000FFF7D7BB03D11BF0010F7FF4D0AB52469D
:1046200012F8011C9246013A3029F9D0FFF7E6BB97
:10463000DDF85880DDF86C90DDE914ABFFF7AFB919
:10464000079D6C42002C00F01381B34B04F00F0166
:1046500003EBC1020CCADDE9140102F0A5FE24112E
:1046600082468B4600F07081AC4D0227E30704D5EB
:10467000D5E9002302F098FE013708356410F5D122
:1046800082468B46DFE40C9A4846516800F0AAFF48
:104690000C9D04462B6929469E1CB2000C3100F18A
:1046A0000C00FCF7CDFE48462146012201F050FAED
:1046B0000646FFF7F9BBBBF1390FCDF82C80DDF8CA
:1046C00030809FD0DDF820A00BF1010E0AF801EB3D
:1046D0000C96FFF793BBCDF82C80DDF830800C965C
:1046E000FFF761BB00270C970FE78B4A731E02EBA5
:1046F000C307129322462B46D7E9000102F054FE6D
:10470000CDE918015046594603F0E8F8074602F093
:10471000E5FD0B4602465946504602F091FCC24662
:1047200007F13003012E04460D460AF8013B7CD008
:1047300008F1FF3404EB060B6FEA080505EB0B06E6
:1047400000230022C4F2240306F00107169702F0AA
:104750002BFE0C46064603F0C1F8039002F0BEFDA6
:1047600002460B463046214602F06AFCDDF80CC0DA
:10477000DA450CF1300204460D4688F80120574610
:1047800051D0169BEBB100230022C4F2240302F0A7
:104790000BFE0D46064603F0A1F8039002F09EFDC5
:1047A00002460B463046294602F04AFCDDF80CC0B2
:1047B000574604460CF1300007F8010F5F450D46DF
:1047C00031D02046294600230022C4F2240302F0FF
:1047D000EBFD0D46044603F081F8064602F07EFD2F
:1047E00002460B462046294602F02AFC30360023BA
:1047F0000022C4F2240307F8016F02F0D5FD0D4634
:10480000044603F06BF8064602F068FD30360246B7
:104810000B462046294602F013FC07F8016F5F455E
:10482000D1D104460D4612998A4400230022C3F6D2
:10483000E073DDE9180102F005FC22462B4603F087
:1048400025F8002843D01A981AF8017C0790FFF742
:1048500088B90A980027441AFFF7F6B95546FFF7BA
:104860003DBA1C9B0E9DC3F136070A9CFFF7ECB9BD
:10487000DDE914AB0227FFF7E6BB099C002C3FF4EF
:104880004CAE119A002A7FF7D7AE00230022C4F263
:1048900024035046594602F087FD8246781C8B4619
:1048A00002F01CFD02460B465046594602F07CFDC4
:1048B00000230022C4F21C0302F0C4FB0446079844
:1048C000A1F15075461E1A96119EFFF7E0BB00211C
:1048D000DDE918230020C3F6E07102F0B1FB2246A7
:1048E0002B4602F0F1FF00283FF4A6AE534613F822
:1048F000012C9A46302A03F1FF33F8D01A9C079412
:10490000FFF74DB94746DDF86C90DDF858801A99ED
:104910000791FFF726B900BFD07B0000987C00000C
:104920007FF48EAD1BF0010F3FF48AAD65E60027E2
:1049300020E6002348460C990A2200F083FE119BD2
:104940000C900993FFF7F6B90227FFF77CBB1A9A80
:104950000792FFF706B93FF4D9A9C0F13C03FFF76E
:1049600085BA0125FEF7E2BF2DE9F0410D468046EC
:1049700010B1836B002B61D0A889D8B100F0080278
:1049800011B2D1B12E69AEB183072C680CBF6B692F
:1049900000232E60A41BAB600AE0324623466F6AF8
:1049A0004046E969B8470028C0EB0404064452DDDC
:1049B000002CF2DC0020BDE8F0816A6840F4006160
:1049C000002AA9814FDDAC6A002CF3D000F4805698
:1049D00032B20020D8F80060C8F80000002A30D0B9
:1049E0002A6D01F0040001B229B168682B6B121A1C
:1049F0000BB1E96B521A00234046E969A047421CFB
:104A000035D0AB892A6903F4805123F40063AB816C
:104A100009B2002385E80C00002944D1296BC8F8AD
:104A200000600029C6D005F14000814202D0404616
:104A300000F0F0F800202863BDE8F08100F074F881
:104A40009AE7E96901234046A047411C02462CD061
:104A5000A989AC6AC5E7AA894FF0FF3042F040034C
:104A6000AB81BDE8F081EB6B002BACDCA2E7D8F8A2
:104A7000003063B11D2B01D0162B21D1A8892969E3
:104A800020F400620023AA816B602960C6E7AA892E
:104A9000296902F4805424B222F40062AA8185E8D4
:104AA0000A00002CBAD02865B8E7D8F80010002911
:104AB000CED01D2901D01629CDD1C8F8006079E7E4
:104AC000AA8942F04003AB81BDE8F08146F2713122
:104AD000C0F2000100F068B9002310B504468181DE
:104AE000C281036043608360436603614361836105
:104AF0001946082200F15C00FCF750FD46F27D00EB
:104B000046F2A10146F2E50246F20913C0F20000A6
:104B1000C0F20001C0F20002C0F20003E4612062B2
:104B20006162A262E36210BDF8B5836B044603B113
:104B3000F8BD0F4F012500F53B761A46C4F8E03268
:104B400003230421C4F8E4324068E763A563C4F892
:104B5000E862FFF7C1FFA06809212A46FFF7BCFF02
:104B6000E06812210222BDE8F840FFF7B5BF00BFA0
:104B7000CD4A0000704700BF704700BFF8B5224D16
:104B80000F46044600F02AFDAB685E6826F0030677
:104B900006F6EF70C11B0A0B571E3F03B7F5805F87
:104BA00007DB0021204601F057FAAB6899198842CB
:104BB00004D0204600F014FD0020F8BD79422046C4
:104BC00001F04AFA01300DD0104BA8681A68F61BA4
:104BD00046F00106D71B466020461F6000F000FD2E
:104BE0000120F8BD0021204601F036FAAB68C21A58
:104BF0000F2ADEDD064942F0010209685A60401AB8
:104C000002490860D5E700BF90040010A40B001013
:104C10009C0800102DE9F0410D460646002955D0AC
:104C200000F0DCFC55F8041CDFF86CC1A5F10804A9
:104C300021F00103E218DCF808005768904227F0E1
:104C4000030765D011F00101576032D00021D0195F
:104C50004068C00706D4DB19906800294AD0D268A2
:104C6000C260906043F001006060E350E1B9B3F5C9
:104C7000007F2DD35A0A042A66D89809383042009A
:104C80000CEB820EDEF808204349724562D0506872
:104C900020F003018B4202D292689645F7D1D36887
:104CA000E360A260D4609C603046BDE8F04100F053
:104CB00097BC55F8085C0CF10808641BA0685B19E8
:104CC00040453FD0E568C560A860C0E7BDE8F08119
:104CD000D9088A10012000FA02F00CEBC103DCF8BD
:104CE00004109A680843E360A260CCF804009C605A
:104CF000D460D9E7294DA842B1D143F00101CCF8E5
:104D00001440CCF81040E060A0606160E350CBE755
:104D1000FF18CB0707D455F8080C241AE368A268DB
:104D20003F18D3609A601E4847F001010368616034
:104D30009F42CCF80840B7D31A4A30461168FFF7B3
:104D40001DFFB1E7012182E7142A0CD802F15B00B4
:104D5000420095E78010012505FA00F548681346E2
:104D6000284348609CE7542A03D8180B6E30420051
:104D700086E7B2F5AA7F03D8D80B773042007FE7E9
:104D800040F254518A4203D8980C7C30420077E7B5
:104D9000FC227E2074E700BF9004001098040010ED
:104DA00098080010A00B00102DE9F04780468946B6
:104DB000FFF7E0FE18F538784FD04FF0000AD8F82A
:104DC0000450D8F80840013D3DD4B4F90C3005F04A
:104DD00001063BB1B4F90E00431C03D02046C8477E
:104DE0004AEA000A68346F1E6DB376B1B4F90C104C
:104DF00039B1B4F90E20531C03D02046C8474AEA03
:104E0000000A013F68347B1C1DD0B4F90C3004F15A
:104E100068057E1E3BB1B4F90E7020467B1C02D0A3
:104E2000C8474AEA000AB5F90C403CB1B5F90E1082
:104E300028464B1C02D0C8474AEA000A05F168041C
:104E4000771E002EE1D1D8F80080B8F1000FB6D15E
:104E5000FFF792FE5046BDE8F087C246F8E700BF74
:104E600040F26C40C1F20000704700BF40F28C433A
:104E7000C1F200031868704740F23440C1F20000EC
:104E8000704700BFF0B58B890C4603F0020211B2E7
:104E900091B00546002938D1B4F90E10002916DB6F
:104EA00001AA01F045FB002810DB029B03F47040CF
:104EB000B0F5005677427741B0F5004F2CD0A3896A
:104EC0004FF4806643F40060A0810CE0A38903F0F6
:104ED000800637B243F40062002F0CBF4FF48066A7
:104EE0004026A28100273146284600F03FF8A189DC
:104EF000002828D01B4A41F08003EA63A381206088
:104F0000206166619FB911B0F0BD04F14302012038
:104F1000226022616061F6E7A16A134A9142CED114
:104F2000A1894FF480663143A181E664DBE728461E
:104F3000B4F90E1001F09AFC0028E4D0A08940F0EA
:104F40000101A181DFE701F400731AB2002ADAD16E
:104F500004F1430041F002010123A181206020619E
:104F60006361D0E7CD4A0000E56000002DE9F04F15
:104F700001F10B05162D83B0064627D935F007053C
:104F800027D4A94225D8304600F028FBB5F5FC7F90
:104F900023D2B94F4FEAD50C07EBCC02D468944228
:104FA00000F0D8816368E26823F003016318586851
:104FB000A16840F001005860CA609160304600F07E
:104FC0000FFB0834204603B0BDE8F08F1025A9423E
:104FD000D9D90C2434600024F4E75FEA552C00F0A2
:104FE0008980BCF1040F00F253814FEA951707F155
:104FF000380E4FEA4E01A04F07EB8101CC68A14269
:1050000005D10CE0002A7ADAE468A14207D063688F
:1050100023F00300421B0F2AF4DD0EF1FF3E0EF1D8
:10502000010C954B3C6903F1080E744500F070814A
:10503000616821F003014A1B0F2A00F35681002A00
:10504000C3F814E0C3F810E067DAB1F5007F80F030
:105050002D81C90888104FF0010808FA00F803EB09
:10506000C1015A68886848EA0202E160A0605A609B
:105070008C60C46001204FEAAC0400FA04F0904256
:1050800055D8024206D12CF0030C400002420CF12C
:10509000040CFAD007EBCC094C46E046E3689C428E
:1050A00007D137E1002A80F25F81DB689C4200F083
:1050B0003181596821F003014A1B0F2AF2DD1C4699
:1050C000D86854F808CF591945F0010842F0010595
:1050D000CCF80C00C0F808C0C3F8048079613961CD
:1050E000C1F80CE0C1F808E04D608A50304600F08D
:1050F00077FA67E74FEAD50E4FEA4E017BE72218B1
:105100005068E368A16840F001005060CB6099608E
:10511000304600F065FA083454E7621853683046A8
:1051200043F00101516000F05BFA08344AE7BC68C3
:10513000606820F00309A94504D3C5EB09030F2BD0
:1051400000F38D804D4A4E4B11681868013104EB15
:10515000090B05EB000300F0518103F580500F307F
:1051600020F47F6121F00F0C614630468DE8041079
:1051700000F072FF9DE80410B0F1FF3F804600F0A0
:105180004681834500F20881DFF800A1C345DAF8C3
:1051900000306344CAF8003000F03E8112680132EA
:1051A00000F04B81CBEB080B5B44CAF8003018F0E1
:1051B000070100F00481C1F10800C1F5805380446B
:1051C00003F1080208EB0C010805030DC3EB020B09
:1051D0003046594600F040FF431C00F03A81C8EBCE
:1051E00000020BEB020141F00100DAF80030BC4292
:1051F0005B44C7F80880CAF80030C8F8040015D02E
:10520000B9F10F0F40F2E9806168A9F10C0222F0B8
:10521000070201F0010C0520A11842EA0C0E0F2A2A
:10522000C4F804E04860886000F20B81154ABC684D
:105230001068834288BF1360134A11688B4288BF8D
:105240001360636823F00300A842C5EB000301D399
:105250000F2B04DC304600F0C3F90024B2E66219DB
:1052600043F0010145F00105656030465160BA60C8
:1052700000F0B6F90834A5E6900400109C08001070
:10528000A00B00109C0B0010980B0010A40B00103A
:10529000BCF1140F77D9BCF1540F00F286804FEAAD
:1052A000153404F16E0E4FEA4E01A4E6480A0428B4
:1052B0006ED9142800F2A58000F15B02500007EBC4
:1052C00080008368DFF8C88183427BD05A6822F06F
:1052D0000302914202D29B689842F7D1D9687A685A
:1052E000E160A360DC608C60C4E6611942F00100FB
:1052F00045F001056560596119614860C1F80CE02D
:10530000C1F808E08A50304600F06AF9083459E6DE
:105310005A68AFE608F10108083418F0030F7FF46B
:10532000BDAE49461CF0030FA1F108040CF1FF3C8F
:1053300000F0A2800968A142F4D07C684000A0423D
:105340003FF6F5AE00283FF4F2AE044200F099803B
:10535000C4469FE604F108036469A34208BF0CF148
:10536000020C3FF45EAE1DE6591848681C4654F81E
:10537000082FDB6840F001004860D3609A60304637
:1053800000F02EF91EE60CF15B0E4FEA4E0132E6FC
:105390008A093832500092E7BC423FF4F5AE3C4CEB
:1053A000A468626822F003004EE7BCF5AA7F1AD811
:1053B0004FEAD53202F1770E4FEA4E011BE64FF469
:1053C0008052FFE69110012000FA01F0D8F8042085
:1053D00019460243C8F8042082E70122C8F80420D5
:1053E0004446002030E740F254539C4521D84FEA10
:1053F000954000F17C0E4FEA4E01FCE503F1100CE4
:10540000B2E6542829D80A0B6E32500057E7BC6820
:10541000616821F0030017E74FEA0B50010D0029E6
:105420007FF4BCAEB8680CEB090141F001044460A4
:10543000FCE6FC214FF07E0EDDE51648C0F800804A
:10544000B5E604F10801144C3046FFF7E3FB23688E
:10545000ECE601204FF0000BC7E6B0F5AA7F03D8B9
:10546000CA0B773250002AE740F2545398420CD8C6
:105470008A0C7C32500022E77C6824EA00047C60BD
:105480005CE7400008F104085FE7FC207E2216E795
:10549000900400109C080010A40B00108307F0B4C7
:1054A000C9B200F09680531E002A00F09480027862
:1054B0008A420BD0421CD8071AD512F0030F1046AF
:1054C0001CD01478013B01328C4211D1F0BC7047E2
:1054D000002B7CD01278013B8A42F7D014F0030FE6
:1054E000204604F1010209D02478013B8C42EDD022
:1054F00012F0030F104602F10104E9D1032B3FD94A
:10550000046841EA012545EA054585EA0407A7F153
:10551000013222EA07021E1F041D12F0803FC6F36B
:1055200080072DD1032E334629D967B1266820463E
:1055300085EA0602A2F1013626EA0202043412F0DC
:10554000803F19D01CE020462468061D85EA04022D
:10555000A2F1013424EA020212F0803F10D1346833
:10556000043B85EA0402A2F1013424EA0202341D5C
:1055700012F0803F304603D1043B032BE3D8204692
:105580005D1E23B303788B42A0D0431C0022E807A2
:1055900014D51C781846012201338C4296D09542CE
:1055A000184603F1010402F102020ED01B788B426F
:1055B0008CD020462478431C8C4287D095421846D4
:1055C00003F1010402F10202F0D100207EE7184647
:1055D0007CE7134692E7104678E700BF704700BFAC
:1055E000704700BFC36C70B505460C464BB153F80D
:1055F000240080B1016843F8241000230361C360D4
:1056000070BD0421212200F027FE0346E864002833
:10561000EDD1002070BD012101FA04F6721D28466B
:10562000920000F019FE0028F3D044608660E4E7A1
:1056300031B1C36C4A6853F82200086043F8221065
:10564000704700BF2DE9F8430F464969D7F810802D
:105650008CB20E0C02FB043302FB06F19CB201EB90
:10566000134604EB064407F1180343F8044C0124E5
:1056700008F1FF31360CA045814601F0010038DD0C
:1056800098B11B68022499B2180C02FB016602FB58
:1056900000F0B1B200EB164001EB004607F11C032D
:1056A00043F8046C060CA04523DD18681D4681B242
:1056B000000C02FB016602FB00F1B0B201EB1641E7
:1056C00000EB014645F8046B5868023483B2060CBF
:1056D00002FB03F302FB06F603EB114106EB11405C
:1056E0008EB206EB00412B46060CA04543F8041B86
:1056F000DBDC46B1BA68904508DA07EB880208F1AE
:105700000100566138613846BDE8F8837C68484638
:10571000611CFFF767FF3B6907F10C019A1C044607
:10572000920000F10C00FBF78BFE7868D9F84C3042
:1057300053F82010396043F820702746DDE700BF9A
:10574000020C034616D10304102013F07F4F01D141
:1057500008301B0213F0704F01D104301B0113F00D
:10576000404F01D102309B00002B02DB5B0003D4D1
:10577000202070470020E8E70130704703680246A8
:1057800013F0070007D0D9071FD498071FD4980833
:1057900010600220704799B209B91B0C102013F059
:1057A000FF0F01D108301B0A190701D104301B0972
:1057B000990701D102309B08D90704D45B0801D1B5
:1057C000202070470130136070470020704759084F
:1057D00011600120704700BF10B50C460121FFF792
:1057E00001FF01224461026110BD00BF2DE9F04FAD
:1057F0000C69176985B0BC420E46904604DA224611
:1058000046463C4688461746B368E21971689A4294
:10581000C8BF01310192FFF7E5FE0199039000EB4B
:10582000810314331430984202931AD20299C2436E
:10583000039B8A1802991833002599420560C2F328
:1058400080000ED928B11D60039B029A1C339A4236
:1058500007D90298194641F8045B5D600B1D984218
:10586000F8D808EB8703143306EB840408F1140717
:1058700014349F42009306F1140C80F0F9800398D1
:10588000183057F8043B9AB2002A6ED0614651F89E
:10589000046B50F8045C1FFA86F8ABB2360C2D0C82
:1058A00002FB083302FB06566FEA0C0506EB1346B3
:1058B0009BB243EA06436519360C8C4240F8043C1F
:1058C000C5F3800503464DD9CDB1DCF8045003681B
:1058D0001FFA85F91FFA83F82D0C1B0C02FB0988AF
:1058E00002FB0535464405EB1645B6B246EA0546C9
:1058F0000346043143F8046B2E0C8C4232D90D461A
:10590000D3F800E055F8049B1FFA8EFA1FFA89FBC2
:1059100002FB0BAA4FEA19494FEA1E4802FB098E07
:1059200056440EEB1649B6B2984646EA094648F880
:10593000046B4E6859681FFA86FA8BB2360C090C54
:1059400002FB0A3302FB061603EB194306EB134670
:1059500099B2434641EA0648291D360C8C4243F869
:10596000048BCCD81E6057F8043C1A0C7BD050F83E
:10597000046CBCF80050310C02FB0515B3B243EACD
:10598000054640F8046CE24603465AF8041B53F8F7
:10599000046B090C1FFA86F902FB01916FEA0C0EE9
:1059A00004EB0E0801EB15415445C8F38009054688
:1059B0004FEA114856D9B9F1000F1BD0BCF804507A
:1059C000360C02FB056589B205EB080E41EA0E466E
:1059D00043F8046C5AF8041B1D4653F8046B090C79
:1059E0001FFA86F902FB0191544501EB1E414FEA73
:1059F000114837D9BAF800B0350C02FB0B5689B202
:105A000006EB080B41EA0B4543F8045C56461D467D
:105A100056F8049B55F8041BDAF804804FEA194E37
:105A20001FFA81FA02FB0EA9090C1FFA88F802FB83
:105A3000081E09EB1B4A0EEB1A481FFA8AF949EABD
:105A40000841B24645F8041C5AF8041B5E68090C6C
:105A5000B3B202FB013303EB18412B1D54454FEA4F
:105A60001148C7D82960009A0430BA423FF609AFFE
:105A7000019900291ADD029B53F8040C043BA8B9D4
:105A800001994A1ED00717D553F8040D019268B941
:105A9000019A08E053F8041C043B31B953F8040C94
:105AA000013A043B08B9013AF4D1019201990398F3
:105AB000016105B0BDE8F08F0A46F4E712F0030378
:105AC0002DE9F041144680460F462BD1A4101BD07F
:105AD000D8F848602EB92EE0641015D03568B5B1FD
