:1000000000800020AD100000E1100000E3100000AF
:10001000E5100000E7100000E910000000000000FB
:10002000000000000000000000000000EB100000D5
:10003000ED10000000000000EF100000F1100000C3
:10004000F5100000F7100000F9100000FB10000090
:10005000FD100000FF10000001110000031100005E
:1000600061110000091100000B1100000D110000CA
:100070000F110000111100001311000015110000F4
:1000800017110000191100001B1100001D110000C4
:100090000000000000000000000000000000000060
:1000A0000000000000000000000000000000000050
:1000B0001F110000000000000711000021110000C6
:1000C000002902DA4A4210127047084BB0FBF3F0E5
:1000D00048434FF47A71B0FBF1F3FF33180A9042B2
:1000E0008CBFC2EB00000020704700BF40420F00F1
:1000F000F8B5164604460D460F460B460022D86B4F
:1001000093F838E0000100F4706004EB421140EA1B
:100110000E00C1F80401186C01321033042AC1F832
:100120000001ECD16B68A968A36201223046FFF799
:10013000C7FFE968206301223046FFF7C1FF296944
:10014000606301223046FFF7BBFF6969A0630122AB
:100150003046FFF7B5FFA969E06300223046FFF79C
:10016000AFFFE969206401223046FFF7A9FF296A41
:10017000606401223046FFF7A3FF696AA064012290
:100180003046FFF79DFFA96AE06401223046FFF781
:1001900097FFE96A206501223046FFF791FF296B3E
:1001A000606501223046FFF78BFF40F28311A065A6
:1001B000022240F203102162296820626262304606
:1001C0000022FFF77DFF0F30832103096362216264
:1001D0000021386CC0F3C112022A0AD0012A03D1CF
:1001E000C0F38123083307E02AB9C0F38123093320
:1001F00002E0082300E00023DAB2430401D5023212
:1002000000E001327B6B23B1F86B00FA02F213437A
:100210001B68013110370429DBD100202062D4F89B
:10022000002142F40023C4F80031D4F8201141F435
:100230000020C4F82001D4F8402142F40023C4F87F
:100240004031D4F8601141F40020C4F86001F8BDD9
:1002500070B50D784B6800EB45150C46164689685D
:10026000C5F8003210460122FFF72AFFE168C5F801
:10027000040200223046FFF723FF2169C5F8080277
:1002800001223046FFF71CFF6169C5F80C0201220C
:100290003046FFF715FFA169C5F81002022230466B
:1002A000FFF70EFFE169C5F8140201223046FFF79F
:1002B00007FFC5F8180270BD002A14BF4FF4807202
:1002C0000022002B0CBF134642F00103003118BF7F
:1002D00001218360016070470023FF21C0F8F031E5
:1002E000C0F8D031C0F8B031C0F89031C0F87031EA
:1002F000C0F85031C0F83031C0F810318160016170
:10030000704710B5012304290ED8DFE801F003057A
:1003100007090B00016808E0416806E0C16804E0D5
:10032000416902E0816900E0C16903FA02F0084016
:10033000C0B210BD012303FA02F3DAB209B9826038
:10034000704702617047083100EB41100369012AD0
:100350000CBF43F0010323F001030361704770B544
:100360004469049D072C4CD8DFE804F004112335C0
:10037000351123358268406802F007060305190D20
:1003800041F00C4242F4103040EA864020E04368DD
:1003900002F0070619050A0D42F0044040EA063350
:1003A00005F0070543EAC63646EA854141EA45506D
:1003B00070BD03F00706436801F007021905080D38
:1003C00040F0084343EA023141EAC23242EA864041
:1003D00040EA465070BD406801F007010605300D47
:1003E00040F0004646EA013002F0070240EAC23619
:1003F00003F0070346EA834105F0070041EA405055
:1004000070BD002070BDF0B50D68012606FA05F735
:10041000C469E4B23C4224D108356D01FFB24419ED
:1004200087600761A3600663036BDB07FCD5CB68BD
:10043000435108694969606001F007039DF8141091
:10044000D80240F4404301F01F0043EA40019DF808
:10045000183003F01F0041EA801121610120E260A1
:10046000F0BD0020F0BD82B0019B0723836042698C
:10047000D20702D503680193F9E7042906D10123C5
:10048000C36542699306FCD50023C3650022012998
:100490004260C260026201D0042908D10129C2640D
:1004A0004265026503D100210161836901934269BC
:1004B00010210192816202B070472DE9F04F8BB09C
:1004C0000D46099211091207039102920446DDE9D3
:1004D0000201CDE906014FF0FF3300260895012700
:1004E00005934FF0000A4FF0000BB1464FF0000C9F
:1004F000E046089A00236244DDE90601CDF804C015
:1005000000F086FFB0F1004FDDF804C001D9404291
:1005100001314B1EB3F5803F09D2059A904206D2B5
:100520008A464FF0000BE0B105903E46C14608F107
:100530000108B845AC44DCD3059971B1089801377E
:1005400043190893DDE90201DDE90623121843EBA4
:100550000103102FCDE90623C8D15AEA0B0135D08B
:1005600001E03E46C146099A06EB09011009A1FBCC
:100570000A23704301FB0B33002100F049FF854241
:100580008CBFC0EB0500C5EB000064235843B0FBF3
:10059000F5F5022D1AD8E0684FEA1A2140F08002E2
:1005A00041EA0B63FF20E260034000EA0A02636055
:1005B0002260E1683601F0B209F00F0940EA09064D
:1005C00001F07F03E3600120A66200E000200BB091
:1005D000BDE8F08F10B5C4680A4304F0C0041343AB
:1005E0001C43C46010BD436913F0010203D00068CE
:1005F00008700120704710467047012B70B54FF00E
:10060000000313D1934217D0CD5C4FF0FF344669FD
:1006100016F0200F0DD0056074B10133F2E7456983
:10062000CC5C15F0200F07D0046001339342F6D163
:1006300002E00CB1013CEAE7184670BD2DE9F84331
:100640000024012B80460F46164615D1B44207EB15
:10065000040915D04FF0FF3540464946FFF7C3FF68
:1006600010B96DB1013DF7E755B10134EEE74046F1
:10067000FFF7B9FF20B10134B44207EB0401F6D112
:100680002046BDE8F883000006299ABF084B33F8DE
:1006900011100021012A03D14268114341607047C3
:1006A000426840F20733134023EA01034360704776
:1006B000E8190000836840F2CF3018407047406965
:1006C000C0B27047406980F04001C1F380107047AC
:1006D000012A03D1042906D1C2657047042902D139
:1006E000C36D0023C36570470022FFF7F1BF000010
:1006F000CB78022B9CBF0B4AD35C4A7888BFC123BE
:10070000012A0A78897808BF43F00403012A08BF48
:1007100043F00203012908BF43F0080303F0CF03AD
:1007200083607047F6190000002301218370C370B5
:10073000017041707047036A1943016270470000FD
:10074000074B021D520110B59C5803EB401021438A
:100750009950AA215523C0F88C10C0F88C3010BDD8
:1007600000C00F40084B021D520110B59C5803EB0E
:10077000401024EA01019950AA235522C0F88C3078
:10078000C0F88C2010BD00BF00C00F40084B10B552
:10079000041D41EA421203EB4414626003EB401073
:1007A000AA215522C0F88C10C0F88C2010BD00BFC3
:1007B00000C00F40012101FA00F0034BD3F8C42020
:1007C0000243C3F8C420704700C00F40012101FA62
:1007D00000F0044BD3F8C42062EA0002C3F8C4203E
:1007E000704700BF00C00F40054B0128D3F804211B
:1007F0000CBF42F4807222F48072C3F80421704767
:1008000000C00F40024BD3F80401C0F30020704732
:1008100000C00F40044BD3F8042102F48071084358
:10082000C3F80401704700BF00C00F40044BD3F869
:10083000082122F4407141EA0020C3F80801704702
:1008400000C00F40044BD3F8082122F01F010843D9
:10085000C3F80801704700BF00C00F40054B064AAF
:10086000D3F80C0100F00301012994BF10460020C9
:10087000704700BF00C00F40001BB700074B10B50A
:10088000D3F8880010F4807007D0D3F88440FFF7C5
:10089000E5FF04F01F014C1C604310BD00C00F4079
:1008A00008B5FFF7AFFF28B1012807D1BDE8084020
:1008B000FFF7E4BFBDE80840FFF7D0BF002008BD48
:1008C00008B5FFF7EDFF044BD3F8041101F01F0248
:1008D000B0FBF2F008BD00BF00C00F40064B10B5E2
:1008E000D3F8A84114F01F0404D0FFF7D9FFB0FBE0
:1008F000F4F010BD204610BD00C00F4010B50446F6
:10090000FFF7DEFF054BD3F80021511CB0FBF1F2DD
:1009100003482146BDE81040FFF7EABB00C00F4086
:1009200000C0092010B50446FFF7CAFF054BD3F8F5
:100930000021511CB0FBF1F203482146BDE81040F4
:10094000FFF786BC00C00F4000C00920094B0F28EC
:100950004FF00102D3F8C41104D9103802FA00F2A2
:100960000A4303E002FA00F221EA0202C3F8C421BA
:10097000C0B2704700C00F4010B504461D20FFF7FD
:1009800019FF2046FFF7A8FC054B00221A705A7089
:100990009A70DA701A715A719A71DA7110BD00BFCB
:1009A0003402002038B500220C460546FFF7CBFC88
:1009B000284601212246FFF7A4FC20B12846002149
:1009C0002246FFF7B7FC284602212246FFF799FC92
:1009D00020B1284601212246FFF7ACFC014B002242
:1009E0001A5538BD3402002030B5049D9DF81440DE
:1009F00003980A604C614D60072C25D8DFE804F0AD
:100A0000040D141B1B0D141BCB60022325FA03F5E8
:100A100008618B604D60032030BD0D4ACB6052F8F9
:100A200020000861012030BD094A086152F82330D6
:100A30000220CB6030BD064A52F8200052F8233025
:100A40000861CB60002030BD4FF0FF3030BD00BFEB
:100A5000FC1900002DE9F0438BB00F4600939DF880
:100A600048101C46139B1546019302913A4604A96F
:100A70002B468046FFF7B8FFB0F1000901DA0020ED
:100A80002DE019F0010F04D12846FFF75FFF06465D
:100A900001E00026354619F0020F04D12046FFF789
:100AA00055FF814601E00024A1460E48415D025DEC
:100AB0000D48435D005D009004A8FFF750FC8DE8F1
:100AC0004002024604A940460023FFF79CFC002890
:100AD000D5D0404639460122FFF735FC01200BB046
:100AE000BDE8F0839C1A00007C1A000070B5064631
:100AF0000024E5B2304605212A46FFF702FC28B95A
:100B0000054BE25C12B90120185503E00134082CB2
:100B1000EFD10025284670BD340200204209012390
:100B200000F01F0003FA00F1044892001318596006
:100B30005A6822EA01015960704700BFC8C10F40DE
:100B40000B4B98420ED003F5804188420CD001F542
:100B5000082290420AD002F58043984214BF042034
:100B60000320704700207047012070470220704723
:100B700000C0004038B50446FFF7E2FF0F4B0546C2
:100B80009C420DD003F5082084420BD000F5804133
:100B90008C4209D00A4A944214BF0320082004E082
:100BA000042002E0182000E01920FFF703FE204691
:100BB0002946BDE83840FFF756BC00BF00000140A1
:100BC00000400A4010B50446FFF7BAFF0146204630
:100BD000FFF78AFD0C4B9C420DD003F508208442A0
:100BE0000BD000F580418C4209D0084A944214BFD2
:100BF0000320082004E0042002E0182000E019206F
:100C0000BDE81040FFF7E2BD0000014000400A408F
:100C100038B504460D46FFF761FE294602462046D8
:100C2000BDE83840FFF749BC38B50C460546FFF72C
:100C300087FF224601462846BDE83840FFF748BDF9
:100C400038B50546FFF736FD00F00E03062B0446C7
:100C500006D12846FFF733FD10F09E0F06D014E0B2
:100C6000042B07D00C2B05D0022B01D0012002E071
:100C7000032000E00520E20502D540F4807038BD75
:100C8000A30503D540F4007038BD012038BD000035
:100C9000F7B50446FFF7D4FF0128064675D0700764
:100CA0001AD520460DF1070101220023FFF7C6FCEB
:100CB00090B1364DE868AA68511C414011F0FF0F11
:100CC000EFD0AB689DF80770E81880F81071AA683B
:100CD000511CCBB2AB60E4E7B10734D5204601210B
:100CE0000022FFF7D1FC2046FFF7ECFC0128FAD0E8
:100CF000264D2B686A6882EA030010F0FF0F08D0C7
:100D0000696820461031691801220023FFF775FC3D
:100D100070B91E4F3D687B686B4013F0FF071C4D98
:100D20000BD1204601213A46FFF7AEFC2F700AE0B6
:100D300069684B1CDFB26F60DAE7012120460A4682
:100D40002970FFF7A1FC06F4807295B225B1204608
:100D50004FF48071FFF7EFFC06F40076B6B226B1CF
:100D600020464FF40071FFF7E6FC0A4F3A7862B96B
:100D70002DB120460521FFF787FC0120387026B1F0
:100D8000204606210022FFF77FFCFEBD4002002026
:100D90003C02002050040020F8B50D461746012102
:100DA00000220446FFF770FC0026F3B29F4208D1F0
:100DB00027480278002A44D120460121FFF764FC2D
:100DC00011E0244841680268531C4B4013F0FF0FA8
:100DD000EED00268A95D8318197402680136511CAF
:100DE000CBB20360E1E72046FFF76CFC0128FAD0A4
:100DF000184D2F68696881EA070212F0FF0F08D0CA
:100E00006B6820461033E91801220023FFF7F5FB39
:100E100070B91048056847686F4017F0FF070C4D20
:100E20000BD1204601213A46FFF72EFC2F700DE032
:100E300069684A1CD3B26B60DAE701212970204649
:100E400001E0204601210A46FFF71EFC3046F8BDAE
:100E50003C02002040020020F8B50E460021174653
:100E60000A460546FFF710FC0024E3B29F4212D069
:100E70000C488268C16881EA020313F0FF0F0AD0B0
:100E8000C268811891F810313355C2680134511C81
:100E9000CBB2C360E9E7284600210122FFF7F4FB4B
:100EA0002046F8BD400200200448054A0023137084
:100EB0008360C36003604360704700BF400200204E
:100EC0003C02002008B5FFF7FBFC014B186008BD91
:100ED00060040020084B984205D103F5003301213E
:100EE0009960D96070470549884204D1A1F5D8209E
:100EF00001228262C262704700C000400080094047
:100F000038B50C4B0C4C01259D602046DD60FFF789
:100F100031FE20464FF4E131FFF77AFE00222046F1
:100F200003211346FFF756FB20462946BDE838400B
:100F3000FFF77ABE00C0024000C0004008B5FFF7CE
:100F4000DFFFFFF7BFFF094B1A6842F080601860AF
:100F5000996941F080629A61186840F000611960F7
:100F60009A6942F00060986108BD00BF4080092086
:100F700038B5474C0020C4F80C01FFF735FC0323BB
:100F80002020C4F8B031C4F8A001D4F8A0114A065A
:100F9000FBD53F4A01250020C2F80C510921024629
:100FA000FFF7F4FB00202946FFF7CAFB0022284682
:100FB0001321FFF7EBFB29462846FFF7C1FB022070
:100FC000FFF734FC0520FFF73DFC28462946FFF7D4
:100FD000C9FB2F4CD4F888305B05FAD50120FFF708
:100FE00019FC0120FFF700FC0220C4F8A8010B2027
:100FF000FFF7E0FB2020FFF791FD0322002505EB22
:1010000042132449013540F20124202D41F82340A8
:10101000F5D10132052AF1D1102303F14005013346
:1010200040F20120202B41F82500F6D11A4B03F1A4
:10103000E8050833AB420BD013F8084C13F8070C43
:1010400053F8041C00EB4412124C44F82210F0E751
:101050000F4C4FF007310125C4F8DC110B20C4F808
:101060000051FFF75BFD0022134629460B48FFF7AE
:1010700023F90B48FFF742FC0A48FFF753FC0A48E4
:10108000FFF750FCD4F8A0212A43C4F8A02138BDB2
:1010900000C00F4000C00240701B000000C00920CB
:1010A000BC1A0000501B0000301B00000749084A12
:1010B000084B9A42BEBF51F8040B42F8040BFFF7ED
:1010C000F8BF05488047054800470000641C000041
:1010D0000000002034020020710F00006D1100009C
:1010E000FEE7FEE7FEE7FEE7FEE7FEE7FEE7FEE7D8
:1010F000FEE7FEE7FEE7FEE7FEE7FEE7FEE7FEE7C8
:10110000FEE7FEE7FEE7FEE7FEE7FEE7FEE7FEE7B7
:10111000FEE7FEE7FEE7FEE7FEE7FEE7FEE7FEE7A7
:10112000FEE700BF10B50A4C1C22012320460949E6
:10113000FFF763FA1A22012320460749FFF75DFAF9
:10114000064920464B220123BDE81040FFF755BA5F
:1011500000800940C2000020DE0000207C01002049
:101160000148FFF795BD00BF0080094030B58DB044
:10117000FFF7E4FE9448FFF7ADFE9348FFF7FAFC53
:101180004FF4E1319048FFF743FD002213468E48AB
:101190000321FFF71FFA8C480121FFF745FD0123CA
:1011A0000A228A498848FFF728FA04A8FFF7BCFA00
:1011B0000124854804A98DF81240FFF799FA824866
:1011C00005212246FFF760FA22467F480621FFF7F5
:1011D0005BFA7F4B082283F8072380221A60C3F84A
:1011E0008020FFF79FFF784805A901220023FFF721
:1011F00025FA0028F7D09DF814301B2B06D175492D
:10120000182201237048FFF7F8F9C3E0632BEAD1F5
:101210006D4871496C220123FFF7EFF90A2205A9F5
:1012200000236948FFF70AFA9DF81410A1F1310272
:10123000022AF3D80028F1D0322908D0332949D026
:1012400066494B2201236048FFF7D7F9CBE75E4898
:1012500000210122FFF718FA5B48022101225C4DB0
:10126000FFF712FA5848FFF71FFE0824802085F880
:10127000074328605A4D6C242946E2B25248FFF7D2
:101280008BFD241A0544F7D14F480DF10F010122BF
:10129000FFF7E2FD0028F7D09DF80F10312902D1A9
:1012A000494850490DE0322902D147484E4908E0EB
:1012B000332902D144484D4903E0342905D142483D
:1012C0004B491922FFF768FDDEE7782968D05829D5
:1012D000DAD165E04748FFF74FFB3D484FF08064A7
:1012E0004825C0F880400E2180F81A530460414818
:1012F000FFF7FCFB404B414A18700146404C414807
:101300000125002303601570236000955E2501957B
:1013100038483D4A0E23FFF79DFB21680029FCD089
:101320000F213448FFF7E2FB384A01461070334D75
:101330003348344C002323602B70036002220A23BD
:101340008DE80C002B480F2208ABFFF783FB2C4ADB
:1013500011680029FBD000202060274C1060012379
:101360000A222B7021782348009301920E2308AAA9
:10137000FFF770FB22490B68002BFBD01D4821783A
:10138000FFF710FB214A1B481178FFF70BFB4FF0CA
:10139000806210E00C48FFF795F90128FAD00CE0C4
:1013A00000210A460848FFF76FF90022064802218B
:1013B000FFF76AF98022064B11E70348FFF702FCAA
:1013C0004FF0FF300DB030BD00800940501C0000D0
:1013D00000E100E0F8000020100100207C01002066
:1013E000C801002000000020190000203200002069
:1013F0004B0000200000082051040020C7010020FD
:10140000540400205C0400206400002058040020E4
:101410004BB942B9002908BF002802D04FF0FF3174
:10142000084600F03BB882B0EC462DE9005000F0D1
:101430001DF8DDF804E002B00CBC70472DE9F04166
:101440001646984604460D4600F02AF806FB01FCB5
:10145000A6FB002300FB08C7FB18A21A65EB0303D9
:10146000069CC4E90023BDE8F08100BF2DE9F041EE
:10147000904606460F461D4600F070F900FB05F346
:10148000A0FB084508FB0138069B4544341B67EB6D
:101490000505C3E90045BDE8F08100BF704700BF06
:1014A00000292DE9F00F1D46C0F29D800024002D7B
:1014B000C0F2948080460F4694461E46E3BB8A42A3
:1014C00055D9B2FA82F747B1C7F1200520FA05F6DF
:1014D00001FA07F1BA40B8403143170CB1FBF7F6F7
:1014E0001FFA82FC07FB16110CFB06F5030C43EAFE
:1014F00001439D4208D9711E9B1880F013819D42C3
:1015000040F21081023E9B18591BB1FBF7F507FB17
:1015100015130CFB05FC80B240EA03418C4507D94A
:101520006B1E8A1880F00081944540F2FD80023DD8
:1015300045EA0641002503E08B420CD900252946E7
:101540000A462B4614B1524263EB43031046194638
:10155000BDE8F00F7047B3FA83F5002D40F08780A7
:101560008B4201D38242EAD800250121E8E712B973
:101570000126B6FBF2F2B2FA82F6002E39D18E1AAB
:10158000130C1FFA82FC0125B6FBF3F703FB17616E
:101590000CFB07F84FEA104949EA0146B04506D965
:1015A000791EB61802D2B04500F2D3800F46C8EBC0
:1015B0000606B6FBF3F103FB11630CFB01FC80B2E2
:1015C00040EA03439C4506D94E1E9A1802D2944520
:1015D00000F2C280314641EA0741B1E7E44352429A
:1015E00063EB430366E7404261EB41014FF0FF3498
:1015F0005DE7B240C6F1200921FA09F720FA09F99E
:1016000001FA06F1130CB7FBF3F81FFA82FC03FB97
:1016100018770CFB08F549EA01094FEA194141EA3C
:101620000747B040BD420AD9BF1808F1FF3680F025
:101630008E80BD4240F28B80A8F10208BF18791B52
:10164000B1FBF3F503FB15170CFB05F61FFA89F93F
:1016500049EA07418E4206D96F1E891871D28E421F
:101660006FD9023D89188E1B45EA08458CE7C5F104
:10167000200122FA01F306FA05F627FA01F207FA29
:1016800005F720FA01F11E434FEA1649B2FBF9F8BB
:101690001FFA86FA09FB18220AFB08FB0F433B0CD2
:1016A00043EA024293450CFA05FC08D9921908F165
:1016B000FF314AD2934548D9A8F102089219CBEBE1
:1016C0000203B3FBF9F109FB11320AFB01FABFB2C5
:1016D00047EA02439A4506D94A1E9B1933D29A45D6
:1016E00031D902399B1941EA08410F0C1FFA8CF8D5
:1016F00008FB07F68AB24FEA1C4C08FB02F80CFB09
:1017000002620CFB07FC02EB1842964288BF0CF504
:10171000803CCAEB03030CEB124C63450ED305D09F
:1017200000250DE70E46EFE61D4601E700FA05F03D
:101730001FFA88F808EB0245A842F1D201390025CA
:10174000FEE63D468FE71146CDE78846B7E7B0464F
:1017500075E7023FB6182AE702393CE72DE9F007A2
:10176000144605460E46002B3DD18A4249D9B2FAAD
:1017700082F747B1C7F1200120FA01F206FA07F615
:10178000BC40BD401643220CB6FBF2F0A1B202FBF6
:10179000106601FB00F32F0C47EA0646B34208D956
:1017A000471E361980F0FA80B34240F2F7800238C3
:1017B0003619F61AB6FBF2F302FB136201FB03F1D2
:1017C000ADB245EA0242914207D95E1E121980F07D
:1017D000E780914240F2E480023B43EA004000216E
:1017E000BDE8F00770478B4243D8B3FA83F4002C6E
:1017F00042D18B4202D3824200F2E18000210120DB
:10180000EEE712B90127B7FBF2F4B4FA84F2002A2A
:1018100040F089800A1B230CA7B20121B2FBF3F62A
:1018200003FB162207FB06F04FEA154C4CEA024276
:10183000904207D9121906F1FF3C02D2904200F201
:10184000D0806646121AB2FBF3F003FB102307FBAD
:1018500000F7ADB245EA03439F4207D9421E1B1968
:1018600080F0A0809F4240F29D80023840EA06400E
:10187000B6E700210846B3E7C4F1200622FA06F7CE
:1018800003FA04F321FA06F501FA04F120FA06F648
:101890003B434FEA134CB5FBFCF71FFA83F80CFBF4
:1018A000175508FB07F946EA010A4FEA1A4141EACF
:1018B0000545A94502FA04F204D97E1EED18C0F0D0
:1018C00081803746C9EB0501B1FBFCF60CFB161510
:1018D00008FB06F81FFA8AFA4AEA0541884503D947
:1018E000751EC91874D32E4646EA0746370C1FFAF0
:1018F00082FC0CFB07F5120CB3B20CFB03FC02FBE1
:10190000035302FB07F203EB1C439D4288BF02F521
:101910008032C8EB010102EB134291424CD343D019
:10192000304600215CE79440C2F1200521FA05F61B
:1019300020FA05F501FA02F1230CB6FBF3FCA7B27D
:1019400003FB1C6607FB0CF829430D0C45EA064611
:10195000B04500FA02F508D936190CF1FF303ED235
:10196000B0453CD9ACF1020C3619C8EB0602B2FB0B
:10197000F3F003FB102607FB00F889B241EA0642A8
:10198000904506D9461E121927D2904525D902380E
:101990001219C8EB020240EA0C413FE7384608E75B
:1019A00033461AE7104661E700FA04F01FFA8CFC90
:1019B0000CEB03439842B3D2701E002110E721467E
:1019C00020460DE7A9457FF67CAF023FED1879E789
:1019D000884588D9023EC91886E73046D9E784464B
:1019E000C3E7023E12192DE70100020004000800BF
:1019F00080000001000201418100000000000000A1
:101A000080000C400880084008800840080003401F
:101A10000800034008C00A4008C00A4004400340D0
:101A200000C0084000C0004000C00040000001406D
:101A3000000001400080094000800940184000403B
:101A40001C400040188000401C80004018000940E5
:101A50001C00094008800A400C800A400000000079
:101A60000000000000C0094000C0094000400A40DA
:101A700000400A40184009401C4009400002000094
:101A8000000000000201000000000000020202024B
:101A90000202020200000000000002020002010136
:101AA0000101010100000000000000000000000032
:101AB00000000404000000000000000000093D00D8
:101AC00001000000030000000700000000460000C5
:101AD00000FFFFFF00FBFFFF000C0000003C0000C8
:101AE000003C000000460000000C000000FEFFFF6C
:101AF000000000A00200000022000000805400004E
:101B000000000000000000000000000000000000D5
:101B100000000000000000000000000000000000C5
:101B200000000000000000000000000000000000B5
:101B30000100000080000000000000000023000001
:101B400000460000004600000028000000FCFFFFE7
:101B500000000000810000000000000000230000E1
:101B600000460000004600000028000000FCFFFFC7
:101B70000000000001000000000100000100000062
:101B8000000200000100000000030000010000004E
:101B9000000400000100000000050000010000003A
:101BA00000060000010000000007000081000000A6
:101BB0000008000081000000000900008100000012
:101BC000000F0000010000000010000001000000F4
:101BD00000110000010000000012000001000000E0
:101BE0000019000001000000001A0000320001008E
:101BF00001000000010000000101000001000000E0
:101C000001040000010000000108000001000000C4
:101C10000109000001000000010A000001000000AD
:101C2000010E000001000000010F00000100000093
:101C3000011000000100000001110000010000007F
:101C4000021A000000000000021B0000000000005B
:0A1C50004655434B204F46460A005C
:081C5C0044F8FF7F01000000C5
:101C64005541525420696E74657272757074206D9A
:101C7400656E752031200A0D005541525420696E5D
:101C840074657272757074206D656E752032200AE9
:101C94000D005541525420696E74657272757074EA
:101CA400206D656E752033200A0D00554152542075
:101CB400696E74657272757074206D656E7520340A
:101CC400200A0D0048656C6C6F204E5850205365F7
:101CD4006D69636F6E647563746F72732028444D0D
:101CE40041206D6F6465290A0D5541525420444DBD
:101CF40041206D6F64652064656D6F202120506CF8
:101D0400656173652074797065202768656C6C6FF4
:101D1400204E58502720746F2072657475726E0AB5
:101D24000D0048656C6C6F204E58502053656D69EA
:101D3400636F6E647563746F7273200A0D0055418E
:101D4400525420706F6C6C696E67206D6F646520EF
:101D540064656D6F200A0D000A0D554152542064CC
:101D6400656D6F207465726D696E617465642100C0
:101D74000A0D5072657373206E756D626572203141
:101D84002D3320746F2063686F6F73652055415243
:101D9400542072756E6E696E67206D6F64653A0AC1
:101DA4000D0920313A20506F6C6C696E67204D6FBD
:101DB4006465200A0D0920323A20496E74657272F6
:101DC400757074204D6F6465200A0D0920333A2024
:101DD400444D41204D6F6465200A0D000A0D506F7B
:101DE4006C6C696E67206D6F646520697320727511
:101DF4006E6E696E67206E6F772120506C6561731B
:101E0400652070726573732027632720616E6420D8
:101E140063686F6F736520616E6F74686572206D9F
:101E24006F6465200A0D00015541525420496E74B7
:101E3400657272757074206D6F64652064656D6F72
:101E44002021200A0D5072657373202731272074D6
:101E54006F2027342720746F20646973706C617954
:101E64002034206D656E7573200A0D50726573738E
:101E740020277827746F20657869737420756172E0
:101E84007420696E74657272757074206D6F646508
:041E9400200A0D0013
:04000003000010AD3C
:00000001FF
